:020000040800F2
:10000000D08800205D0800081503000817030008C9
:100010001B0300081F030008230300080000000062
:10002000000000000000000000000000270300089E
:100030002903000800000000D7CE000843C40008D0
:100040007708000877080008770800087708000894
:100050007708000877080008590500086F050008B0
:1000600031060008ED0600080307000877080008BD
:100070007708000877080008770800087708000864
:100080007708000877080008770800087708000854
:100090007708000877080008770800087708000844
:1000A0007708000877080008770800087708000834
:1000B000B7040008F70400083B05000877080008AB
:1000C0007708000877080008770800087708000814
:1000D000770800082D030008CB0300085F04000820
:1000E00077080008770800087708000877080008F4
:1000F00077080008770800087708000877080008E4
:1001000077080008770800087708000877080008D3
:1001100077080008770800087708000877080008C3
:1001200077080008770800087708000877080008B3
:1001300077080008770800087708000877080008A3
:100140007708000877080008770800087708000893
:100150007708000877080008770800087708000883
:100160007708000877080008770800087708000873
:100170007708000877080008770800087708000863
:100180007708000877080008DFF80CD00CF0FAFDBB
:1001900000480047CF070008D088002010B5002194
:1001A000012001F030FC0021022001F02CFC002194
:1001B000032001F028FC0021042001F024FC00228F
:1001C0000A21012001F086FC00226E21022001F0AC
:1001D00081FC00228221032001F07CFC002240F6F9
:1001E000B831042001F076FC10BD2DE9F0472DED6B
:1001F000048B002000F0B1FC062000F0AEFC3BA216
:100200009621084600F0FAFF3A48028B9621BE205C
:1002100000F010FE38A26421962000F0EFFF354870
:1002200002886421BE2000F005FE3248008B04B233
:100230003048008805B26119C1F500600CF082FCFD
:1002400041EC190B9FED2E0B53EC102B0CF099FB8E
:1002500041EC180B0CF094FC0646601B00EB800789
:10026000A6EB070806EB070940F6C410804501DD40
:10027000804604E018F1C80F01DA6FF0C70840F6B5
:10028000C410814501DD814604E019F1C80F01DA8F
:100290006FF0C709BDEC048BBDE8F08710B50120F5
:1002A00000F0A4FD18490870082000F09FFD1749D0
:1002B0000870022000F09AFD154908700EA2642112
:1002C000962000F09BFF104802786421BE2000F0C9
:1002D000B1FD0E4802787821BE2000F0ABFD0C483D
:1002E00002788C21BE2000F0A5FD10BD4C4546547F
:1002F000000000008C2D00205249474854000000A7
:10030000333333333333F33F580200205902002094
:100310005A020020704700BFFEE700BFFEE700BFA3
:10032000FEE700BFFEE770477047704738B503F03F
:10033000C6FFF94803F059FB0546F8480088142821
:100340002DDAF648008808B9002403E0F348007865
:10035000401EC4B2FA2D19D1F148005DA02815D174
:10036000EE4802880088401CEC4B1880EC4885540D
:100370000020EB49C8742021E74803F0EFFB6A46F0
:100380004FF40071E74805F0C5F817E0E34802882C
:100390000088401CE14B1880E14885540EE0DF489E
:1003A000008840F40040DD4908800020DC49C87422
:1003B0006A464FF40071DB4805F0ACF82021D648BE
:1003C00003F0CCFB03F08CFF38BD38B503F077FFAA
:1003D000D54803F00AFB0546D448008814282DDAD6
:1003E000D248008808B9002403E0D0480078401EB5
:1003F000C4B2FA2D19D1CE48005DA02815D1CB4842
:1004000002880088401CC94B1880C94885540020C8
:10041000C749C8742021C44803F0A0FB6A464FF4C2
:100420000071C44805F076F812E0C04802880088E0
:10043000401CBE4B1880BE48855409E02021BA48B4
:1004400003F08CFB6A464FF40071BA4805F062F87D
:100450002021B54803F082FB03F042FF38BD10B500
:1004600003F02DFFB44803F0C0FA0446B3480088F7
:10047000C7280BDA0020B2490860B048028800881B
:10048000401CAE4B1880AF4884540DE0AB48008848
:1004900040F40040A94908800020AA4981F8C7001B
:1004A0002021A54803F05AFB2021A34803F056FB66
:1004B00003F016FF10BD08B503F001FF0121880706
:1004C00003F0A1F880B100209549944A128888541D
:1004D0009248008840F40040904908806A464FF4F2
:1004E0000071904805F016F80121880703F09CF888
:1004F00003F0F6FE08BD08B503F0E1FE01219048C7
:10050000243803F080F880B100208949874A128896
:1005100088548648008840F40040844908806A4630
:100520004FF40071834804F0F5FF0121844824381A
:1005300003F07AF803F0D4FE08BD10B503F0BFFE57
:100540000121814803F05FF801217F4803F06CF836
:1005500003F0C6FE10BD704710B503F0B0FE01F009
:10056000E9FB012001F0EFFE03F0BAFE10BD10B56B
:1005700003F0A5FEFF2400E000BF2000A4F101016C
:10058000CCB2F9D1022001F0BEFE00284AD00221EF
:100590006E4801F0B1FF60B904216C4801F0ACFF76
:1005A000012806D16A48006820F004006849086004
:1005B00038E00221654801F09FFF012832D1042173
:1005C000624801F099FF68BB6248407920B96148F0
:1005D0000079401E5F4908715E480079F0281BDDF4
:1005E00001205C4988700846C07880B908460078C8
:1005F0000A2806DD0120C870084600780B3808710B
:100600000AE054480078401E5249087104E0002076
:100610005049C870092008714D48006840F0040036
:100620004B490860022001F08EFE03F059FE10BD18
:1006300010B503F044FEFF2400E000BF2000A4F149
:100640000101CCB2F9D1042001F05DFE002847D0B1
:1006500004213E4801F050FF60B902213B4801F0FF
:100660004BFF012806D13A48006820F002003849C3
:10067000086035E00421354801F03EFF01282FD104
:100680000221324801F038FF50BB3248407920B98E
:1006900030480079401C2F4908712E4800790A28FB
:1006A00005DB01202B49C87088700020087129489B
:1006B00000792849C97801EB810100EB4100254907
:1006C0000978884206DB00202249C8700120887022
:1006D000002008711E48006840F002001C490860B4
:1006E000042001F030FE03F0FBFD10BD10B503F057
:1006F000E6FD01F01FFB082001F025FE03F0F0FDF0
:1007000010BD10B503F0DBFD01F014FB102001F06B
:100710001AFE03F0E5FD10BD00100140600200204C
:10072000FC2B0020D42B002000440040620200205B
:10073000382C0020102C00200048004076020020B9
:1007400024040040CC2D002000080040000C024092
:10075000043C0140942E002000B58BB00AA8032170
:1007600000220592CDE906210890104649029922FF
:100770002A4BCDE90132CDE9031003200023284A9A
:1007800028A100902D4805F07EFB0BB000BD0EB5F2
:1007900000F0BAFB03F052FA00F001FC03F0C4FBD6
:1007A00003F096FB02A804F0C5FF42F2FF0000F040
:1007B0002BFFFFF7D1FF09E002A800214FF4FA73E5
:1007C0000A22CDE90010084606F09CFFF4E700B5C8
:1007D0008FB00AA801F0DFFF0EA803F0E6FC0EA818
:1007E000032100220592CDE90621089010464FF41E
:1007F00000713322124BCDE90132CDE90310022002
:100800000023104A10A10090134805F03CFB0EA8ED
:1008100003F045FF00200FB000BD0000180B0020C2
:100820008F0A0008417070205461736B204461741A
:100830006520436F6E6E6563746564005C0A00201A
:10084000D42300208F070008417070205461736B1F
:1008500020537461727400001823002006488047FA
:1008600006480047FEE7FEE7FEE7FEE7FEE7FEE795
:10087000FEE7FEE7FEE7FEE7072100088901000822
:1008800070B52DED048B04460D46287804EB8401E9
:10089000FC4A02EB81010874012004EB840102EBA5
:1008A0008101C872002604EB8400114601EB800030
:1008B000007C082802D0092827D11DE06878304440
:1008C00086B2A87806EB002086B230460CF04BF9D1
:1008D00041EC190B9FEDEC0B53EC102B0CF051F885
:1008E00041EC180B0CF06BF904EB8401E54A02EBC8
:1008F0008101C968088008E0687804EB8401E14A56
:1009000002EB8101C968088000BF00BFBDEC048B09
:1009100070BDF8B50646DEA000680090102E00DB22
:10092000F8BD34462046E11704EB5171C1F3C70509
:100930001DF805204FF40051D64801F0FBFDA4EB53
:10094000C500C4B22046E11704EB91718D101DF86B
:1009500005204FF48051CF4801F0ECFDA4EB850059
:10096000C4B2204604EBD0714D101DF805204FF4A1
:100970000061C84801F0DEFDA4EB4500C4B2254685
:100980001DF805204FF48061C24801F0D3FD01211C
:10099000C14801F0CDFD00BFC2E7BE4A1432126863
:1009A00091B24FF6C0721140082801DA014305E008
:1009B000A0F1080290B241EAC00291B2B54A1432E5
:1009C000116070471CB50121042001F079FF3F2020
:1009D000009001208DF8040000208DF8060003200F
:1009E0008DF8050000208DF807006946A94801F040
:1009F00021FD1CBD1CB50121022001F061FF012178
:100A0000042001F05DFF012000908DF8040000201B
:100A10008DF8060003208DF8050001208DF80700F1
:100A200069469D4801F006FD01219B4801F07EFDCD
:100A30004FF47050009001208DF8040000208DF8D4
:100A4000060003208DF8050000208DF80700694698
:100A5000904801F0EFFC1CBD1CB50121102001F0F5
:100A60002FFF8E4801F078FC4FF6FF7000900020B9
:100A70008DF804008DF8060003208DF80500022093
:100A80008DF807006946854801F0D4FC1CBD0EB501
:100A9000FFF7E2FFFFF7AEFFFFF794FF7F4801F09B
:100AA00034FD7F49088002AB00227EA1824804F019
:100AB000EAF902AB002281A1854804F0E4F90020A4
:100AC00084490880844908800121734801F02EFD83
:100AD00001F026FAFFF762FB3EE08048407920B340
:100AE0007F480078D0B942F2FF0000F08DFD7B48CE
:100AF00000797A49C97801EB810100EB410000EBF4
:100B00004000784901EBC000021D1421084600F0A6
:100B100075FB75A21421A02000F070FB0120704924
:100B200008706E498868804716E06D480078012893
:100B300004D142F2FF0000F067FD02E000206849A6
:100B4000087001F088F902A8002132230A46CDE995
:100B50000010084606F0D6FDBFE72DE9FE43044627
:100B60004FF0000801214C4801F0E0FC4B4801F037
:100B7000CCFC4B4908802046E11704EB5171C1F3CE
:100B8000C706012E06DB002240F225515A4802F02A
:100B9000B3FF05E0012240F22551574802F0ACFFB7
:100BA000012E06DB012240F22551544802F0A4FF39
:100BB00005E0002240F22551504802F09DFF02AAB4
:100BC00000213D4804F0EEFC02AA0021404804F058
:100BD000E9FC0120A040324909880840002850D093
:100BE0002046FFF7DAFE00203B490880394908809B
:100BF000012E01DB304800E03548414908602046BD
:100C0000FFF787FE0121244801F090FC02A8002391
:100C10001A46122100903A48006804F052FA012E58
:100C200001DB384800E038480746BDF80800F8B94D
:100C300097F80080012505E0785D404400F0FF084A
:100C4000681CC5B2052DF7DB785D404506D106F07E
:100C5000ABFF39462046FFF713FE04E000201E4993
:100C600008801C49088000201B4908801949088019
:100C7000BDF8080045F6C45188424CD102AB0022B1
:100C800044E051E04C2C0020000000000000B93F7F
:100C90000001000000080240000402400010024071
:100CA0006402002055736172743252656365727616
:100CB0006553656D00000000102C002055736172B3
:100CC00074315265636572766553656D000000008E
:100CD000D42B00206202002060020020942E00200D
:100CE000740200200000002052756E696E672E2E7F
:100CF0002E2E2E2E00000000001001400044004067
:100D00005C020020382C0020FC2B002007A10B489F
:100D1000006804F0B8F802A8002101230A46CDE9D2
:100D20000010084606F0EEFCBDE8FE8355736172C4
:100D3000745265636572766553656D005C020020D0
:100D4000102900DD704700BFFCE700200AE03249AF
:100D500001EB800100EB8002304B03EB8202D1609B
:100D6000411CC8B21028F2DB704770B504460E462D
:100D7000102C01DC002C00DC70BD601E44B230463B
:100D80000BF03AFDC5B2002D09DD0A2D07DA04EBA0
:100D90008401224A02EB810031460BF042FD002023
:100DA00004EB84011D4A02EB8101C87200BFE3E736
:100DB00070B50546002415E004EB8400174A02EBE9
:100DC000800128460BF01FFD50B92046FFF7C5FEF5
:100DD00004EB8400114901EB8000C068008870BDFD
:100DE000601CC4B2102CE7DB0020F8E710B5044605
:100DF000601E102801DA002801D5002010BD611EF8
:100E0000C8B2FFF7AAFE601E00EB8000034901EBA9
:100E10008000C0680088F1E78C2D00204C2C002059
:100E200070B504460D46164632462946204600F067
:100E3000E5F970BDFEB505460E4614460027002CA8
:100E400001DA644201272AA23146284600F0D6F989
:100E5000012F07D128A23146284600F0CFF905F12D
:100E60000800C5B20A226946204606F0BBFF6A4662
:100E70003146284600F0C2F9FEBD70B52DED048B59
:100E800086B004460D46B0EE408A0026B5EEC08A14
:100E9000F1EE10FA06D29FED190A30EE480AB0EED4
:100EA000408A012616A22946204600F0A7F9012E05
:100EB00007D111A22946204600F0A0F904F108004C
:100EC000C4B218EE100A0BF093FE41EC190B01A905
:100ED0000220B0EE490AF0EE690A06F0CEFF01AA40
:100EE0002946204600F08AF906B0BDEC048B70BD9F
:100EF00020202020000000002D0000000000000045
:100F0000202020202020000010B50121080301F03E
:100F1000D7FC4FF4806007F001F900F0C9FE00F043
:100F200053FB06F023FEFFF710FF42F2FF0000F034
:100F30006BFB012006F0FAFD022006F0F7FD03200E
:100F400006F0F4FD042006F0F1FD012006F0FBFDA3
:100F5000012006F0F8FD012006F0F5FD012006F065
:100F6000F2FD022006F0EFFD022006F0ECFD02206B
:100F700006F0E9FD022006F0E6FD06F041FE06F06F
:100F8000B3FE10BD10B54FF4407007F0C7F810BDA8
:100F90001FB5684601F0FFFB019804B010BD70B5A5
:100FA000FFF7F6FF04461E480068B4FBF0F528463C
:100FB0000BF061FA70BD10B5FFF7EAFF044619485F
:100FC000006840F0807017490860002016494860AA
:100FD0000846006840F001000860204602F09FFECD
:100FE00010BD1149486870472DE9F0478246FFF768
:100FF000CFFF4FF0000980460C4A00234046494687
:101000000BF099FB064632460B46504600210BF08A
:1010100092FB04460D4620462946BDE8F0870000B5
:101020008CDF0008FCED00E0001000E040420F0003
:1010300010B5044600BF0221FE4807F0A0FA0028C0
:10104000F9D02146FB4807F063FA00BF0121F948B7
:1010500007F095FA0028F9D0F64807F056FA10BDC7
:1010600010B504464FF40061F34801F05FFAC4F391
:101070000720FFF7DDFFE0B2FFF7DAFF10BD10B584
:1010800004464FF40061EC4801F052FA2046FFF7A5
:10109000CFFF10BD10B504464FF40061E64801F0E3
:1010A00045FA2046FFF7C4FF10BD2DE9F041044684
:1010B0000D4616461F462A20FFF7E1FFC4F307201E
:1010C000FFF7E8FFE0B2FFF7E5FFC6F30720FFF701
:1010D000E1FFF0B2FFF7DEFF2B20FFF7D0FFC5F3F3
:1010E0000720FFF7D7FFE8B2FFF7D4FFC7F30720C9
:1010F000FFF7D0FFF8B2FFF7CDFF2C20FFF7BFFFBF
:10110000BDE8F08170B504460D462B4622462946BF
:101110002046FFF7CAFFC9480088FFF7A1FF70BD4E
:101120002DE9FF5F05460F461646AA46C348B0F8AC
:1011300000B0B5F5997F01DAEE2F01DDBDE8FF9F24
:10114000A6F12000C6B207F10F03EA1D3946284672
:10115000FFF7ABFF039858BB002426E004EB061012
:10116000B74911F800904FF0000816E009F00100AF
:1011700018B1B248A0F800B003E0B2480088AF4907
:101180000880AE480088FFF76BFF4FEA6909681CCA
:1011900085B208F1010000F0FF08B8F1080FE5DBA7
:1011A0005546781C87B2601CC4B2102CD6DB20E0F8
:1011B00000241CE004EB0610A14911F800904FF048
:1011C00000080FE009F0010030B13A1991B205EBC7
:1011D000080290B2FFF796FF4FEA690908F1010093
:1011E00000F0FF08B8F1080FECDB601CC4B2102C53
:1011F000E0DB9248A0F800B000BF9FE770B505465D
:101200000E46144615E0B5F5997F03DB002506F17F
:10121000100086B2EE2E02DD00200546064622783A
:10122000002331462846FFF77BFF05F1080085B211
:10123000641C20780028E6D170BD014606E000203D
:1012400002E000BF421CD0B20628FADB0A00A1F17E
:10125000010399B2F3D1704710B5024600BF0021D7
:1012600008E0002002E000BF431CD8B20A28FADBE5
:101270004B1CD9B2FE29F4DB1300A2F10104A2B287
:10128000EDD110BD1CB50121022001F019FB012197
:10129000084601F015FB4FF48050009001208DF8B6
:1012A000040000208DF8060001208DF807000020C2
:1012B0008DF805006946644801F0BCF84FF4805190
:1012C000614801F033F94FF41060009001208DF86F
:1012D000040000208DF8060001208DF80700002092
:1012E0008DF805006946544801F0A4F84FF4807168
:1012F000514801F01BF91CBD00B587B001218803DE
:1013000001F011FB0121022001F0DAFA05220D2182
:101310004D4801F01AF905220E214B4801F015F94C
:1013200005220F21484801F010F902208DF818001D
:1013300000208DF81A0001208DF81B0000208DF888
:1013400019004FF46040059005A93F4801F072F87C
:10135000384806F053FF0020ADF80000ADF8040057
:101360000220ADF806000120ADF808004002ADF8FB
:101370000A000020ADF80C00ADF80E000720ADF813
:1013800010004FF48270ADF802006946294806F05B
:101390005BFF0121274807F03AF807B000BD70B5A0
:1013A00004460D46E0B2FFF76AFE2846FFF758FEF6
:1013B00070BD10B5CB20FFF762FE3920FFF76AFE43
:1013C0002C20FFF767FE0020FFF764FE3420FFF7B4
:1013D00061FE0220FFF75EFECF20FFF750FE0020E7
:1013E000FFF758FEC120FFF755FE3020FFF752FEF1
:1013F000E820FFF744FE8520FFF74CFE0020FFF7B2
:1014000049FE7820FFF746FEEA20FFF738FE00206D
:10141000FFF740FE0020FFF73DFEED20FFF72FFE17
:101420006420FFF737FE0320FFF734FE1220FFF79A
:1014300031FE0BE00038004000000240780200203E
:10144000AC0300207A020020000402408120FFF754
:1014500021FEF720FFF713FE2020FFF71BFEC02020
:10146000FFF70DFE2320FFF715FEC120FFF707FE53
:101470001020FFF70FFEC520FFF701FE3E20FFF70B
:1014800009FE2820FFF706FEC720FFF7F8FD86209B
:10149000FFF700FE3620FFF7F2FD2820FFF7FAFDE8
:1014A0003A20FFF7ECFD5520FFF7F4FDB120FFF7E0
:1014B000E6FD0020FFF7EEFD1820FFF7EBFDB6205C
:1014C000FFF7DDFD0820FFF7E5FD8220FFF7E2FDD5
:1014D0002720FFF7DFFDF220FFF7D1FD0020FFF707
:1014E000D9FD2620FFF7CBFD0120FFF7D3FDE0203B
:1014F000FFF7C5FD0F20FFF7CDFD3120FFF7CAFD37
:101500002B20FFF7C7FD0C20FFF7C4FD0E20FFF7CF
:10151000C1FD0820FFF7BEFD4E20FFF7BBFDF12007
:10152000FFF7B8FD3720FFF7B5FD0720FFF7B2FD45
:101530001020FFF7AFFD0320FFF7ACFD0E20FFF7F3
:10154000A9FD0920FFF7A6FD0020FFF7A3FDE1207C
:10155000FFF795FD0020FFF79DFD0E20FFF79AFD98
:101560001420FFF797FD0320FFF794FD1120FFF7EC
:1015700091FD0720FFF78EFD3120FFF78BFDC12085
:10158000FFF788FD4820FFF785FD0820FFF782FD63
:101590000F20FFF77FFD0C20FFF77CFD3120FFF7C8
:1015A00079FD3620FFF776FD0F20FFF773FD112040
:1015B000FFF765FD6420FFF74FFE2920FFF75FFD71
:1015C0002C20FFF75CFD10BD10B5FFF75BFEFFF7A9
:1015D00093FE7820FFF740FE4FF480711B4800F027
:1015E000A7FF7820FFF738FE4FF48071174800F00E
:1015F0009DFFE620FFF730FE4FF48051144800F0C5
:1016000097FFFFF7D6FE10BD2DE9F04104462712E3
:1016100004F0FF08FD234FF4A07200210846FFF7F5
:1016200044FD00250DE0002607E03846FFF732FDB7
:101630004046FFF72FFD701C86B2FE2EF5DB681CBE
:1016400085B2B5F5A07FEEDDBDE8F0810000024077
:101650000004024010B58AB004460121022001F0C6
:1016600062F90121084601F05EF90121022001F032
:1016700027F93220059001208DF8180000208DF800
:101680001A0003208DF8190000208DF81B0005A911
:10169000F74800F0CFFE1021F54800F047FFF5486D
:1016A00084422FD10121042001F00AF94FF4707017
:1016B000059003208DF8190002208DF818000020F5
:1016C0008DF81A0001208DF81B0005A9EA4800F0EA
:1016D000B1FE02220621E84800F037FF022207216E
:1016E000E54800F032FF02220821E34800F02DFF18
:1016F00002220921E04800F028FF0221DC4800F026
:1017000015FF44E0B4F1804F41D10121032001F0E5
:10171000D7F84FF40040059003208DF819000220FF
:101720008DF8180000208DF81A0001208DF81B009C
:1017300005A9D24800F07EFE40F60840059003203F
:101740008DF8190002208DF8180000208DF81A007D
:1017500001208DF81B0005A9C54800F06BFE012291
:101760000F21C64800F0F1FE01220321C04800F01D
:10177000ECFE01220A21BE4800F0E7FE01220B2107
:10178000BB4800F0E2FE2021B94800F0D1FE002164
:10179000204601F009FB07A801F0B1FA0020ADF8DE
:1017A0001C004FF47A6008900020ADF82400ADF8DA
:1017B0001E0007A9204601F06EFA6020ADF8000077
:1017C0000120ADF8020000200290ADF80C0069463F
:1017D000204601F0F5FA0821204601F07EFC0120A8
:1017E000ADF80200002002906946204601F021FB7E
:1017F0000821204601F07AFC0120ADF8020000200B
:1018000002906946204601F061FB0821204601F064
:101810007AFC0120ADF802000020029069462046C3
:1018200001F0BAFB0821204601F076FC0121204698
:1018300001F09CFA0121204601F0B6FA0AB010BD71
:1018400010B58AB004460121042001F06CF8012192
:10185000082001F068F80121022001F031F832205F
:10186000059001208DF8180000208DF81A00032043
:101870008DF8190000208DF81B0005A97C4800F0A8
:10188000D9FD10217A4800F051FE7D4884422FD1C5
:101890000121022001F014F84FF47070059003202C
:1018A0008DF8190002208DF8180000208DF81A001C
:1018B00001208DF81B0005A96D4800F0BBFD022238
:1018C00006216B4800F041FE02220721684800F023
:1018D0003CFE02220821664800F037FE0222092160
:1018E000634800F032FE0221614800F01FFE30E044
:1018F000644884422DD10121084600F0E1FF0F2009
:10190000059003208DF8190002208DF818000020A2
:101910008DF81A0001208DF81B0005A9574800F02A
:1019200089FD02220021554800F00FFE022201210C
:10193000524800F00AFE02221146504800F005FE0F
:10194000022203214D4800F000FE2021484800F00B
:10195000EFFD0021204601F027FA07A801F0CFF99A
:101960002920ADF81C0042F2107008900020ADF85C
:101970002400ADF81E0007A9204601F08CF9602074
:10198000ADF800000120ADF802004FF47A7002902B
:101990000020ADF80C006946204601F011FA012044
:1019A000ADF8020040F6B83002906946204601F0DA
:1019B00040FA0821204601F099FB0120ADF8020011
:1019C00041F2883002906946204601F07FFA0821F2
:1019D000204601F098FB0120ADF802004FF47A6038
:1019E00002906946204601F0D7FA0821204601F00E
:1019F00093FB0121204601F0B9F90121204601F0B5
:101A0000D3F90AB010BDB1F57A6F01DD4FF47A61F8
:101A100011F57A6F00DA1C49012806D0022815D08A
:101A2000032833D0042853D141E0002901DA4A4287
:101A300000E000220F4B34331A60002901DA002243
:101A400000E00A460B4B38331A6041E0002901DD03
:101A5000002200E04A42074B3C331A60002901DDB6
:101A60000A4600E00022034B40331A6030E00000D9
:101A70000004024000040040000802400000024050
:101A800000080040000C004060F0FFFF002901DA70
:101A90004A4200E000224FF080435A63002901DAF5
:101AA000002200E00A464FF080439A6310E00029CC
:101AB00001DD002200E04A424FF08043DA63002952
:101AC00001DD0A4600E000224FF080431A6400BFA7
:101AD00000BF704710B50346002900DA10BD72B987
:101AE00016244C4300EE904AB8EEE00ADFED190AE6
:101AF00070EE200AFCEEE00A10EE900A00E00846C4
:101B0000092B24D2DFE803F02305080C1014171B5F
:101B10001F00114C20601AE00F4C241D206016E0BD
:101B20000D4C0834206012E00B4C0C3420600EE0A9
:101B30000A4C20600BE0094C241D206007E0074C94
:101B40000834206003E0054C0C34206000BF00BF67
:101B500000BFC3E700007A4434080040340C004062
:101B600008B509208DF8000002208DF80100012041
:101B70008DF802008DF80300684606F0D4FA0A20BA
:101B80008DF8000002208DF8010000208DF8020081
:101B900001208DF80300684606F0C5FA06208DF88E
:101BA000000003208DF8010000208DF802000120C4
:101BB0008DF80300684606F0B6FA07208DF800009D
:101BC00003208DF8010000208DF8020001208DF81F
:101BD0000300684606F0A7FA08208DF800000320ED
:101BE0008DF8010000208DF8020001208DF803001F
:101BF000684606F098FA08BD1CB50321084606F0B1
:101C000007FD0820009000208DF8040008208DF8C2
:101C1000050001208DF80600684600F01DFB042138
:101C2000032006F0F5FC1020009000208DF8040041
:101C300008208DF8050001208DF80600684600F0A8
:101C40000BFB0021032006F0E3FC012000900020A4
:101C50008DF8040008208DF8050001208DF806009D
:101C6000684600F0F9FA0121032006F0D1FC0220B9
:101C7000009000208DF8040010208DF80500012050
:101C80008DF80600684600F0E7FA0221032006F00E
:101C9000BFFC0420009000208DF8040010208DF877
:101CA000050001208DF80600684600F0D5FA1CBD3D
:101CB00000B585B00121082000F002FE012140207E
:101CC00000F031FE0121880300F03EFE1F2003904A
:101CD00000208DF810008DF8120003208DF81100FF
:101CE00001208DF8130003A94B4800F0A3FB00214D
:101CF0004A4801F059F8684601F001F842F21070C4
:101D0000ADF800004FF6FF7001904FF40070ADF891
:101D100008000020ADF802006946404800F0BBFF13
:101D200001213E4801F040F8FFF766FFFFF718FF7A
:101D300005B000BD10B5082000F0F4FA98B138489D
:101D4000407980B901203649487108460079C97840
:101D500001EB810100EB410000EB4000314951F8FB
:101D600030002F498860102000F0DCFAC8B1002054
:101D70002B4948710120887000BF80F3138800BF91
:101D800000BFBFF34F8F2848006800F4E060274988
:101D90000843001D24490860BFF34F8F00BF00BFF8
:101DA000FEE7012000F0BEFA98B11D48407980B9E5
:101DB00001201B49487108460079C97801EB81016F
:101DC00000EB410000EB4000164951F83000144987
:101DD000886010BD0EB51648007801280BD1154853
:101DE0000078401C134908700A226946114800789F
:101DF00005F0F8FF0FE00E4890F90000401C50B9C4
:101E00000D480078401C0C4908700A2269460A48AF
:101E1000007805F0E7FF0EBD000C024000180040FE
:101E2000942E0020000000200CED00E00000FA05D8
:101E30007C0200207E0200207F020020012802D0C8
:101E4000022802D100E001E000E000BF00BF7047BF
:101E5000401C7047704710B55548807830B100205D
:101E60005349887042F2FF00FFF7CEFB51A20521D3
:101E70006420FFF7C3F9002423E04D48C07800EB4D
:101E8000800004EB400000EB40004E4901EBC00035
:101E9000007900B917E04648C07800EB800004EBF9
:101EA000400000EB4000474B03EBC000021D04EB79
:101EB0008400800000F128013220FFF79FF9601CA8
:101EC000C4B20A2CD9DB00BF3948407868B1384821
:101ED000C07828B93CA2DC210846FFF78FF904E05E
:101EE0003CA2DC210846FFF789F900240AE004EB54
:101EF0008400800000F1280139A2B420FFF77EF9A8
:101F0000601CC4B20A2CF2DB2948007900EB800087
:101F1000800000F1280133A2B420FFF76FF910BD53
:101F200070B524A205216420FFF768F91925002463
:101F30000DE004EB4400234901EBC000007900B937
:101F400007E01B480078401C19490870641CAC422B
:101F5000EFDB00BF164800780A2803DD0120144992
:101F6000487002E0002012494870FFF774FF70BD0E
:101F700010B542F2FF00FFF747FB0D4800790C490E
:101F8000C97801EB810100EB410000EB40000D49F5
:101F900001EBC000021D32216420FFF72FF912A2CD
:101FA00050216420FFF72AF910BD704700BFFEE7FB
:101FB000942E002046756E6374696F6E20536C65B5
:101FC00063740000000000204E4558542D2D3E50F3
:101FD00061676500506167653C2D2D4E4558540082
:101FE000202000003E3E000052756E696E672E2E66
:101FF0002E2E2E2E000000000CB500200190009027
:102000008248006840F480308049086000BF7F4803
:10201000006800F4003000900198401C0190009886
:1020200018B90198B0F5A06FF1D17848006800F4B4
:10203000003010B10120009001E0002000900098D5
:10204000012846D171484030006840F080506F4907
:10205000403108606E48006840F480406C49086078
:102060006A48083000686949083108600846006815
:1020700040F4004008600846006840F4A050086042
:102080006448091F0860081F006840F08070091F3D
:10209000086000BF5D48006800F000700028F9D0BB
:1020A00040F205605C49086058480830006820F03C
:1020B00003005649083108600846006840F00200F5
:1020C000086000BF51480830006800F00C00082884
:1020D000F8D14E480830006820F400004B49083120
:1020E00008604E484949843108604848006840F01B
:1020F00080604649086000BF4448006800F0006006
:102100000028F9D00CBD10B54548006840F47000B7
:10211000434908603D48006840F001003B490860C1
:1021200000203A4908310860384800683D490840B5
:10213000364908603C48091D0860081F006820F403
:102140008020091F0860002030490C310860FFF72B
:1021500053FF4FF0006032498039086010BD70B500
:1021600000200022022300240221284D08352D687A
:1021700005F00C0020B1042806D0082834D107E06F
:102180002A4D2B4E356033E02A4D294E35602FE025
:102190001E4D2D1D2D68C5F380541C4D2D1D2D6821
:1021A00005F03F0154B1234DB5FBF1F5174E361D37
:1021B0003668C6F3881605FB06F209E01B4DB5FB31
:1021C000F1F5124E361D3668C6F3881605FB06F289
:1021D0000E4D2D1D2D68C5F301456D1C6B00B2FB26
:1021E000F3F5134E356003E0104D114E356000BF1E
:1021F00000BF064D08352D68C5F303150E4E705D02
:102200000B4D2D68C5400A4E356070BD0038024048
:102210000070004008544007003C024080400030FD
:1022200088ED00E0FFFFF6FE103000240024F400EB
:102230008002002000127A0084020020002044491D
:102240000860091D0860091D0860091D08604148F3
:102250003F4914310860704700213D498279002AC6
:102260003AD00A46126803689A430B461A600A1D60
:10227000126803689A430B1D1A60027911440A68B8
:1022800003681A430A60324A0832126803689A43A4
:102290002F4B08331A601A1D126803689A432C4B9F
:1022A0000C331A604279102A0ED11A1F1268036883
:1022B0001A43274B08331A601A1D126803681A4321
:1022C000234B0C331A600DE02149427911440A680E
:1022D00003681A430A6005E0027911440A6803683A
:1022E0009A430A6070470021016001710C2141711D
:1022F0000021817170471649103109680143144A61
:1023000010321160704701460020114A14321268E1
:102310000A400AB1012000E0002070470C49143146
:1023200008607047014600200022094B1B6803EA41
:102330000102074B14331B680B4013B10AB1012093
:1023400000E0002070470249143108607047000027
:10235000003C0140FFFF7F0010B504468C488442DA
:1023600008D10121084600F000FB0021012000F007
:10237000FCFA5EE08748844208D10121022000F087
:10238000F4FA0021022000F0F0FA52E08248844280
:1023900008D10121042000F0E8FA0021042000F017
:1023A000E4FA46E07D48844208D10121082000F08B
:1023B000DCFA0021082000F0D8FA3AE0784884429C
:1023C00008D10121102000F0D0FA0021102000F0E7
:1023D000CCFA2EE07348844208D10121202000F07D
:1023E000C4FA0021202000F0C0FA22E06E488442A6
:1023F00008D10121402000F0B8FA0021402000F06F
:10240000B4FA16E06948844208D10121802000F026
:10241000ACFA0021802000F0A8FA0AE06448844267
:1024200007D10121801500F0A0FA0021A01500F0CD
:102430009CFA10BDF0B50A4600210023002400BF1D
:102440003DE0012505FA01F3156805EA03049C4205
:1024500034D105684F000326BE40B54305601579A9
:102460004E00B5400668354305601579012D02D050
:102470001579022D16D185684F000326BE40B5435D
:10248000856055794E00B54086683543856045685E
:1024900001268E40B5434560456896798E40B6B2B8
:1024A00035434560C5684F000326BE40B543C5604F
:1024B000D5794E00B540C6683543C560491C102922
:1024C000BFD3F0BD4FF6FF71016000210171417172
:1024D0008171C171704708B54FF480320092009A43
:1024E0000A430092009AC261C161009AC261C26946
:1024F0000092C269009208BD0246002013690B4099
:102500000BB1012000E0002070470146086980B24D
:1025100070470246002053690B400BB1012000E0D8
:10252000002070470146486980B2704701837047B8
:10253000418370470AB1018300E0418370474161E4
:10254000704742694A4042617047F0B50023002459
:102550004D07ED0E02FA05F3CE1000F1200555F8F7
:1025600026504E07F70E0F26BE40B543CF1000F1A0
:10257000200646F82750CE1000F1200555F82650C9
:1025800045EA0304CE1000F1200545F82640F0BDD1
:10259000000002400004024000080240000C02401B
:1025A000001002400014024000180240001C0240CB
:1025B00000200240FA48006840F00100F849086035
:1025C0000020F74908310860F5480068F5490840DF
:1025D000F3490860F448091D0860081F006820F4EA
:1025E0008020091F08600020ED490C310860704709
:1025F0000021EB4A921C117011460870704710B50B
:1026000001460022002300204A11012A02D1E44C95
:10261000236808E0022A03D1E14C7034236802E009
:10262000DF4C7434236801F01F02012494401C40E5
:102630000CB1012000E0002010BD38B50020009052
:102640000024002500BF3120FFF7D9FF0546009880
:10265000401C00900098B0F5A06F01D0002DF2D082
:102660003120FFF7CCFF08B1012400E00024204610
:1026700038BD01460020CA4A106820F0F80040EA40
:10268000C10010607047C949086070470021C44A02
:10269000703211701170012802D004280AD104E0B0
:1026A0000121BF4A7032117005E00521BC4A703229
:1026B000117000E000BF00BF7047BD49086070475F
:1026C00070B5049C41EA82150126C6EB530645EA23
:1026D0000645054345EA0465B14E361D356070BDBB
:1026E000B24908667047820142EA0172AC4B8433FA
:1026F0001A607047AD4988667047AC49C864704736
:1027000002460020A64B0833186820F0EC6042EA2D
:1027100001031843A24B083318607047024600209B
:102720009F4B0833186820F0784042EA01031843B1
:102730009B4B08331860704701460020984A0832C6
:10274000106820F003000843106070479448083078
:10275000006800F00C00704701460020904A0832E3
:10276000106820F0F0000843106070470146002018
:102770008B4A0832106820F4E0500843106070471C
:1027800001460020864A0832106820F4604040EA82
:10279000C10010607047F0B500210022002402251E
:1027A000002602237E4F08373F6807F00C0121B155
:1027B000042905D0082937D105E07E4F076036E0AF
:1027C0007D4F076033E0764F3F1D3F68C7F380566B
:1027D000734F3F1D3F6807F03F036EB1764FB7FB65
:1027E000F3F7DFF8BCC10CF1040CDCF800C0CCF34B
:1027F000881C07FB0CF40CE06E4FB7FBF3F7DFF817
:10280000A0C10CF1040CDCF800C0CCF3881C07FB61
:102810000CF4634F3F1D3F68C7F301477F1C7D00E9
:10282000B4FBF5F7076002E0624F076000BF00BF2E
:102830005B4F08373F6807F0F00109095F4F7A5C8A
:102840000768D7404760564F08373F6807F4E051A4
:10285000890A5A4F7A5C4768D7408760504F0837DB
:102860003F6807F46041490B544F7A5C4768D74092
:10287000C760F0BD002100F44072B2F5407F0AD17C
:10288000474A0832116821F4F8114D4A02401143B9
:10289000434A08321160424A70321268C0F30B0397
:1028A0001A433F4B70331A607047414944390860FE
:1028B00070473F4940390860704742490860704797
:1028C00039B1374A303212680243354B30331A601F
:1028D00006E0334A303212688243314B30331A609B
:1028E000704739B12E4A3432126802432C4B3433CC
:1028F0001A6006E02A4A343212688243284B343385
:102900001A60704739B1264A383212680243244BA4
:1029100038331A6006E0224A383212688243204B6C
:1029200038331A60704739B11D4A40321268024389
:102930001B4B40331A6006E0194A4032126882434A
:10294000174B40331A60704739B1154A4432126848
:102950000243134B44331A6006E0114A44321268B2
:1029600082430F4B44331A60704739B10C4A10321E
:10297000126802430A4B10331A6006E0084A10320C
:1029800012688243064B10331A607047E1B1044A63
:10299000143212680243024B14331A6019E000002B
:1029A00000380240FFFFF6FE1030002400004742CE
:1029B000800E47420024F40000127A0094020020A6
:1029C000FFFCFF0F5C0147425B4A126882435A4B8F
:1029D0001A60704739B1584A121D12680243564BAB
:1029E0001B1D1A6006E0544A121D12688243524BA6
:1029F0001B1D1A60704739B14F4A0C3212680243EE
:102A00004D4B0C331A6006E04B4A0C32126882437D
:102A1000494B0C331A60704739B1474A103212687B
:102A20000243454B10331A6006E0434A10321268E5
:102A30008243414B10331A60704739B13E4A3C32F1
:102A4000126802433C4B3C331A6006E03A4A3C327F
:102A500012688243384B3C331A60704739B1364AAA
:102A6000403212680243344B40331A6006E0324A67
:102A7000403212688243304B40331A60704739B19C
:102A80002D4A4432126802432B4B44331A6006E04D
:102A9000294A443212688243274B44331A607047F4
:102AA00039B1254A4C3212680243234B4C331A6029
:102AB00006E0214A4C32126882431F4B4C331A60A5
:102AC000704739B11C4A5032126802431A4B5033D6
:102AD0001A6006E0184A503212688243164B50338F
:102AE0001A60704739B1144AD21F12780243124B50
:102AF000DB1F1A7006E0104AD21F127882430E4B79
:102B0000DB1F1A7070470C486030006840F080701E
:102B1000094960310860704701460020064A083ABA
:102B200012680A400AB1012000E000207047024903
:102B3000891F0870704700001438024010B5044621
:102B4000FE48844208D101210846FFF765FF0021B5
:102B50000120FFF761FF9DE0B4F1804F08D1012112
:102B60000846FFF748FF00210120FFF744FF91E0EE
:102B7000F348844208D101210220FFF73CFF0021E5
:102B80000220FFF738FF85E0EE48844208D101219A
:102B90000420FFF730FF00210420FFF72CFF79E02D
:102BA000E948844208D101210820FFF724FF0021D1
:102BB0000820FFF720FF6DE0E448844208D101219E
:102BC0001020FFF718FF00211020FFF714FF61E02D
:102BD000DF48844208D101212020FFF70CFF0021AB
:102BE0002020FFF708FF55E0DA48844208D1012190
:102BF0000220FFF711FF00210220FFF70DFF49E03F
:102C0000D548844209D101210804FFF705FF0021BE
:102C10004FF48030FFF700FF3CE0D048844209D1F8
:102C200001214804FFF7F8FE00214FF40030FFF7C0
:102C3000F3FE2FE0CA48844209D101218804FFF73E
:102C4000EBFE00214FF48020FFF7E6FE22E0C548AE
:102C5000844208D101214020FFF7CDFE0021402011
:102C6000FFF7C9FE16E0C048844208D10121802048
:102C7000FFF7C1FE00218020FFF7BDFE0AE0BB4840
:102C8000844207D101218015FFF7B5FE0021A01570
:102C9000FFF7B1FE10BD00220288A84B98420ED06B
:102CA000AC4B98420BD0B0F1804F08D0A44B984267
:102CB00005D0A44B984202D0A34B984204D14FF6C2
:102CC0008F731A404B881A43A04B984207D0A04BF1
:102CD000984204D04FF6FF431A400B891A430280F2
:102CE0004B68C3620B880385944B984202D0994B82
:102CF000984201D18B7A03860123838270474FF07B
:102D0000FF31416000210180018141808172704763
:102D10000185828270470A46002101884FF68F7331
:102D2000194011430180704741627047C16270478A
:102D30000146486A70470146088D704721B10288F4
:102D400042F00202028004E002884FF6FD731A404E
:102D50000280704721B1028842F00402028004E040
:102D600002884FF6FB731A400280704721B1028837
:102D700042F08002028004E002884FF67F731A401E
:102D80000280704702884FF6F7731A40028002886B
:102D90000A430280704702884FF6FF431A400280C0
:102DA00002880A430280704721B1028842F0010282
:102DB000028004E002884FF6FE731A4002807047DA
:102DC00070B5002400220023058C4FF6FE763540B6
:102DD0000584028C8388048B4FF68F752C40B51EBA
:102DE0002C400D882C43751E2A408D892A434D881E
:102DF0002A43524DA84202D0564DA84213D14FF655
:102E0000F7752A40CD892A434FF6FB752A408D88F5
:102E10002A434FF6FF652B404FF6FF552B400D8A96
:102E20002B434D8A2B43838004838D684563028442
:102E300070BD70B5002400220023058C4FF6EF769C
:102E400035400584028C8388048B48F6FF752C403E
:102E50004FF6FF452C400D884FF6FF7606EA052514
:102E60002C434FF6DF752A408D8906EA05152A4363
:102E70004D8806EA05152A43304DA84202D0354D4B
:102E8000A8421DD14FF67F752A40CD894FF6FF76B7
:102E900006EA05152A434FF6BF752A408D8806EAD3
:102EA00005152A434FF6FF352B404FF2FF752B4097
:102EB0000D8A06EA85052B434D8A06EA85052B43D4
:102EC000838004838D688563028470BD70B500249F
:102ED00000220023058C4FF6FF6635400584028CE6
:102EE0008388848B4FF68F752C404FF6FC752C40F1
:102EF0000D882C434FF6FF552A408D894FF6FF76FB
:102F000006EA05252A434D8806EA05252A430B4D86
:102F1000A84202D00F4DA84238D14FF2FF752A4087
:102F2000CD894FF6FF7606EA05252A434FF6FF3591
:102F30002A408D8806EA05252A4319E00000014051
:102F40000004004000080040000C00400010004059
:102F500000140040000401400040014000440140D2
:102F60000048014000180040001C004000200040C4
:102F70004EF6FF752B404DF6FF752B400D8A06EA85
:102F800005152B434D8A06EA05152B438380848360
:102F90008D68C563028470BD70B5002200230024D3
:102FA000058C4EF6FF7635400584038C8488828B31
:102FB00048F6FF752A404FF6FF452A400D884FF628
:102FC000FF7606EA05252A434DF6FF752B408D89CD
:102FD00006EA05352B434D8806EA05352B43FE4DA1
:102FE000A84202D0FD4DA84208D14BF6FF752C40F7
:102FF0000D8A4FF6FF7606EA85152C43848082837E
:103000008D680564038470BD00210180418081804A
:1030100081608181C18101824182704770B5034620
:10302000002000241846183001258D40ACB21D8CBC
:10303000A5431D8409B108290AD100EB6100056888
:103040004FF68F76354005600568154305600FE043
:103050000D1FC5F34E052844056848F6FF76354038
:10306000056005684FF6FF7606EA022635430560DF
:1030700070BD4163704781637047C16370470164ED
:1030800070470A460021018B4FF68F731940114398
:10309000018370470A460021018B48F6FF731940EF
:1030A0004FF6FF7303EA02231943018370470A4670
:1030B0000021818B4FF68F73194011438183704734
:1030C0000A460021818B48F6FF7319404FF6FF73C3
:1030D00003EA02231943818370470A460021018BCA
:1030E0004FF6F77319401143018370470A460021D8
:1030F000018B4FF2FF7319404FF6FF7303EA02236F
:103100001943018370470A460021818B4FF6F773FC
:1031100019401143818370470A460021818B4FF289
:10312000FF7319404FF6FF7303EA022319438183AB
:1031300070470A460021018B4FF6FB73194011437B
:10314000018370470A460021018B4FF6FF33194077
:103150004FF6FF7303EA02231943018370470A46BF
:103160000021818B4FF6FB73194011438183704717
:103170000A460021818B4FF6FF3319404FF6FF734B
:1031800003EA02231943818370470A460021018B19
:103190004FF67F7319401143018370470A4600219F
:1031A000018BC1F30E014FF6FF7303EA02231943AB
:1031B000018370470A460021818B4FF67F731940C7
:1031C0001143818370470A460021818BC1F30E01B0
:1031D0004FF6FF7303EA02231943818370470A46BF
:1031E0000021018C4FF6FD73194011430184704793
:1031F0000A460021018C4FF6F773194011430184F0
:1032000070470A460021018C4FF6DF7319404FF6D4
:10321000FF7303EA02131943018470470A46002131
:10322000018C4FF67F7319404FF6FF7303EA0213C8
:103230001943018470470A460021018C4FF6FF5361
:1032400019404FF6FF7303EA0223194301847047C4
:103250000A460021018C4FF2FF7319404FF6FF73AD
:1032600003EA02231943018470470A460021018CB6
:103270004DF6FF7319404FF6FF7303EA023319430B
:103280000184704730B5002301248C40A3B2048C24
:103290009C430484048C02FA01F5ADB22C430484EF
:1032A00030BD30B5002304248C40A3B2048C9C4371
:1032B0000484048C02FA01F5ADB22C43048430BDC1
:1032C000828B4FF2FF331A408283828B4FF6FF735B
:1032D00003EA01231A4382837047F0B50C46154672
:1032E000002100220026078C4EF6FF7C07EA0C071F
:1032F0000784818B028C4FF6FF7707EA043640F68D
:10330000FF4739404FF6FF7707EA052739434FF665
:10331000FF7707EA0337394345F6FF773A4046F42B
:1033200080573A4381830284F0BD828B4FF6F3735A
:103330001A408283828B0A4382837047F0B50C4621
:103340001546002100220026078C4FF6FF6C07EA85
:103350000C070784818B028C4FF6FF7707EA04265F
:103360004FF60C7739404FF6FF7707EA03172F43E4
:1033700039434FF2FF573A4046F480773A4381830E
:103380000284F0BD028B4FF2FF331A400283028B9E
:103390004FF6FF7303EA01231A4302837047F0B527
:1033A0000C461546002100220026078C4FF6EF7CC4
:1033B00007EA0C070784018B028C4FF6FF7707EAB8
:1033C000041640F6FF4739404FF6FF7707EA033708
:1033D00039434FF6FF7703E000000140000401404D
:1033E00007EA052739434FF65F773A4046F0100762
:1033F0003A4301830284F0BD028B4FF6F3731A4007
:103400000283028B0A4302837047F0B50C461546CF
:1034100000210022068C4FF6FE773E400684018B89
:10342000028C4FF60C7631407E1C06EA03162E43C2
:1034300031434FF6F576324044F0010632430183C2
:103440000284F0BD70B505460C46208850B923892A
:10345000A28861882846FFF7D8FFE1882846FFF751
:10346000CBFF25E0208804280AD12389A28861881F
:103470002846FFF794FFE1882846FFF783FF17E00F
:10348000208808280AD12389A28861882846FFF766
:1034900055FFE1882846FFF748FF09E02389A28805
:1034A00061882846FFF719FFE1882846FFF708FFE3
:1034B00070BD002101804180012181800021C180F7
:1034C000018170472DE9F04105460C460026012791
:1034D000608808B9022600E00026A088012801D1F2
:1034E000022700E001272088A0B92389A2886188EB
:1034F0002846FFF78AFFE1882846FFF77DFF2389EA
:103500003A4631462846FFF74AFFE1882846FFF74A
:1035100039FF13E02389A28861882846FFF73FFF1F
:10352000E1882846FFF72EFF23893A463146284690
:10353000FFF76BFFE1882846FFF75EFFBDE8F081EB
:103540000146486B70470146886B70470146C86B5F
:1035500070470146086C70470A884B881A438B886D
:103560001A43CB881A430B891A434B891A438B8918
:103570001A43A0F8442070470021018041808180D7
:10358000C180018141818181704731B1B0F844200F
:1035900042F40042A0F8442005E0B0F84420C2F311
:1035A0000E02A0F84420704721B1828842F0040244
:1035B000828004E082884FF6FB731A408280704755
:1035C00021B1828842F00102828004E082884FF6B5
:1035D000FE731A40828070471AB183890B4383813E
:1035E00002E083898B438381704781827047024662
:1035F0000020138A0B400BB1012000E0002070472F
:10360000CA430282704730B50246002000230024DE
:10361000158A05EA0103958905EA010413B10CB185
:10362000012000E0002030BDCA430282704741EA19
:103630000203A0F8483070471AB183890B43838195
:1036400002E083898B438381704721B1828842F0F5
:103650000802828004E082884FF6F7731A40828065
:10366000704701894FF6F8721140018170470A4690
:10367000002101894FF68F73194011430181704772
:1036800030B504460D4629462046FFF7F0FF208955
:1036900040F00700208130BD2DE9F04104460D4681
:1036A00016461F46602D06D13B4601223146204674
:1036B000FFF775FE05E03B46012231462046FFF745
:1036C000A4FE29462046FFF7D2FF208940F00700DC
:1036D0002081BDE8F08130B50C4600210189C9B2D6
:1036E0004FF6FF7505EA032515432543294301815C
:1036F00030BD2DE9F04105460E4617469846002498
:1037000043463A4631462846FFF7E5FF2C894FF6F7
:10371000F870044044F007044FF68F70044044F002
:1037200070042C81BDE8F081F0B504460D461646C4
:103730001F463B46324629462046FFF7CCFF2089EC
:1037400040F480402081F0BD82884FF68F731A408C
:10375000828082880A438280704702894FF6F8731C
:103760001A40028102890A430281704702894FF69A
:103770007F731A40028102890A4302817047F0B5C3
:103780000C4615461E460021002200230189028BAB
:10379000038C4FF6F877394021434FF6FC473A4007
:1037A00040F201173A434FF6DD773B404FF6FF7783
:1037B00007EA06172F433B43018102830384F0BDD0
:1037C00021B1828842F08002828004E082884FF634
:1037D0007F731A4082807047A0F850107047000035
:1037E00010B50446F748844208D101211020FFF7A4
:1037F00013F900211020FFF70FF93EE0F248844250
:1038000009D101214804FFF7F6F800214FF40030F8
:10381000FFF7F1F831E0ED48844209D10121880435
:10382000FFF7E9F800214FF48020FFF7E4F824E0E7
:10383000E748844209D10121C804FFF7DCF80021E0
:103840004FF40020FFF7D7F817E0E248844209D18F
:1038500001210805FFF7CFF800214FF48010FFF792
:10386000CAF80AE0DC48844207D101212020FFF792
:10387000D3F800212020FFF7CFF810BD2DE9FF4736
:1038800005460E460024A14600BFA046B08900B1FF
:1038900000BF2C8A24F44054F08804432C82AC8965
:1038A00041F20C608443B088318908437189084330
:1038B0000443AC81AC8A24F44074B0890443AC82E4
:1038C0006846FEF768FFBF48854202D0C24885427D
:1038D00002D1DDF80C9001E0DDF80890A88900F431
:1038E000004040B109EBC90000EB09103168490004
:1038F000B0FBF1F707E009EBC90000EB09103168F4
:103900008900B0FBF1F76420B7FBF0F00401200957
:10391000642101FB1078A88900F4004040B13220F6
:1039200000EBC800B0FBF1F000F00700044308E032
:10393000322000EB08106421B0FBF1F000F00F0022
:1039400004432C81BDE8FF874FF41651016000212C
:103950008180C18001810C214181002181817047DA
:1039600010B502460020108A20F470600B884C8845
:1039700023438C882343CC8823431843108210BDF3
:103980000021018041808180C180704721B18289FE
:1039900042F40052828104E082894DF6FF731A409E
:1039A00082817047028B02F47F420283028B0A43BA
:1039B0000283704721B1828942F40042828103E090
:1039C0008289C2F30E028281704721B1828A42F459
:1039D0000062828204E0828A4FF2FF731A40828280
:1039E0007047C1F308028280704701468888C0F39F
:1039F00008007047028A4FF6F0731A400282028A6A
:103A00000A430282704721B1828942F00202828118
:103A100004E082894FF6FD731A40828170478289E3
:103A20004FF2FF731A40828182890A438281704774
:103A3000028A4FF6DF731A400282028A0A43028228
:103A4000704721B1028A42F48042028204E0028A75
:103A50004BF6FF731A4002827047818941F00101E1
:103A60008181704721B1828A42F00802828204E09B
:103A7000828A4FF6F7731A4082827047028BD2B265
:103A80000283028B42EA01220283704721B1828ABB
:103A900042F02002828204E0828A4FF6DF731A40ED
:103AA0008282704721B1828A42F01002828204E051
:103AB000828A4FF6EF731A4082827047828A4FF6ED
:103AC000FB731A408282828A0A438282704721B144
:103AD000828A42F00202828204E0828A4FF6FD73FB
:103AE0001A40828270471AB1838A0B43838202E0B4
:103AF000838A8B4383827047F0B5034600240026F7
:103B00000025002040F66A17B94200D100BF1846D0
:103B1000C1F3421401F01F06012707FA06F5012C34
:103B200001D10C3004E0022C01D1103000E014303F
:103B30001AB107682F43076002E00768AF430760C8
:103B4000F0BD02460020B1F5007F00D100BF138810
:103B50000B400BB1012000E00020704701F400721F
:103B6000B2F5007F00D100BFCA430280704770B534
:103B70000246002400230025002040F66A16B142C8
:103B800000D100BFC1F3421501F01F03012606FA60
:103B900003F3012D02D19689334006E0022D02D1B4
:103BA000168A334001E0968A33400C12012606FA49
:103BB00004F41688344013B10CB1012000E0002059
:103BC00070BD00000010014000440040004800406B
:103BD000004C0040005000400014014010B500228D
:103BE000002340F66A14A14200D100BF0A1201244A
:103BF0009440A3B2DC43048010BD000010B5002443
:103C000000BF00BF04F040FD044600BF00BF10210C
:103C1000A24800F0B4F900BF00BF204604F038FD10
:103C200000BF00BF10BD10B5FFF7E8FF10BD10B515
:103C300000209B490860FDF7BEF910BD10B5FFF7E5
:103C4000F6FFFFF7F0FF10BD00BFFEE770B50546B9
:103C50000C46002614B900BFFFF7F6FF15B90A207D
:103C6000208070BD00BF00BF04F00EFD064600BFFF
:103C700000BF10228949284604F034FD00BF00BF70
:103C8000304604F005FD00BF00BF0020208000BFCB
:103C9000E7E72DE9F04105460C46002714B900BFBF
:103CA000FFF7D2FF1DB90A202080BDE8F081102166
:103CB000284604F0FFFC0646102E15D200BF00BFB8
:103CC00004F0E2FC074600BF00BF102229467348FB
:103CD00004F008FD00BF00BF384604F0D9FC00BF67
:103CE00000BF0020208002E04FF47A70208000BFE7
:103CF000DBE710B5FDF775F90446204610BD7047A7
:103D000000B5014611B900BFFFF79EFF644A106875
:103D100008B1002201E04FF4FA620A8000BD604958
:103D20000860704770B50546284604F0B8FC0446A4
:103D3000183C204670BD70B50546284604F0AFFC1F
:103D40000446103C204670BD70B50546284604F078
:103D5000A6FC044600BF204670BD30B502460B46A7
:103D60004FF0FF350024AD1A9C4127D24FF0FF35AC
:103D70002C0CAD1A9C410FD24FF0FF352C0AAD1A16
:103D80009C4103D2190E474C605C45E0190C454C30
:103D9000645C04F108003FE04FF0FF35FF24AD1AEA
:103DA0009C4105D2190A3F4C645C04F1100033E0D9
:103DB00019463C4C645C04F118002DE04FF6FF7589
:103DC0000024AD1A9C4115D26FF07F450024AD1A36
:103DD0009C4107D2140E44EA0321324C645C04F186
:103DE000200019E0140C44EA03412E4C645C04F1F9
:103DF000280011E0FF250024AD1A9C4107D2140AC7
:103E000044EA0361274C645C04F1300004E011468D
:103E1000244C645C04F1380030BD70B504460CB924
:103E2000082070BD204604F03DFC05462846F8E712
:103E300070B504460CB9102070BD204604F032FC69
:103E400005462846F8E770B504460CB9202070BD39
:103E5000204604F027FC05462846F8E72DE9F04304
:103E600004460D46002184EA01006940084302D15E
:103E70004020BDE8F083E243E843521C40F10001DA
:103E800002EA040601EA050730463946FFF765FFF6
:103E90008046C8F13F094846EBE70000A02E00200D
:103EA000A402002094DD000870B50446002500BF80
:103EB00000BF04F0E9FB054600BF00BF18480460DE
:103EC00000BF00BF284604F0E3FB00BF00BF70BD89
:103ED00010B50120FFF7E8FF10BD014643F239029B
:103EE000104B03FB012222F00040704770B5002602
:103EF00000BF00BF04F0C8FB064600BF00BF084873
:103F000005682846FFF7E9FF04460548046000BF3E
:103F100000BF304604F0BCFB00BF00BF204670BDB0
:103F2000A80200206D4EC64170472DE9F0410546BC
:103F30000B4694460027002402E03F021F43641C06
:103F4000042CFAD3604605F00306294646B13446F0
:103F500003E001F8013B401E641C08B1042CF8D3B7
:103F60000A4601E080C2001F0428FBD2114602E08D
:103F700001F8013B401E0028FAD1BDE8F08130B5C0
:103F800005460C46224600212846FFF7CEFF30BDED
:103F90002DE9F04F85B007468846914646463D4696
:103FA000AE4207D94A464146384605F019F805B0F1
:103FB000BDE8F08F4C4607EB0900451E08EB0900F1
:103FC000461EA81B04900498042834D305F003006F
:103FD000029006F003010191DDE90110884201D150
:103FE000012000E0002000900098012823D10298D1
:103FF000032810D0029840B2039008E016F8010997
:1040000005F80109641E0398401E40B2039014B1E4
:1040100003980028F2DAA5F1030AA6F1030B04E0E5
:104020005BF804094AF80409241F042CF8D20AF1A9
:1040300003050BF1030604E016F8010905F8010970
:10404000641E002CF8D100BFB1E72DE9F84F80467F
:104050008946154615B90120BDE8F88FB8F1000F63
:1040600001D10020F8E7B9F1000F01D10020F3E7FA
:104070000124294608EB050209EB050302F0030CB5
:1040800003F0030BDC4501D1012000E0002000908B
:104090000098012829D1BCF1000F12D0E2460AE0B5
:1040A000521E5B1E107893F800E0704500D000248B
:1040B000491EAAF1010A012C03D111B1BAF1000F76
:1040C000EED1012C11D116461F4608E0361F3F1FC6
:1040D0003068D7F800E0704500D00024091F012C9B
:1040E00001D10429F2D232463B4608E0521E5B1E43
:1040F000107893F800E0704500D00024491E012C90
:1041000001D10029F2D12046A6E70000002419E0E1
:1041100000BF00BF04F0B8FA044600BF00BFFB4870
:104120000068401CF9490860F9480068401CF849DB
:10413000086000BF00BF204604F0AAFA00BF00BF1D
:1041400008F0AAF8E4E710B58AB004460020EF4969
:1041500008600B2000210591CDE90704069108466F
:10416000EC490968EC4A1268EC4B1B68CDE9013256
:10417000CDE903103F200023AFF26F02E8A10090C9
:10418000EC4801F080FE0AB010BD00210AE001EB0E
:104190004102E94B03EB820000220281026042608F
:1041A0004A1CD1B24029F2D3704770B5044608F0DA
:1041B0007BF80020E1490870E1490870E149087086
:1041C000E1490860E1490860E1490870E149087087
:1041D000E1490870E1490870E14800680A21B0FB34
:1041E000F1F0E0490860E048006858B1DF48056830
:1041F00045B1DD48066803E0761E002028602D1DCD
:10420000002EF9D10020DA490860DA490860DA495D
:104210000860DA490860DA490860DA490860DA4972
:104220000860DA49087007F003F9FFF7AEFF20468F
:1042300005F08BFF208800B170BD204606F09FFA84
:10424000208800B1F8E7204606F0A8FA208800B1DF
:10425000F2E7204607F0D8F8208800B1ECE72046C6
:1042600007F050FD208800B1E6E7204601F0CEF9C6
:10427000208800B1E0E7204603F0B0F9208800B1C3
:10428000DAE7204606F0CEF8208800B1D4E72046D1
:10429000FFF759FF208800B1CEE7204607F0C1FEA6
:1042A000208800B1C8E7204601F04EFC208800B10C
:1042B000C2E704F0A7FF04F0A3FF00BFBCE7A048DB
:1042C0000078012800D070479C480078FA2800DB6D
:1042D000F9E79A480078401C9849087000BFF2E757
:1042E00010B5002496480078012800D010BD00BF0A
:1042F00004F0CAF9044600BF9048007828B900BF0E
:10430000204604F0C5F900BFF0E78C480078401E55
:104310008A49087008460078002805DD00BF20465D
:1043200004F0B6F900BFE1E786480078002805DD13
:1043300000BF204604F0ACF900BFD7E707F082F8D1
:10434000844908700846007800EB40007A4951F82B
:1043500020007E490860084600687B490968884259
:1043600005D100BF204604F093F900BFBEE77748AF
:104370000068D0F88C00401C74490968C1F88C00B2
:1043800083480068401C8249086008F09FFD00BF18
:10439000204604F07DF900BF00BFA7E710B5002458
:1043A00066480078002800DD10BD664800780028C7
:1043B00000DDF9E700BF04F067F9044600BF07F02D
:1043C00041F8644908700846007800EB40005A49FB
:1043D00051F820005D490860084600685A4909689C
:1043E000884205D100BF204604F052F900BFDBE748
:1043F00056480068D0F88C00401C54490968C1F840
:104400008C0063480068401C6149086008F059FD51
:1044100000BF204604F03CF900BF00BFC4E770B500
:104420000446002546480078012803D045F68960F7
:10443000208070BD43480078FA2803DB45F209204C
:104440002080F6E700BF00BF04F01EF9054600BF5C
:1044500000BF3C480078401C3A49087000BF00BFCC
:10446000284604F015F900BF00BF0020208000BFDF
:10447000DFE770B50446002531480078012803D0F5
:1044800045F68960208070BD2E48007818B946F640
:1044900064502080F7E700BF00BF04F0F5F8054640
:1044A00000BF00BF27480078401E26490870084614
:1044B000007800280ADD00BF00BF284604F0E8F8B5
:1044C00000BF00BF46F663502080DCE700BF00BF9E
:1044D000284604F0DDF800BF00BFFFF75FFF0020B3
:1044E000208000BFCFE72DE9F04105460C46164677
:1044F000002700BF00BF04F0C7F8074600BF00BF99
:10450000012D47D000201549087046E0C009002061
:10451000140A002034DF000830DF00082CDF000818
:1045200075432F4F532D4949492049646C652054E8
:1045300061736B00D042002054440020C409002065
:10454000C5090020FE0900204C0A0020500A002066
:10455000F2090020F3090020F4090020040A0020D9
:104560008CDF0008000A00205CDF000858DF00082C
:10457000A4090020A8090020AC090020B0090020EF
:10458000B4090020B8090020BC090020320A00202C
:10459000280A00200120F849087014B1F748046087
:1045A00006E0F74800680A21B0FBF1F0F349086023
:1045B00000BF00BF384604F06BF800BF00BF00200A
:1045C0003080BDE8F08110B501460C8924B1012C82
:1045D00003D0022C0CD101E000BF14E008684A6847
:1045E00002610024C4601461D0600A6048600AE07F
:1045F00008684A68C36800241C61C4600261D06016
:104600000B60486000BF00BF10BD2DE9F0410446BB
:104610000027DC480078002804DD46F6635020803F
:10462000BDE8F081D4480078012803D046F67B101D
:104630002080F5E700BF00BF04F026F8074600BF62
:1046400000BFD148007800EB4000D04901EB800664
:10465000308902280ADA00BF00BF384604F018F893
:1046600000BF00BF46F67A102080D9E73046FFF73A
:10467000AAFF3568286D18B9C0480068686501E070
:10468000286D686500BF00BF384604F001F800BF20
:1046900000BFFFF783FE0020208000BFC0E710B5F9
:1046A0000446BB480078E8B906F0CCFEB94908706A
:1046B00008460078B4490870B648007800EB40001E
:1046C000B24951F82000B449086008460068B3496F
:1046D00008600120AE49087008F0E2FB43F699201B
:1046E000208002E045F68A60208010BD014600204F
:1046F000088047F2C160704730B548B14568C1F8DD
:10470000B85000F10804226893681D6AC56113E07F
:1047100091F83450022D02D0072D08D103E0A0A556
:10472000C1F8B85007E0A0A5C1F8B85003E0A1A5B2
:10473000C1F8B85000BF00BF30BDF0B58E6896F824
:10474000375007893FB90127078100274F600F6065
:104750000160416023E007897F1C0781026806E051
:10476000946894F83770AF4200DD02E05268002A86
:10477000F6D100BF32B900274F6043680B60596023
:1047800041600CE017682FB9116000270F604A6084
:10479000016004E013680B604A6059601160F0BD6D
:1047A00010B5C287016300230AE000244C600C604E
:1047B0000C614C610C83CC61886020315C1CA3B21D
:1047C0009342F2DB10BD2DE9F041054695F8370024
:1047D00000EB40006D4901EB80042F69EE6887B95A
:1047E00046B9002020812060606095F8370006F00F
:1047F0004BFE0EE02089401E2081002030612660A3
:1048000007E02089401E2081FE600EB9676000E04D
:10481000376100202861E860BDE8F08170B504468A
:104820000D4645B12A462146634807F041FC032066
:1048300084F8360002E0022084F836002046FFF7B4
:10484000C2FF70BD2DE9F04105460C4616461F46D5
:104850005248006880F8346000205049096881F8A7
:10486000350039464D480068FFF7D8FF6CB104F1B8
:104870000808EC600122294648480068FFF790FFCD
:1048800029464046FFF759FF06E0002043490968E2
:10489000C887424909680863404801682046FFF715
:1048A0002BFFBDE8F08110B50489012C03D1002451
:1048B0000460446011E00C6824B94A680024146064
:1048C00002600AE04C6824B90B6800245C60436015
:1048D00003E00B684A685A6013600489641E04810F
:1048E00000244C600C6010BD2DE9F0410446256B9E
:1048F000E68F0AE0D5F80C8008F10807294638460B
:10490000FFF7D1FF2035701E86B2002EF2DC0020AA
:10491000E0872063BDE8F08130B50346086BCC8F9B
:1049200008E0C5689D4202D10361C26104E0203005
:10493000651EACB2002CF4DC00BF30BD10B590F8A1
:10494000373003EB4303114C04EB83010B893BB974
:1049500001230B810023C36003610860486009E004
:104960000B895B1C0B810B68C360002303610A6821
:104970001061086010BD0000040A0020000A002039
:104980008CDF0008FE090020F209002054440020BA
:10499000C5090020F3090020500A00204C0A00201D
:1049A0005461736B205100005461736B2053656D2B
:1049B0000000000020000000440A002010B590F81C
:1049C000373003EB4303F94C04EB83010B893BB90C
:1049D00001230B810023C36003610860486008E085
:1049E0000B895B1C0B810023C3604A680261D060A5
:1049F000486010BD10B5044694F8370006F034FD49
:104A000094F83700EA490978884203D12046FFF735
:104A1000D5FF02E02046FFF791FF10BD70B50546B7
:104A20000C46164694F8360008284ED2DFE800F00F
:104A30000405080906072E2F00BF00BF00BF45E090
:104A400000BF94F83400032804D13246214628469A
:104A5000FFF762FF0020A065A4F85C00266415B192
:104A60002046FFF741FF94F83600032802D1204684
:104A700007F0E0FB2046FFF7BDFF00203434A070B4
:104A800001206070002004F834091FE000BF94F892
:104A90003400032804D1324621462846FFF73CFF64
:104AA0000020A065A4F85C00266415B12046FFF73D
:104AB0001BFF204607F0BEFB04203434A070012009
:104AC0006070002004F8340900E000BF00BF70BD32
:104AD00030B5AFF22015C1F8B85000F108042268D3
:104AE0001AB193681D6AC56102E0AFF23815C5615D
:104AF00030BD2DE9F04304460F4684F83770256B2E
:104B0000B4F83E8013E0D5F80C9009F1080630891E
:104B1000012807D929463046FFF7C5FE2946304609
:104B2000FFF70BFE2035A8F101001FFA80F8B8F15D
:104B3000000FE8D1BDE8F0830021016041600181F0
:104B4000704703895B1C038103684B6000230B6083
:104B5000026802B1116001600389012B00D141603C
:104B6000704730B50346086BCC8F08E0C5689D429E
:104B700002D10361C26104E02030651EACB2002C9A
:104B8000F4DC00BF30BD70B506460C46154694F8FF
:104B9000360008284CD2DFE800F0040508090607B3
:104BA0002D2E00BF00BF00BF43E000BF94F83400CB
:104BB000032804D12A4621463046FFF7D2FF0020C1
:104BC000A065A4F85C0025642046FFF78DFE94F8EC
:104BD0003600032802D1204607F02CFB2046FFF7C1
:104BE00009FF00203434A07002206070002004F817
:104BF00034091EE000BF94F83400032804D12A468B
:104C000021463046FFF7ADFF0020A065A4F85C0008
:104C100025642046FFF768FE204607F00BFB0420C2
:104C20003434A07002206070002004F8340900E0E1
:104C300000BF00BF70BDF0B50446059E086BCD8F68
:104C40000AE0C768A74204D1046142610383C661D8
:104C500004E020306F1EBDB2002DF2DC00BFF0BDBD
:104C60002DE9F84306460C4617469846089D94F8E9
:104C7000360008285BD2DFE800F0040508090607C3
:104C8000323300BF00BF00BF52E000BF94F83400D1
:104C9000032807D143463A46214630460095FFF7A0
:104CA000CAFF03E0A765A4F85C80256436B12046FE
:104CB000FFF71AFE21463046FFF70AFF94F8360048
:104CC000032802D1204607F0B5FA2046FFF792FEEE
:104CD00000203434A070607004F8340928E000BF6C
:104CE00094F83400032807D143463A46214630461B
:104CF0000095FFF7A0FF03E0A765A4F85C8025649A
:104D000036B12046FFF7F0FD21463046FFF7E0FEC2
:104D100094F83600072802D1204607F08BFA0420C9
:104D20003434A0700020607004F8340900E000BF43
:104D300000BFBDE8F88310B5002400BF03F0A4FC59
:104D4000044600BF00201B4908701B481B4908602F
:104D500008460068D0F88C00401C0968C1F88C0037
:104D600017480068401C1649086008F0AAF800BF00
:104D7000204603F08DFC00BF10BD70B5054600262F
:104D800010480078012800D070BD00BF00BF03F0BC
:104D90007BFC064600BF00BF2C68ACB900BF00BF5B
:104DA000304603F075FC00BF00BFEDE7544400201F
:104DB000F2090020F30900208C430020500A002053
:104DC000280A0020040A00202248844207D100BF9C
:104DD00000BF304603F05CFC00BF00BFD4E7606D4D
:104DE00010B1606D401E6065606D38B100BF00BFDE
:104DF000304603F04DFC00BF00BFC5E728890228FC
:104E000007DA00BF00BF304603F042FC00BF00BF1E
:104E1000BAE711480078002807DD00BF00BF304620
:104E200003F036FC00BF00BFAEE72846FFF7CBFB20
:104E30002C68206D18B909480068606501E0206D94
:104E4000606500BF00BF304603F022FC00BF00BF1A
:104E500000BF99E7D0420020FE090020000A002090
:104E6000F7A1C16100214161F649096811B900212A
:104E7000816105E0F34909688161F2490968486187
:104E8000F049086070472DE9F04104460E46174688
:104E90001D464FF0000824B945F6C3502880BDE8F0
:104EA000F08100BF00BF00BF03F0EEFB804600BFF3
:104EB00000BFE5480078401CE349087000BF00BF10
:104EC000404603F0E5FB00BF00BF00BFDF482060A5
:104ED000276200206062666004F10800FFF72CFE84
:104EE0002046FFF7BDFFDA480088401CD8490880FB
:104EF00000BF00BF00BF03F0C7FB804600BF00BF7C
:104F0000D1480078401ED049087000BF00BF40461D
:104F100003F0BEFB00BF00BF00BF0020288000BF21
:104F2000BDE710B50446CB482060002020626062D7
:104F3000C9A0606004F10800FFF7FEFD10BD4269E2
:104F400081693AB9BF4B196009B100234B61002355
:104F5000836109E019B900239361436104E0916121
:104F60004A6100238361436170472DE9FC5F054678
:104F700088461446002000902DB945F6C350208085
:104F80000020BDE8FC9FB8F1000F03D0B8F1010F7D
:104F900002D100E000BF04E045F62560208000203B
:104FA000EFE700BFA9492868884204D045F6C450FD
:104FB00020800020E5E700BF00BF03F065FB009004
:104FC00000BF00BF05F10809B9F808603746B8F11D
:104FD000000F03D0B8F1010F65D120E0A7B9284632
:104FE000FFF7ADFF9A480088401E9949088028467F
:104FF000FFF797FF00BF00BF009803F049FB00BF19
:1050000000BF0020208009E000BF00BF009803F02F
:105010003FFB00BF00BF47F25F1020804EE000BFA3
:1050200089480078401C8849087000BF00BF00987C
:1050300003F02EFB00BF00BF00BFFBF7D2FF0190C3
:105040000AE0D9F800A0DAF808B059462846019AD3
:10505000FFF799FD701E86B2002EF2D12846FFF7A9
:105060006EFF7B480088401E794908802846FFF77C
:1050700058FF00BF00BF00BF03F006FB009000BF59
:1050800000BF71480078401E6F49087000BF00BF24
:10509000009803F0FDFA00BF00BF00BFFFF77EF9E4
:1050A000002020800AE000BF00BF009803F0F0FA63
:1050B00000BF00BF45F62560208000BF00BF384616
:1050C0005FE72DE9F04788B00546894690461C46C3
:1050D000109E4FF0000A35B945F6C35030800020CD
:1050E00008B0BDE8F087B8F1000F03D0B8F5004F65
:1050F00002D100E000BF04E045F6256030800020CA
:10510000EEE700BF51492868884204D045F6C450F4
:1051100030800020E4E70CB10020206000BF00BF19
:1051200003F0B2FA824600BF00BF286A88B1286A3D
:10513000401E28620CB1686A20602F6A00BF00BF61
:10514000504603F0A5FA00BF00BF0020308038466B
:10515000C6E708F4004060B12F6A00BF00BF5046A8
:1051600003F096FA00BF00BF46F2B0103080384618
:10517000B6E73548007800280BDD00BF00BF504679
:1051800003F086FA00BF00BF46F66350308000206F
:10519000A6E700BF2C480078401C2B49087000BFD0
:1051A00000BF504603F074FA00BF00BF00BF4B467B
:1051B000062229466846FFF745FB00BF00BF00BF37
:1051C00003F062FA824600BF00BF1F480078401E0D
:1051D0001D49087000BF00BF504603F059FA00BFD8
:1051E00000BF00BFFFF7DAF800BF00BF03F04CFAC2
:1051F000824600BF00BF1A48006890F8350030B101
:1052000001280CD002282DD0032834D110E01CB185
:1052100013480068006C20600020308037E01CB12B
:105220000F480068006C206046F2A91030802EE024
:105230000CB10020206047F2D920308027E0000028
:1052400020000000080A0020FE09002053454D41BF
:105250000C0A00204E4F4E453F53454D00000000C4
:105260004C0A00201CB1ED480068006C206045F637
:10527000C25030800BE046F62E60308000BF00BF89
:10528000504603F005FA00BF00BF002028E700BF2A
:105290002F6A00BF00BF504603F0FAF900BF00BFFD
:1052A00038461DE72DE9F05F05460E4614464FF0DF
:1052B000000A2DB945F6C35020800020BDE8F09FBC
:1052C0004EB1B6F5807F07D0B6F5004F05D0B6F5E4
:1052D000014F04D102E000BF00BF00BF04E045F66B
:1052E000256020800020E9E700BFCD49286888427A
:1052F00004D045F6C45020800020DFE700BF00BF87
:1053000003F0C2F9824600BF00BF05F108073889E3
:1053100058B900BF00BF504603F0BAF900BF00BF44
:1053200046F2AB1020800020C8E700BFBD480078DF
:10533000401CBC49087000BF00BF504603F0A8F9EC
:1053400000BF00BF00BF4FF00008FBF74AFE8346D6
:105350000FE03868D0F808905A4649462846FFF7CB
:105360005DFB08F101001FFA80F8B6F5807F00D0E0
:1053700002E038890028ECDC00BF00BF00BF00BF9E
:1053800003F082F9824600BF00BFA6480078401EA5
:10539000A449087000BF00BF504603F079F900BF70
:1053A00000BF00BF06F4004008B9FEF7F7FF002079
:1053B0002080404682E72DE9FF5F044688469146FB
:1053C0001D460020019000BF00BF03F05DF9019071
:1053D00000BF00BF04F10807388900284FD104201E
:1053E000012804D0022814D0042834D123E0206AF4
:1053F000FF280DD100BF00BF019803F049F900BF9D
:1054000000BF46F6C5502880002004B0BDE8F09FDC
:1054100022E04FF6FF71206A88420BD100BF00BF27
:10542000019803F035F900BF00BF46F6C55028804B
:105430000020EAE710E0206A401C58B900BF00BF16
:10544000019803F025F900BF00BF46F6C55028803B
:105450000020DAE700E000BF00BF206A401C2062A5
:10546000D4F820A0C4F8249000BF00BF019803F036
:105470000FF900BF00BF002028805046C5E700BFDD
:1054800068480078401C6749087000BF00BF019859
:1054900003F0FEF800BF00BF00BF08F4007008B1C1
:1054A0003E8900E00126D7F800B011E0DBF80800E3
:1054B0000290DBF80400039000231A46CDF8009018
:1054C00020460299FFF7CCFBDDF80CB0701E86B2C7
:1054D000002EEBD1D4F820A000BF00BF00BF03F026
:1054E000D3F8019000BF00BF4E480078401E4D49E0
:1054F000087000BF00BF019803F0CAF800BF00BFEA
:1055000000BF08F4004008B9FEF748FF00202880DB
:1055100050467AE72DE9FF4105460F46144635B956
:1055200045F6C3502080002004B0BDE8F0814FB1A3
:10553000B7F5007F07D0B7F5004F05D0B7F5024F9C
:1055400004D102E000BF00BF00BF04E045F62560C3
:1055500020800020E8E700BF31492868884204D055
:1055600045F6C45020800020DEE7FBF73AFD0646F2
:105570002D48007800280CDD00200346024629460D
:10558000CDE9017603940090254804F0EFFD00205A
:10559000CAE72346324639462846FFF70CFF8046C5
:1055A0004046C1E72DE9F04104460E4615464FF04E
:1055B000000824B945F6C3502880BDE8F081184999
:1055C0002068884203D045F6C4502880F5E70020C3
:1055D000288000BF00BF03F057F8804600BF00BF1F
:1055E000206A08B1266208E004F10807388908B982
:1055F000266202E047F25F10288000BF00BF4046ED
:1056000003F046F800BF00BF00BFD6E70021074AFD
:105610001160074A11800180704700004C0A002089
:1056200053454D41FE090020C4090020080A00200E
:105630000C0A00202DE9F04107464FF0000800BF9A
:1056400000BF03F021F8804600BF00BF0020FA49E8
:105650000860FA490880FA490880FA490860FA495E
:105660000860FA49088100BF00BF404603F010F807
:1056700000BF00BF00BF00BF03F006F8804600BFB8
:1056800000BFF348046800BF00BF404603F000F8C5
:1056900000BF00BF20E000BF00BF02F0F5FF804662
:1056A00000BF00BF002044F8740F2063A061A082F7
:1056B000E0826062A062FBF794FC2062743C04F11B
:1056C00060060020B081D4F8B44000BF00BF40465F
:1056D00002F0DEFF00BF00BF002CDCD100BF00BF26
:1056E00002F0D2FF804600BF00BFDA48056800BF65
:1056F00000BF404602F0CCFF00BF00BF12E000BF79
:1057000000BF02F0C1FF804600BF00BF05F12006C8
:105710000020B081AD6900BF00BF404602F0B8FF75
:1057200000BF00BF002DEAD106F0B0FD0020388098
:10573000BDE8F081F8B5044600266A460021022043
:1057400001F068FFBDF8000018B1BDF8000020802E
:10575000F8BD00BF00BF02F097FF064600BF00BFC4
:105760000020BD49086000BF00BF304602F090FF36
:1057700000BF00BF0025B9480068B94909688842E0
:1057800005D9B6480068B6490968B0FBF1F525B9F6
:10579000B24800680A21B0FBF1F56A4600212846AC
:1057A00001F038FF00BF00BF02F06EFF064600BFE9
:1057B00000BF0020A3490860A7480068A949086005
:1057C0000120A949087000BF00BF304602F060FF09
:1057D00000BF00BF0020208000BFB9E786B00020D6
:1057E000009006E09E490968480001AA002101F0E6
:1057F00011FF9D4800780128F4D101A8FFF71AFF96
:1058000000279648006896490968884205D9934858
:10581000006893490968B0FBF1F727B98F48006821
:105820000A21B0FBF1F78EE1FBF7DBFB804600BFFE
:1058300000BF02F029FF009000BF00BF864800684B
:105840008A49086000208449086000BF00BF0098B2
:1058500002F01EFF00BF00BF82480068834909684C
:10586000884248D97F4800688149884205D242F27F
:10587000107003900120029023E07A4800687D496F
:10588000884205D24FF47A7003900A20029018E003
:10589000744800687849884203D2642003900290DB
:1058A0000FE0704800687549884205D20A200390CD
:1058B0004FF47A70029004E00120039042F21070DD
:1058C0000290684801680298B1FBF0FA67490398B2
:1058D00009684843B0FBFAF042F21071081A6849AF
:1058E0000880574800880988884208DA6448008898
:1058F0005349088003E042F210706149088006F0C5
:10590000E1FC002500BF00BF02F0BEFE009000BF1A
:1059100000BF4F48046800BF00BF009802F0B8FE07
:1059200000BF00BF5AE000BF00BF00BF02F0ACFEE6
:10593000009000BF00BF53480078401C51490870D8
:1059400000BF00BF009802F0A3FE00BF00BF00BF71
:1059500054F8980F6060002044F8980900BF00BF19
:1059600000BF02F091FE009000BF00BF45480078E4
:10597000401E4449087008460078A0B94248008893
:10598000002809DD00BF00BF009802F081FE00BFC3
:1059900000BFFFF7D0F90DE000BF00BF009802F094
:1059A00077FE00BF06E000BF00BF009802F070FE67
:1059B00000BF00BF00BFD4F89C00054400BF00BF7B
:1059C00002F062FE009000BF00BFD4F8B44000BFF8
:1059D00000BF009802F05CFE00BF00BF002CA2D107
:1059E00045B32348854205D242F2107005904FF02E
:1059F000010B1BE01F48854205D24FF47A700590D9
:105A00004FF00A0B12E01C48854203D26420059037
:105A100083460BE01948854204D20A2005904FF4D2
:105A20007A7B03E00120059042F2107BB5FBFBF08E
:105A300004902FE02AE00000D8090020D2090020BD
:105A4000120A0020240A0020380A002048440020BE
:105A50002C0A0020F8090020140A00208CDF00081E
:105A600074DF0008180A0020200A00201C0A002009
:105A7000801A060000093D00005A62020084D71710
:105A8000100A0020FE090020D00900200020059007
:105A90000120049000BF00BF02F0F6FD009000BF9F
:105AA00000BF4C48046800BF00BF009802F0F0FD42
:105AB00000BF00BF2BE0D4F89C000599484304992F
:105AC000B0FBF1F086B242F21070864200D9064671
:105AD000A4F88860B4F88A00B04201DAA4F88A60B9
