:020000040800F2
:10000000D08800201925000861080008630800084E
:10001000670800086B0800086F080008000000006F
:10002000000000000000000000000000730800084D
:1000300075080008000000002FCE0008EFC500087A
:100040003325000833250008332500083325000830
:100050003325000833250008A50A0008BB0A00085C
:100060007D0B0008390C00084F0C000833250008F0
:100070003325000833250008332500083325000800
:1000800033250008332500083325000833250008F0
:1000900033250008332500083325000833250008E0
:1000A00033250008332500083325000833250008D0
:1000B000030A0008430A0008870A000833250008DD
:1000C00033250008332500083325000833250008B0
:1000D000332500087908000817090008AB09000853
:1000E0003325000833250008332500083325000890
:1000F0003325000833250008332500083325000880
:10010000332500083325000833250008332500086F
:10011000332500083325000833250008332500085F
:10012000332500083325000833250008332500084F
:10013000332500083325000833250008332500083F
:10014000332500083325000833250008332500082F
:10015000332500083325000833250008332500081F
:10016000332500083325000833250008332500080F
:1001700033250008332500083325000833250008FF
:100180003325000833250008DFF80CD00CF0A6FD5D
:1001900000480047D3070008D088002070B52DED37
:1001A000048B04460D46287804EB8401FB4A02EBDD
:1001B00081010874012004EB840102EB8101C87203
:1001C000002604EB8400114601EB8000007C082827
:1001D00002D0092827D11DE06878304486B2A8787B
:1001E00006EB002086B230460CF068FC41EC190B9F
:1001F0009FEDEB0B53EC102B0CF06EFB41EC180B4E
:100200000CF088FC04EB8401E44A02EB8101C9682C
:10021000088008E0687804EB8401E04A02EB810181
:10022000C968088000BF00BFBDEC048B70BDF8B585
:100230000646DDA000680090102E00DBF8BD3446B5
:100240002046E11704EB5171C1F3C7051DF80520E5
:100250004FF40051D54802F07FFCA4EBC500C4B2B6
:100260002046E11704EB91718D101DF805204FF425
:100270008051CE4802F070FCA4EB8500C4B2204649
:1002800004EBD0714D101DF805204FF40061C748F4
:1002900002F062FCA4EB4500C4B225461DF805201F
:1002A0004FF48061C14802F057FC0121C04802F0C0
:1002B00051FC00BFC2E7BD4A1432126891B24FF63A
:1002C000C0721140082801DA014305E0A0F10802DC
:1002D00090B241EAC00291B2B44A14321160704740
:1002E0001CB50121042002F0FDFD3F2000900120FB
:1002F0008DF8040000208DF8060003208DF805001D
:1003000000208DF807006946A84802F0A5FB1CBD37
:100310001CB50121022002F0E5FD0121042002F0BC
:10032000E1FD012000908DF8040000208DF806000A
:1003300003208DF8050001208DF8070069469C48D0
:1003400002F08AFB01219A4802F002FC4FF470503F
:10035000009001208DF8040000208DF80600032095
:100360008DF8050000208DF8070069468F4802F0DF
:1003700073FB1CBD1CB50121102002F0B3FD8D489C
:1003800002F0FCFA4FF6FF70009000208DF8040098
:100390008DF8060003208DF8050002208DF8070077
:1003A0006946844802F058FB1CBD0EB5FFF7E2FF1A
:1003B000FFF7AEFFFFF794FF7E4802F0B8FB7E49DF
:1003C000088002AB00227DA1814808F02EFF02AB1D
:1003D000002280A1844808F028FF0020834908807B
:1003E000834908800121724802F0B2FB01F08CFEC3
:1003F0000021012001F0F9FB0021022001F0F5FBB2
:100400000021032001F0F1FB0021042001F0EDFBAD
:1004100001220A21104601F04FFC01226E21022028
:1004200001F04AFC01228221032001F045FC022256
:1004300040F6B831042001F03FFC3EE06D484079C1
:1004400020B36D480078D0B942F2FF0001F0CEF938
:10045000684800796749C97801EB810100EB4100E8
:1004600000EB4000654901EBC000021D1421084665
:1004700000F0C2FF62A21421A02000F0BDFF012005
:100480005D4908705B498868804716E05A480078E3
:10049000012804D142F2FF0001F0A8F902E0002097
:1004A0005549087001F0CBFD02A8002132230A460D
:1004B000CDE9001008460BF0B1FDBFE72DE9FE4382
:1004C00004464FF000080121394802F041FB394849
:1004D00002F02DFB384908802046E11704EB5171EA
:1004E000C1F3C706012E06DB002240F22551484821
:1004F00004F056F805E0012240F22551444804F08A
:100500004FF8012E06DB012240F22551414804F04C
:1005100047F805E0002240F225513E4804F040F83B
:1005200002AA00212A4809F00FFA02AA00212E4847
:1005300009F00AFA0120A0401F4909880840002854
:1005400070D02046FFF7B7FE0020294908802749D0
:100550000880012E01DB1E4800E023482E49086078
:100560002046FFF764FE0121114802F0F1FA02A8CB
:1005700000231A46122100902748006808F073FFF4
:10058000012E01DB254800E025480746BDF808009C
:1005900018B997F8008001254BE060E0502C00204E
:1005A000000000000000B93F000100000008024008
:1005B00000040240001002400800002055736172E0
:1005C00074325265636572766553656D0000000094
:1005D0009C0A0020557361727431526563657276AE
:1005E0006553656D00000000600A002006000020D1
:1005F00004000020982E0020180000201C0000207D
:1006000052756E696E672E2E2E2E2E2E0000000063
:10061000001001400044004000000020C40A0020F7
:10062000880A002031E0785D404400F0FF08681C33
:10063000C5B2052DF7DB785D404506D100F0D8FC4A
:1006400039462046FFF7AAFD04E000201049088043
:100650001049088000200E4908800E490880BDF826
:10066000080045F6C451884206D102AB00220AA117
:100670000D48006808F0D9FD02A8002101230A46B0
:10068000CDE9001008460BF0C9FCBDE8FE83000070
:1006900004000020060000205573617274526563E7
:1006A0006572766553656D00000000203EB5044616
:1006B00002A8002123460A46CDE9001008460BF0A7
:1006C000ADFC3EBD10B5002400BF0FE022469621D0
:1006D000312000F079FB4FF6FF70021BB421BE20E1
:1006E00000F072FB1420FFF7E1FF641C4FF6FF706F
:1006F0008442EBDB10BD10B5012000F021FB124954
:100700000870082000F01CFB10490870022000F05F
:1007100017FB0F4908700FA26421962000F06CFEB1
:10072000094802786421BE2000F04EFB0748027899
:100730007821BE2000F048FB054802788C21BE20BD
:1007400000F042FB10BD0000740200207502002082
:1007500076020020524947485400000000B58BB093
:100760000AA8032100220592CDE90621089010462F
:10077000490299222A4BCDE90132CDE90310032029
:100780000023284A28A100902D4809F04EFD0BB007
:1007900000BD0EB500F07AFB03F0A4FF00F0C1FB32
:1007A00004F05CFA04F02EFA02A809F095F942F27E
:1007B000FF0001F01BF8FFF7D1FF09E002A80021BC
:1007C0004FF4FA730A22CDE9001008460BF026FC1C
:1007D000F4E700B58FB00AA802F0EFFA0EA805F012
:1007E00026F90EA8032100220592CDE906210890E2
:1007F00010464FF400713322124BCDE90132CDE99E
:10080000031002200023104A10A10090134809F0A1
:100810000CFD0EA805F085FB00200FB000BD000008
:10082000940B0020AB030008417070205461736B7F
:10083000204461746520436F6E6E65637465640067
:10084000D80A00205024002093070008417070202F
:100850005461736B20537461727400009423002000
:10086000704700BFFEE700BFFEE700BFFEE700BF26
:10087000FEE770477047704738B505F062F9F948F0
:1008800003F007FE0546F848008814282DDAF648DC
:10089000008808B9002403E0F3480078401EC4B281
:1008A000FA2D19D1F148005DA02815D1EE48028833
:1008B0000088401CEC4B1880EC4885540020EB4924
:1008C000C8742021E74803F09DFE6A464FF400718A
:1008D000E74808F0F1FF17E0E34802880088401C71
:1008E000E14B1880E14885540EE0DF48008840F471
:1008F0000040DD4908800020DC49C8746A464FF496
:100900000071DB4808F0D8FF2021D64803F07AFEBA
:1009100005F028F938BD38B505F013F9D54803F0CE
:10092000B8FD0546D448008814282DDAD24800883E
:1009300008B9002403E0D0480078401EC4B2FA2D64
:1009400019D1CE48005DA02815D1CB480288008877
:10095000401CC94B1880C94885540020C749C87439
:100960002021C44803F04EFE6A464FF40071C4488B
:1009700008F0A2FF12E0C04802880088401CBE4B6D
:100980001880BE48855409E02021BA4803F03AFE99
:100990006A464FF40071BA4808F08EFF2021B5482E
:1009A00003F030FE05F0DEF838BD10B505F0C9F8EB
:1009B000B44803F06EFD0446B3480088C7280BDA3C
:1009C0000020B2490860B04802880088401CAE4B45
:1009D0001880AF4884540DE0AB48008840F40040D4
:1009E000A94908800020AA4981F8C7002021A5480C
:1009F00003F008FE2021A34803F004FE05F0B2F83E
:100A000010BD08B505F09DF80121880703F04FFBE4
:100A100080B100209549944A1288885492480088F1
:100A200040F40040904908806A464FF400719048B5
:100A300008F042FF0121880703F04AFB05F092F815
:100A400008BD08B505F07DF801219048243803F071
:100A50002EFB80B100208949874A12888854864835
:100A6000008840F40040844908806A464FF40071D1
:100A7000834808F021FF01218448243803F028FB33
:100A800005F070F808BD10B505F05BF8012181484C
:100A900003F00DFB01217F4803F01AFB05F062F81B
:100AA00010BD704710B505F04CF801F037FA012081
:100AB00001F05BFF05F056F810BD10B505F041F8E8
:100AC000FF2400E000BF2000A4F10101CCB2F9D165
:100AD000022001F02AFF00284AD002216E4802F0CD
:100AE0001DF860B904216C4802F018F8012806D1FD
:100AF0006A48006820F004006849086038E0022174
:100B0000654802F00BF8012832D10421624802F056
:100B100005F868BB6248407920B961480079401EF9
:100B20005F4908715E480079F0281BDD01205C49AF
:100B300088700846C07880B9084600780A2806DD23
:100B40000120C870084600780B3808710AE0544844
:100B50000078401E5249087104E000205049C870D6
:100B6000092008714D48006840F004004B490860B6
:100B7000022001F0FAFE04F0F5FF10BD10B504F0FC
:100B8000E0FFFF2400E000BF2000A4F10101CCB28F
:100B9000F9D1042001F0C9FE002847D004213E48C5
:100BA00001F0BCFF60B902213B4801F0B7FF01280A
:100BB00006D13A48006820F002003849086035E064
:100BC0000421354801F0AAFF01282FD10221324823
:100BD00001F0A4FF50BB3248407920B93048007979
:100BE000401C2F4908712E4800790A2805DB012096
:100BF0002B49C8708870002008712948007928495D
:100C0000C97801EB810100EB410025490978884250
:100C100006DB00202249C87001208870002008717E
:100C20001E48006840F002001C490860042001F0E2
:100C30009CFE04F097FF10BD10B504F082FF01F098
:100C40006DF9082001F091FE04F08CFF10BD10B585
:100C500004F077FF01F062F9102001F086FE04F045
:100C600081FF10BD0010014004000020880A002010
:100C7000600A00200044004006000020C40A002052
:100C80009C0A002000480040780200202404004014
:100C9000D02D002000080040000C0240043C014020
:100CA000982E0020102900DD704700BFFCE70020CF
:100CB0000AE02E4901EB800100EB80022C4B03EB94
:100CC0008202D160411CC8B21028F2DB704770B5B7
:100CD00004460D4628460BF03AFDC6B2002E09DD4B
:100CE0000A2E07DA04EB8401214A02EB810029462F
:100CF0000BF042FD002004EB84011D4A02EB810150
:100D0000C87270BD70B50546002415E004EB840080
:100D1000174A02EB800128460BF020FD50B920460F
:100D2000FFF7CCFB04EB8400114901EB8000C068A5
:100D3000008870BD601CC4B2102CE7DB0020F8E70F
:100D400010B50446601E102801DA002801D50020E5
:100D500010BD611EC8B2FFF7B1FB601E00EB800042
:100D6000034901EB8000C0680088F1E7902D002066
:100D7000502C002010B50446022C04DC4FF08040BB
:100D800000F05AFD02E0084800F056FD10BD10B515
:100D90000446012C03D1054800F044FE02E004485B
:100DA00000F040FE10BD00000004004000080040BC
:100DB000000C004070B504460D46164632462946E2
:100DC000204600F019FB70BDFEB505460E461446E0
:100DD0000027002C01DA64420127012F07D127A246
:100DE0003146284600F008FB05F10800C5B20A228A
:100DF0006946204601F0F4F96A463146284600F07B
:100E0000FBFAFEBD70B52DED048B86B004460D4691
:100E1000B0EE408A0026B5EEC08AF1EE10FA06D296
:100E20009FED170A30EE480AB0EE408A012615A25F
:100E30002946204600F0E0FA012E07D10FA22946EC
:100E4000204600F0D9FA04F10800C4B218EE100AE6
:100E50000BF079FE41EC190B01A90220B0EE490A12
:100E6000F0EE690A01F007FA01AA2946204600F0CF
:100E7000C3FA06B0BDEC048B70BD00002D0000006D
:100E800000000000202020202020000010B50121BB
:100E9000080302F027F84FF4806001F071FC00F0C5
:100EA000FBFF00F083FC00F085F8FFF700FF42F243
:100EB000FF0000F09BFC0120FFF75CFF0220FFF722
:100EC00059FF0320FFF756FF0420FFF753FF0120CF
:100ED000FFF75DFF0120FFF75AFF0120FFF757FFE3
:100EE0000120FFF754FF0220FFF751FF0220FFF718
:100EF0004EFF0220FFF74BFF0220FFF748FF00F0F4
:100F0000A3F800F015F910BD10B54FF4407001F0D2
:100F100037FC10BD1FB5684601F04FFF019804B0C3
:100F200010BD70B5FFF7F6FF04461E480068B4FB1D
:100F3000F0F528460BF075FB70BD10B5FFF7EAFF22
:100F400004461948006840F0807017490860002086
:100F5000164948600846006840F0010008602046D5
:100F600003F031FC10BD1149486870472DE9F04786
:100F70008246FFF7CFFF4FF0000980460C4A00235E
:100F8000404649460BF082FB064632460B46504629
:100F900000210BF07BFB04460D4620462946BDE8A8
:100FA000F0870000E4DE0008FCED00E0001000E047
:100FB00040420F001CB50121082001F093FF4FF4BF
:100FC0008060009001208DF8040000208DF806005C
:100FD00003208DF8050000208DF8070069461048B1
:100FE00001F03AFD4FF480610D4801F0B1FD1CBDE8
:100FF00010B54FF480610A4801F0B5FD10BD38B559
:10100000044608A000680090022C00DB00241DF8B4
:1010100004204FF48061024801F09EFD38BD0000BD
:10102000000C02400100000008B525208DF80000EA
:1010300000208DF801008DF8020001208DF80300DA
:10104000684601F0A2FB08BD00B587B0364803F042
:101050001BF90121084601F045FF0121102001F094
:1010600085FF07220921314801F081FD07220A216D
:101070002E4801F07CFD4FF4C060059002208DF8F1
:10108000190000208DF81A0001208DF81B000220A5
:101090008DF8180005A9254801F0DEFC4FF4E13079
:1010A00001900020ADF80800ADF80A00ADF80C0082
:1010B000ADF810000C20ADF80E0001A91A4803F09D
:1010C00031F90121184803F0B5F9012240F2255108
:1010D000154803F065FA4021134803F093FAFFF72F
:1010E000A3FF07B000BD10B504460BE014F8011BC8
:1010F0000D4803F0CAF900BF40210B4803F075FA10
:101100000028F9D020780028F0D110BD10B5044691
:101110002146054803F0B9F900BF4021024803F019
:1011200064FA0028F9D010BD001001400000024010
:1011300000B587B03B4803F0A7F80121082001F073
:10114000D1FE0121480401F000FF072205213648A5
:1011500001F00DFD07220621334801F008FD602053
:10116000059002208DF8190000208DF81A0001204A
:101170008DF81B0002208DF8180005A92A4801F0FF
:101180006BFC4FF4E13001900020ADF80800ADF8A1
:101190000A00ADF80C00ADF810000C20ADF80E0000
:1011A00001A9204803F0BEF801211E4803F042F9CE
:1011B000012240F225511B4803F0F2F94021194861
:1011C00003F020FA26208DF8000001208DF80100A0
:1011D0008DF802008DF80300684601F0D6FA07B0DA
:1011E00000BD10B504460BE034F8021B0D4803F0B7
:1011F0004CF900BF40210B4803F0F7F90028F9D063
:1012000020880028F0D110BD10B5044621460548BD
:1012100003F03BF900BF4021024803F0E6F9002843
:10122000F9D010BD00440040000C024010B5044647
:1012300000BF0221FE4802F054F90028F9D02146EF
:10124000FB4802F017F900BF0121F94802F049F903
:101250000028F9D0F64802F00AF910BD10B504468E
:101260004FF40061F34801F073FCC4F30720FFF76B
:10127000DDFFE0B2FFF7DAFF10BD10B504464FF412
:101280000061EC4801F066FC2046FFF7CFFF10BD7F
:1012900010B504464FF40061E64801F059FC2046C1
:1012A000FFF7C4FF10BD2DE9F04104460D46164678
:1012B0001F462A20FFF7E1FFC4F30720FFF7E8FFEE
:1012C000E0B2FFF7E5FFC6F30720FFF7E1FFF0B25A
:1012D000FFF7DEFF2B20FFF7D0FFC5F30720FFF756
:1012E000D7FFE8B2FFF7D4FFC7F30720FFF7D0FF1F
:1012F000F8B2FFF7CDFF2C20FFF7BFFFBDE8F0816C
:1013000070B504460D462B46224629462046FFF777
:10131000CAFFC9480088FFF7A1FF70BD2DE9FF5F34
:1013200005460F461646AA46C348B0F800B0B5F5C4
:10133000997F01DAEE2F01DDBDE8FF9FA6F12000C5
:10134000C6B207F10F03EA1D39462846FFF7ABFF87
:10135000039858BB002426E004EB0610B74911F8A7
:1013600000904FF0000816E009F0010018B1B248F3
:10137000A0F800B003E0B2480088AF490880AE484A
:101380000088FFF76BFF4FEA6909681C85B208F116
:10139000010000F0FF08B8F1080FE5DB5546781CA6
:1013A00087B2601CC4B2102CD6DB20E000241CE005
:1013B00004EB0610A14911F800904FF000080FE06F
:1013C00009F0010030B13A1991B205EB080290B270
:1013D000FFF796FF4FEA690908F1010000F0FF08E6
:1013E000B8F1080FECDB601CC4B2102CE0DB9248B3
:1013F000A0F800B000BF9FE770B505460E46144642
:1014000009E02278002331462846FFF787FF05F1DF
:10141000080085B2641C20780028F2D170BD014616
:1014200006E0002002E000BF421CD0B20628FADB32
:101430000A00A1F1010399B2F3D1704710B5024639
:1014400000BF002108E0002002E000BF431CD8B22A
:101450000A28FADB4B1CD9B2FE29F4DB1300A2F1F7
:101460000104A2B2EDD110BD1CB50121022001F092
:1014700039FD0121084601F035FD4FF48050009000
:1014800001208DF8040000208DF8060001208DF861
:10149000070000208DF8050069466A4801F0DCFA73
:1014A0004FF48051674801F053FB4FF410600090F7
:1014B00001208DF8040000208DF8060001208DF831
:1014C000070000208DF8050069465A4801F0C4FA6B
:1014D0004FF48071574801F03BFB1CBD00B587B04D
:1014E0000121880301F031FD0121022001F0FAFC05
:1014F00005220D21534801F03AFB05220E215148E7
:1015000001F035FB05220F214E4801F030FB02208F
:101510008DF8180000208DF81A0001208DF81B00AE
:1015200000208DF819004FF46040059005A945484A
:1015300001F092FA3E4801F013FE0020ADF80000E1
:10154000ADF804000220ADF806000120ADF8080057
:101550004002ADF80A000020ADF80C00ADF80E0016
:101560000720ADF810004FF48270ADF80200694614
:101570002F4801F01BFE01212D4801F0FAFE07B0B3
:1015800000BD70B504460D46E0B2FFF776FE284672
:10159000FFF764FE70BD10B5CB20FFF76EFE39205B
:1015A000FFF776FE2C20FFF773FE0020FFF770FE9A
:1015B0003420FFF76DFE0220FFF76AFECF20FFF711
:1015C0005CFE0020FFF764FEC120FFF761FE3020C3
:1015D000FFF75EFEE820FFF750FE8520FFF758FE7C
:1015E0000020FFF755FE7820FFF752FEEA20FFF7B4
:1015F00044FE0020FFF74CFE0020FFF749FEED20DF
:10160000FFF73BFE6420FFF743FE0320FFF740FE99
:101610001220FFF73DFE8120FFF73AFEF720FFF78B
:101620002CFE2020FFF734FEC020FFF726FE0BE043
:1016300000380040000002407A0200207E030020B3
:101640007C020020000402402320FFF721FEC1207D
:10165000FFF713FE1020FFF71BFEC520FFF70DFE5E
:101660003E20FFF715FE2820FFF712FEC720FFF7E8
:1016700004FE8620FFF70CFE3620FFF7FEFD282033
:10168000FFF706FE3A20FFF7F8FD5520FFF700FEB2
:10169000B120FFF7F2FD0020FFF7FAFD1820FFF759
:1016A000F7FDB620FFF7E9FD0820FFF7F1FD8220E6
:1016B000FFF7EEFD2720FFF7EBFDF220FFF7DDFD42
:1016C0000020FFF7E5FD2620FFF7D7FD0120FFF7FB
:1016D000DFFDE020FFF7D1FD0F20FFF7D9FD31201E
:1016E000FFF7D6FD2B20FFF7D3FD0C20FFF7D0FD31
:1016F0000E20FFF7CDFD0820FFF7CAFD4E20FFF7B3
:10170000C7FDF120FFF7C4FD3720FFF7C1FD07201B
:10171000FFF7BEFD1020FFF7BBFD0320FFF7B8FD6C
:101720000E20FFF7B5FD0920FFF7B2FD0020FFF7FF
:10173000AFFDE120FFF7A1FD0020FFF7A9FD0E207E
:10174000FFF7A6FD1420FFF7A3FD0320FFF7A0FD80
:101750001120FFF79DFD0720FFF79AFD3120FFF7CD
:1017600097FDC120FFF794FD4820FFF791FD082069
:10177000FFF78EFD0F20FFF78BFD0C20FFF788FD94
:101780003120FFF785FD3620FFF782FD0F20FFF7A0
:101790007FFD1120FFF771FD6420FFF74FFE292028
:1017A000FFF76BFD2C20FFF768FD10BD10B5FFF7AC
:1017B0005BFEFFF793FE7820FFF740FE4FF4807149
:1017C0001B4801F0C7F97820FFF738FE4FF480710D
:1017D000174801F0BDF9E620FFF730FE4FF48051C5
:1017E000144801F0B7F9FFF7D6FE10BD2DE9F0411E
:1017F0000446271204F0FF08FD234FF4A0720021D5
:101800000846FFF750FD00250DE0002607E03846AA
:10181000FFF73EFD4046FFF73BFD701C86B2FE2EF3
:10182000F5DB681C85B2B5F5A07FEEDDBDE8F08183
:10183000000002400004024010B58AB004460121B5
:10184000022001F082FB0121084601F07EFB01210C
:10185000022001F047FB3220059001208DF818008E
:1018600000208DF81A0003208DF8190000208DF853
:101870001B0005A9F74801F0EFF81021F54801F029
:1018800067F9F54884422FD10121042001F02AFB99
:101890004FF47070059003208DF8190002208DF828
:1018A000180000208DF81A0001208DF81B0005A9F2
:1018B000EA4801F0D1F802220621E84801F057F980
:1018C00002220721E54801F052F902220821E348EB
:1018D00001F04DF902220921E04801F048F9022106
:1018E000DC4801F035F944E0B4F1804F41D10121E9
:1018F000032001F0F7FA4FF40040059003208DF823
:10190000190002208DF8180000208DF81A0001201F
:101910008DF81B0005A9D24801F09EF840F608405A
:10192000059003208DF8190002208DF81800002082
:101930008DF81A0001208DF81B0005A9C54801F09B
:101940008BF801220F21C64801F011F90122032171
:10195000C04801F00CF901220A21BE4801F007F944
:1019600001220B21BB4801F002F92021B94801F006
:10197000F1F80021204601F06BFF07A801F013FFEA
:101980000020ADF81C004FF47A6008900020ADF8FC
:101990002400ADF81E0007A9204601F0D0FE60200B
:1019A000ADF800000120ADF8020000200290ADF873
:1019B0000C006946204601F057FF0821204602F03E
:1019C000E0F80120ADF802000020029069462046B0
:1019D00001F083FF0821204602F0DCF80120ADF879
:1019E0000200002002906946204601F0C3FF082152
:1019F000204602F0DCF80120ADF802000020029041
:101A00006946204602F01CF80821204602F0D8F86A
:101A10000121204601F0FEFE0121204601F018FFC1
:101A20000AB010BD10B58AB004460121042001F0AF
:101A30008CFA0121082001F088FA0121022001F02E
:101A400051FA3220059001208DF8180000208DF801
:101A50001A0003208DF8190000208DF81B0005A93D
:101A60007C4800F0F9FF10217A4801F071F87D48B8
:101A700084422FD10121022001F034FA4FF470701A
:101A8000059003208DF8190002208DF81800002021
:101A90008DF81A0001208DF81B0005A96D4800F093
:101AA000DBFF022206216B4801F061F802220721C8
:101AB000684801F05CF802220821664801F057F8F6
:101AC00002220921634801F052F80221614801F025
:101AD0003FF830E0644884422DD10121084601F0EE
:101AE00001FA0F20059003208DF8190002208DF8CF
:101AF000180000208DF81A0001208DF81B0005A9A0
:101B0000574800F0A9FF02220021554801F02FF8A4
:101B100002220121524801F02AF8022211465048BF
:101B200001F025F8022203214D4801F020F8202180
:101B3000484801F00FF80021204601F089FE07A86F
:101B400001F031FE2920ADF81C0042F2107008901F
:101B50000020ADF82400ADF81E0007A9204601F0D2
:101B6000EEFD6020ADF800000120ADF802004FF45A
:101B70007A7002900020ADF80C006946204601F012
:101B800073FE0120ADF8020040F6B83002906946BD
:101B9000204601F0A2FE0821204601F0FBFF0120B3
:101BA000ADF8020041F2883002906946204601F00B
:101BB000E1FE0821204601F0FAFF0120ADF8020005
:101BC0004FF47A6002906946204601F039FF0821FF
:101BD000204601F0F5FF0121204601F01BFE012106
:101BE000204601F035FE0AB010BDB1F57A6F01DD77
:101BF0004FF47A6111F57A6F00DA1C49012806D09A
:101C0000022815D0032833D0042853D141E00029FD
:101C100001DA4A4200E000220F4B34331A600029F7
:101C200001DA002200E00A460B4B38331A6041E02B
:101C3000002901DD002200E04A42074B3C331A60D4
:101C4000002901DD0A4600E00022034B40331A6000
:101C500030E00000000402400004004000080240A0
:101C60000000024000080040000C004060F0FFFF50
:101C7000002901DA4A4200E000224FF080435A6313
:101C8000002901DA002200E00A464FF080439A63FF
:101C900010E0002901DD002200E04A424FF08043BD
:101CA000DA63002901DD0A4600E000224FF080439C
:101CB0001A6400BF00BF704710B50346002900DA60
:101CC00010BD012A0ED116244C4300EE904AB8EE06
:101CD000E00ADFED1A0A70EE200AFCEEE00A10EED0
:101CE000900A00E00846092B24D2DFE803F0230520
:101CF000080C1014171B1F00114C20601AE0104C28
:101D0000241D206016E00E4C0834206012E00C4CBC
:101D10000C3420600EE00B4C20600BE0094C241DBD
:101D2000206007E0074C0834206003E0054C0C34C9
:101D3000206000BF00BF00BFC2E7000000007A447F
:101D400034080040340C004008B509208DF800002C
:101D500002208DF8010001208DF802008DF80300AB
:101D6000684600F012FD0A208DF8000002208DF870
:101D7000010000208DF8020001208DF80300684664
:101D800000F003FD06208DF8000003208DF801000F
:101D900000208DF8020001208DF80300684600F055
:101DA000F4FC07208DF8000003208DF801000020CE
:101DB0008DF8020001208DF80300684600F0E5FC74
:101DC00008208DF8000003208DF8010000208DF818
:101DD000020001208DF80300684600F0D6FC08BD23
:101DE0001CB50321084601F0C5FB08200090002027
:101DF0008DF8040008208DF8050001208DF80600FC
:101E0000684600F03BFD0421032001F0B3FB1020E5
:101E1000009000208DF8040008208DF805000120B6
:101E20008DF80600684600F029FD0021032001F02E
:101E3000A1FB0120009000208DF8040008208DF8FF
:101E4000050001208DF80600684600F017FD01210D
:101E5000032001F08FFB0220009000208DF8040089
:101E600010208DF8050001208DF80600684600F06E
:101E700005FD0221032001F07DFB042000900020DD
:101E80008DF8040010208DF8050001208DF8060063
:101E9000684600F0F3FC1CBD00B585B001210820A8
:101EA00001F020F80121402001F04FF801218803C2
:101EB00001F05CF81F20039000208DF810008DF8D1
:101EC000120003208DF8110001208DF8130003A9E2
:101ED0004B4800F0C1FD00214A4801F0B9FC6846BA
:101EE00001F061FC42F21070ADF800004FF6FF7097
:101EF00001904FF40070ADF808000020ADF802002A
:101F00006946404801F01BFC01213E4801F0A0FC5D
:101F1000FFF766FFFFF718FF05B000BD10B50820FA
:101F200000F012FD98B13848407980B90120364957
:101F3000487108460079C97801EB810100EB410046
:101F400000EB4000314951F830002F4988601020E3
:101F500000F0FAFCC8B100202B49487101208870BC
:101F600000BF80F3138800BF00BFBFF34F8F284826
:101F7000006800F4E06027490843001D2449086018
:101F8000BFF34F8F00BF00BFFEE7012000F0DCFC75
:101F900098B11D48407980B901201B494871084615
:101FA0000079C97801EB810100EB410000EB4000B2
:101FB000164951F830001449886010BD0EB5164816
:101FC000007801280BD115480078401C134908708F
:101FD0000A2269461148007800F002F90FE00E4825
:101FE00090F90000401C50B90D480078401C0C4985
:101FF00008700A2269460A48007800F0F1F80EBD20
:10200000000C024000180040982E00201C00002008
:102010000CED00E00000FA056E09002070090020B8
:1020200071090020012802D0022802D100E001E05D
:1020300000E000BF00BF7047401C7047704710B5FC
:102040005548807830B100205349887042F2FF0033
:10205000FFF7CCFB51A205216420FFF7CDF9002446
:1020600023E04D48C07800EB800004EB400000EB1B
:1020700040004E4901EBC000007900B917E0464826
:10208000C07800EB800004EB400000EB4000474BC1
:1020900003EBC000021D04EB8400800000F1280166
:1020A0003220FFF7A9F9601CC4B20A2CD9DB00BFAB
:1020B0003948407868B13848C07828B93CA2DC215A
:1020C0000846FFF799F904E03CA2DC210846FFF737
:1020D00093F900240AE004EB8400800000F1280159
:1020E00039A2B420FFF788F9601CC4B20A2CF2DBD5
:1020F0002948007900EB8000800000F1280133A21C
:10210000B420FFF779F910BD70B524A20521642031
:10211000FFF772F9192500240DE004EB4400234970
:1021200001EBC000007900B907E01B480078401CB3
:1021300019490870641CAC42EFDB00BF16480078F8
:102140000A2803DD01201449487002E000201249EA
:102150004870FFF774FF70BD10B542F2FF00FFF743
:1021600045FB0D4800790C49C97801EB810100EB72
:10217000410000EB40000D4901EBC000021D32217F
:102180006420FFF739F912A250216420FFF734F9D7
:1021900010BD704700BFFEE7982E002046756E63A5
:1021A00074696F6E20536C65637400001C0000201E
:1021B0004E4558542D2D3E5061676500506167654E
:1021C0003C2D2D4E45585400202000003E3E00007E
:1021D00052756E696E672E2E2E2E2E2E0000000078
:1021E0002DE9F04F8BB081460C4692462822BAA1C9
:1021F00001A80AF07CFA0026BAF10A0F09D1B9F158
:10220000000F06DAC9F100072D223046761C225451
:1022100000E04F4600BFB7FBFAF00AFB107001A9BF
:102220000A5C3046761C2254B7FBFAF7002FF2D135
:102230000020A05520782D2802D14FF0010801E0A0
:102240004FF0000845460CE014F805B0701E4044FD
:10225000401B205C6055701E4044401B04F800B0D9
:102260006D1C701E00EBD071B5EB610FECDD2046EC
:102270000BB0BDE8F08F2DE9F0412DED0A8B90B049
:10228000B0EE408AF0EE608A04460D46202108A890
:102290000AF046FA202168460AF042FA51EC180B7F
:1022A0000AF019FC074638460AF0F7FB41EC1A0B16
:1022B00053EC182B0AF00DFB41EC190B0A2208A96C
:1022C0003846FFF78DFF002C2BDD20460AF0E5FB9A
:1022D00041EC1C0BB0EE4C1AF0EE6C1A9FED880B23
:1022E0000AF002FEB0EE40BAF0EE60BA53EC192BE1
:1022F00051EC1B0B0AF0F0FA41EC1A0BB0EE4A0A53
:10230000F0EE6A0A0AF0E4FDB0EE409AF0EE609A50
:1023100051EC190B0AF0DFFB80460A226946FFF7F1
:102320005FFF08A80AF013FA06462E2008A9885570
:10233000694608A80AF0FFF908A928460AF01CFA1D
:10234000284610B0BDEC0A8BBDE8F08130B50146DF
:1023500000230022002422E07AB90878302802DD28
:102360000878392802DB08782D2806D10122087860
:102370002D280BD10124491C08E0012A06D1087838
:10238000302802DB0878392800DD0BE0012A05D16E
:102390000878303803EB830500EB4503491C0878C7
:1023A0000028D9D100BF0CB1584230BD1846FCE717
:1023B0000146302903DB392901DC01207047002068
:1023C000FCE70146202901D1012070470020FCE7ED
:1023D00070B52DED088B0546287808B1287820B90E
:1023E0009FED490BBDEC088B70BD002400E0641C20
:1023F000285DFFF7E6FF0028F9D1285D2D2802D1DE
:102400004FF0FF3000E001200646285D2D2802D065
:10241000285D2B2800D1641C9FED3B8B17E0295DC4
:10242000A1F130000AF039FB41EC1A0B9FED340B9F
:1024300053EC102B51EC180B0AF04EFA41EC1B0B2D
:1024400053EC1A2B0AF0A1F941EC180B641C285D1F
:10245000FFF7AEFF0028E2D1285D2E2800D1641CD2
:102460009FED2B9B21E0295DA1F130000AF015FBC7
:1024700041EC1A0B9FED220B53EC102B51EC180B77
:102480000AF02AFA41EC1B0B53EC1A2B0AF07DF9E7
:1024900041EC180B9FED1A0B53EC102B51EC190B60
:1024A0000AF01AFA41EC190B641C285DFFF780FF53
:1024B0000028D8D130460AF0F0FA41EC1B0B53EC5F
:1024C000182B0AF009FA41EC1A0B53EC192B0AF0FD
:1024D00075FA41EC100B85E730313233343536373D
:1024E00038394142434445464748494A4B4C4D4E92
:1024F0004F505152535455565758595A00000000E6
:102500000000000000002440000000000000000067
:10251000000000000000F03F0648804706480047E2
:10252000FEE7FEE7FEE7FEE7FEE7FEE7FEE7FEE783
:10253000FEE7FEE74B260008890100080CB50020E5
:10254000019000908248006840F480308049086023
:1025500000BF7F48006800F4003000900198401CE4
:102560000190009818B90198B0F5A06FF1D17848A2
:10257000006800F4003010B10120009001E000205C
:1025800000900098012846D171484030006840F022
:1025900080506F49403108606E48006840F48040C8
:1025A0006C4908606A480830006869490831086069
:1025B0000846006840F4004008600846006840F49F
:1025C000A05008606448091F0860081F006840F0B8
:1025D0008070091F086000BF5D48006800F000704F
:1025E0000028F9D040F205605C490860584808307E
:1025F000006820F00300564908310860084600686A
:1026000040F00200086000BF51480830006800F048
:102610000C000828F8D14E480830006820F400006B
:102620004B49083108604E484949843108604848A0
:10263000006840F080604649086000BF4448006878
:1026400000F000600028F9D00CBD10B545480068C6
:1026500040F47000434908603D48006840F00100C4
:102660003B49086000203A49083108603848006852
:102670003D490840364908603C48091D0860081F6C
:10268000006820F48020091F0860002030490C31C8
:102690000860FFF753FF4FF000603249803908604F
:1026A00010BD70B500200022022300240221284D15
:1026B00008352D6805F00C0020B1042806D0082844
:1026C00034D107E02A4D2B4E356033E02A4D294E98
:1026D00035602FE01E4D2D1D2D68C5F380541C4D17
:1026E0002D1D2D6805F03F0154B1234DB5FBF1F5CB
:1026F000174E361D3668C6F3881605FB06F209E04C
:102700001B4DB5FBF1F5124E361D3668C6F3881623
:1027100005FB06F20E4D2D1D2D68C5F301456D1C00
:102720006B00B2FBF3F5134E356003E0104D114E14
:10273000356000BF00BF064D08352D68C5F3031591
:102740000E4E705D0B4D2D68C5400A4E356070BD54
:10275000003802400070004008544007003C02402E
:102760008040003088ED00E0FFFFF6FE10300024CE
:102770000024F4007409002000127A007809002077
:1027800032490143324A1160704770B5002100237D
:102790000F22C4781CB32E4C246804F4E064C4F502
:1027A000E064C4F30721C1F10404E3B20A414478B0
:1027B0009C40E1B28478144021430C07210E254C43
:1027C00005786155047804F01F050124AC400578B4
:1027D0006D11AD0005F1E025C5F8004109E0047870
:1027E00004F01F050124AC401B4D0678761145F816
:1027F000264070BD194A0A400243154B1B1F1A6040
:10280000704739B1124A121D12680243104B1B1D4A
:102810001A6006E00E4A121D126882430C4B1B1D03
:102820001A607047042808D14FF0E021096941F08F
:1028300004014FF0E022116107E04FF0E021096947
:1028400021F004014FF0E022116170470000FA0509
:102850000CED00E000E400E080E100E080FFFF1FFD
:10286000002044490860091D0860091D0860091D11
:10287000086041483F4914310860704700213D49D4
:102880008279002A3AD00A46126803689A430B46B6
:102890001A600A1D126803689A430B1D1A600279B8
:1028A00011440A6803681A430A60324A08321268FF
:1028B00003689A432F4B08331A601A1D1268036885
:1028C0009A432C4B0C331A604279102A0ED11A1FEE
:1028D000126803681A43274B08331A601A1D1268DE
:1028E00003681A43234B0C331A600DE021494279E7
:1028F00011440A6803681A430A6005E0027911442A
:102900000A6803689A430A607047002101600171F8
:102910000C214171002181717047164910310968FD
:102920000143144A10321160704701460020114AD9
:10293000143212680A400AB1012000E000207047FA
:102940000C49143108607047014600200022094BF1
:102950001B6803EA0102074B14331B680B4013B1D9
:102960000AB1012000E000207047024914310860DC
:1029700070470000003C0140FFFF7F0010B5044697
:102980008C48844208D10121084600F000FB002158
:10299000012000F0FCFA5EE08748844208D1012162
:1029A000022000F0F4FA0021022000F0F0FA52E0D8
:1029B0008248844208D10121042000F0E8FA002175
:1029C000042000F0E4FA46E07D48844208D1012169
:1029D000082000F0DCFA0021082000F0D8FA3AE0E4
:1029E0007848844208D10121102000F0D0FA00215B
:1029F000102000F0CCFA2EE07348844208D1012167
:102A0000202000F0C4FA0021202000F0C0FA22E0CB
:102A10006E48844208D10121402000F0B8FA00211C
:102A2000402000F0B4FA16E06948844208D1012140
:102A3000802000F0ACFA0021802000F0A8FA0AE023
:102A40006448844207D10121801500F0A0FA0021DA
:102A5000A01500F09CFA10BDF0B50A460021002335
:102A6000002400BF3DE0012505FA01F3156805EAE1
:102A700003049C4234D105684F000326BE40B54391
:102A8000056015794E00B540066835430560157937
:102A9000012D02D01579022D16D185684F0003262D
:102AA000BE40B543856055794E00B54086683543D4
:102AB0008560456801268E40B54345604568967936
:102AC0008E40B6B235434560C5684F000326BE4010
:102AD000B543C560D5794E00B540C6683543C5607D
:102AE000491C1029BFD3F0BD4FF6FF7101600021D2
:102AF000017141718171C171704708B54FF4803225
:102B00000092009A0A430092009AC261C161009A41
:102B1000C261C2690092C269009208BD02460020EB
:102B200013690B400BB1012000E000207047014603
:102B3000086980B270470246002053690B400BB110
:102B4000012000E0002070470146486980B27047CC
:102B500001837047418370470AB1018300E04183DC
:102B600070474161704742694A4042617047F0B521
:102B7000002300244D07ED0E02FA05F3CE1000F1FC
:102B8000200555F826504E07F70E0F26BE40B543D8
:102B9000CF1000F1200646F82750CE1000F1200596
:102BA00055F8265045EA0304CE1000F1200545F8FB
:102BB0002640F0BD00000240000402400008024030
:102BC000000C0240001002400014024000180240B5
:102BD000001C024000200240FA48006840F001005A
:102BE000F84908600020F74908310860F548006896
:102BF000F5490840F3490860F448091D0860081FBA
:102C0000006820F48020091F08600020ED490C3185
:102C1000086070470021EB4A921C11701146087041
:102C2000704710B501460022002300204A11012AF6
:102C300002D1E44C236808E0022A03D1E14C70344D
:102C4000236802E0DF4C7434236801F01F02012482
:102C500094401C400CB1012000E0002010BD38B5AC
:102C6000002000900024002500BF3120FFF7D9FF8D
:102C700005460098401C00900098B0F5A06F01D068
:102C8000002DF2D03120FFF7CCFF08B1012400E085
:102C90000024204638BD01460020CA4A106820F0B2
:102CA000F80040EAC10010607047C94908607047E9
:102CB0000021C44A703211701170012802D004281A
:102CC0000AD104E00121BF4A7032117005E00521EC
:102CD000BC4A7032117000E000BF00BF7047BD49B0
:102CE0000860704770B5049C41EA82150126C6EB66
:102CF000530645EA0645054345EA0465B14E361DCF
:102D0000356070BDB24908667047820142EA0172BF
:102D1000AC4B84331A607047AD4988667047AC4944
:102D2000C864704702460020A64B0833186820F09C
:102D3000EC6042EA01031843A24B08331860704765
:102D4000024600209F4B0833186820F0784042EA82
:102D5000010318439B4B083318607047014600205D
:102D6000984A0832106820F003000843106070474A
:102D700094480830006800F00C00704701460020BD
:102D8000904A0832106820F0F00008431060704745
:102D9000014600208B4A0832106820F4E0500843B6
:102DA0001060704701460020864A0832106820F4FF
:102DB000604040EAC10010607047F0B50021002279
:102DC00000240225002602237E4F08373F6807F0C3
:102DD0000C0121B1042905D0082937D105E07E4F27
:102DE000076036E07D4F076033E0764F3F1D3F6858
:102DF000C7F38056734F3F1D3F6807F03F036EB126
:102E0000764FB7FBF3F7DFF8BCC10CF1040CDCF82C
:102E100000C0CCF3881C07FB0CF40CE06E4FB7FB32
:102E2000F3F7DFF8A0C10CF1040CDCF800C0CCF320
:102E3000881C07FB0CF4634F3F1D3F68C7F3014735
:102E40007F1C7D00B4FBF5F7076002E0624F07606E
:102E500000BF00BF5B4F08373F6807F0F00109096A
:102E60005F4F7A5C0768D7404760564F08373F6826
:102E700007F4E051890A5A4F7A5C4768D740876067
:102E8000504F08373F6807F46041490B544F7A5C54
:102E90004768D740C760F0BD002100F44072B2F52A
:102EA000407F0AD1474A0832116821F4F8114D4A8F
:102EB00002401143434A08321160424A703212689C
:102EC000C0F30B031A433F4B70331A6070474149FC
:102ED0004439086070473F494039086070474249AB
:102EE0000860704739B1374A303212680243354BB7
:102EF00030331A6006E0334A303212688243314B75
:102F000030331A60704739B12E4A343212680243A6
:102F10002C4B34331A6006E02A4A3432126882435A
:102F2000284B34331A60704739B1264A3832126858
:102F30000243244B38331A6006E0224A38321268C2
:102F40008243204B38331A60704739B11D4A4032F2
:102F5000126802431B4B40331A6006E0194A4032A4
:102F600012688243174B40331A60704739B1154AD3
:102F7000443212680243134B44331A6006E0114A8C
:102F80004432126882430F4B44331A60704739B1A0
:102F90000C4A1032126802430A4B10331A6006E0E2
:102FA000084A103212688243064B10331A60704789
:102FB000E1B1044A143212680243024B14331A601E
:102FC00019E0000000380240FFFFF6FE1030002438
:102FD00000004742800E47420024F40000127A00AD
:102FE00088090020FFFCFF0F5C0147425B4A126822
:102FF00082435A4B1A60704739B1584A121D126801
:103000000243564B1B1D1A6006E0544A121D1268FB
:103010008243524B1B1D1A60704739B14F4A0C3224
:10302000126802434D4B0C331A6006E04B4A0C32D7
:1030300012688243494B0C331A60704739B1474AD2
:10304000103212680243454B10331A6006E0434ABF
:10305000103212688243414B10331A60704739B105
:103060003E4A3C32126802433C4B3C331A6006E055
:103070003A4A3C3212688243384B3C331A607047FC
:1030800039B1364A403212680243344B40331A6039
:1030900006E0324A403212688243304B40331A60B5
:1030A000704739B12D4A4432126802432B4B4433E6
:1030B0001A6006E0294A443212688243274B44339F
:1030C0001A60704739B1254A4C3212680243234BCB
:1030D0004C331A6006E0214A4C32126882431F4B7F
:1030E0004C331A60704739B11C4A5032126802439F
:1030F0001A4B50331A6006E0184A50321268824365
:10310000164B50331A60704739B1144AD21F1278E7
:103110000243124BDB1F1A7006E0104AD21F1278CE
:1031200082430E4BDB1F1A7070470C4860300068FA
:1031300040F0807009496031086070470146002006
:10314000064A083A12680A400AB1012000E000204D
:1031500070470249891F0870704700001438024008
:1031600010B50446F748844208D101218014FFF7C6
:1031700065FF0021A014FFF761FF16E0F2488442CA
:1031800008D101210014FFF748FF00212014FFF7A8
:1031900044FF0AE0ED48844207D10121C013FFF744
:1031A0003CFF0021E013FFF738FF10BD10B50022EF
:1031B000028802F441520B884C8823438C882343B5
:1031C000CC8823430C8923434C8923438C89234394
:1031D000CC8923431A430280838B4FF2FF74234030
:1031E00083830B8A038210BD2DE9F04F0025022353
:1031F0000024012700220026944690469146B0F80C
:103200001CA04FF2400B0AEA0B0AA0F81CA04FF0DA
:10321000020AA0F820A0858BD1F808A0BAF1020F0D
:1032200001D100BF6CE0B1F804A0BAF1000F01D1E8
:10323000012700E00227DFF818A3DAF800A00AF45B
:10324000000ABAF1000F09D0DFF804A3DAF800A0F1
:103250002AF4000ADFF8F8B2CBF800A0DFF8F0A2F9
:103260000AF17C0ADAF800A0CAF38818DFF8E0A2B5
:103270000AF17C0ADAF800A0CAF30279DFF8D0A2DA
:10328000AAF1040ADAF800A00AF03F0CDFF8C4A2A1
:10329000BAFBFCFA0AFB08FABAFBF9F6B1F806A089
:1032A000BAF5007F0ED14FEA162A0AEB8A0A4FEAD6
:1032B0004A0AD1F808B0BAFBFBFA0AF1050A1FFA6C
:1032C0008AF20FE04FEA471AB6FBFAFA0AEB8A0ACB
:1032D0004FEA4A0AD1F808B0BAFBFBFA0AF1050A2C
:1032E0001FFA8AF24FF00A0AB2FBFAF202F0010466
:1032F000A2EB040ACAF34F034FF6FF7A0AEA04244A
:10330000022B01DBFF2B01DD02230024B1F806A014
:103310004AEA040A4AEA030AA0F820A0B1F804A085
:10332000B1F80CB04AEA0B0AB1F802B04AEA0B0A4B
:10333000B1F800B04AEA0B0A4AF4006A4AEA050505
:103340008583BDE8F08F0021018041808180C180AC
:10335000018141818181C181072101827047002162
:10336000018041808180C1800221816000218181B2
:10337000704721B1028842F04002028004E00288D6
:103380004FF6BF731A400280704721B1828B42F41E
:103390008062828304E0828B4FF6FF331A4082837F
:1033A000704702884FF2FF731A40028002880A4376
:1033B00002807047B1F5804F04D1028842F4804208
:1033C000028004E002884BF6FF731A4002807047C7
:1033D0004FF6FF62914204D0028842F4807202806C
:1033E00004E002884FF6FF631A400280704721B163
:1033F000828842F00402828004E082884FF6FB73E8
:103400001A408280704721B1828842F01002828087
:1034100004E082884FF6EF731A408280704730B51F
:1034200000220023848B4FF240052C408483022429
:103430000484828B0C88B4F5007F01D00C8814B909
:103440004FF4807308E00C88B4F5407F03D00C88FB
:10345000B4F5807F00D100238C888D892C434D8862
:103460002C431C4344F400642243828330BD014654
:10347000888970478181704721B1028842F40052E7
:10348000028004E002884DF6FF731A400280704704
:10349000018841F4805101807047024600200129D3
:1034A00001D0108B00E0908A70470146088A70476F
:1034B0001AB183880B43838002E083888B43838027
:1034C000704730B5002400230C110125A540ABB294
:1034D0001AB185881D43858002E085889D438580DB
:1034E00030BD0246002013890B400BB1012000E0E3
:1034F00000207047CA4302817047F0B502460020A1
:1035000000240023002501F00F070126BE40B4B2BD
:103510000B1101269E40B3B2968806EA0305168970
:10352000264016B10DB1012000E00020F0BD10B51D
:10353000002201F00F040123A3409AB2D343038178
:1035400010BD00000030014000380040003C004049
:103550000838024000127A0010B501218803FFF7F5
:103560006DFD00214FF48040FFF768FD10BD1A4942
:103570000860704730B500228B071C0F0F2303FA39
:1035800004F2154B08338C1053F824309343124C3B
:1035900008348D1044F8253023468C1053F824301D
:1035A0008C07240F00FA04F423430B4C08348D10CD
:1035B00044F8253030BD0949086070470849086063
:1035C0007047002004492031096801F4807109B175
:1035D000012000E00020704700380140DC00274255
:1035E0000004274210B50446FE48844208D1012158
:1035F0000846FFF723FD00210120FFF71FFD9DE096
:10360000B4F1804F08D101210846FFF706FD0021E3
:103610000120FFF702FD91E0F348844208D1012127
:103620000220FFF7FAFC00210220FFF7F6FC85E0FC
:10363000EE48844208D101210420FFF7EEFC00216E
:103640000420FFF7EAFC79E0E948844208D101212F
:103650000820FFF7E2FC00210820FFF7DEFC6DE008
:10366000E448844208D101211020FFF7D6FC002154
:103670001020FFF7D2FC61E0DF48844208D101212D
:103680002020FFF7CAFC00212020FFF7C6FC55E0F0
:10369000DA48844208D101210220FFF7CFFC002143
:1036A0000220FFF7CBFC49E0D548844209D1012133
:1036B0000804FFF7C3FC00214FF48030FFF7BEFC85
:1036C0003CE0D048844209D101214804FFF7B6FC10
:1036D00000214FF40030FFF7B1FC2FE0CA488442CC
:1036E00009D101218804FFF7A9FC00214FF48020B3
:1036F000FFF7A4FC22E0C548844208D10121402004
:10370000FFF78BFC00214020FFF787FC16E0C04844
:10371000844208D101218020FFF77FFC0021802016
:10372000FFF77BFC0AE0BB48844207D101218015EA
:10373000FFF773FC0021A015FFF76FFC10BD0022FE
:103740000288A84B98420ED0AC4B98420BD0B0F1F7
:10375000804F08D0A44B984205D0A44B984202D089
:10376000A34B984204D14FF68F731A404B881A43EB
:10377000A04B984207D0A04B984204D04FF6FF438D
:103780001A400B891A4302804B68C3620B88038579
:10379000944B984202D0994B984201D18B7A038680
:1037A0000123838270474FF0FF3141600021018087
:1037B00001814180817270470185828270470A468B
:1037C000002101884FF68F73194011430180704723
:1037D00041627047C16270470146486A70470146BE
:1037E000088D704721B1028842F00202028004E095
:1037F00002884FF6FD731A400280704721B102889B
:1038000042F00402028004E002884FF6FB731A4083
:103810000280704721B1028842F08002028004E0F9
:1038200002884FF67F731A400280704702884FF675
:10383000F7731A40028002880A43028070470288A8
:103840004FF6FF431A40028002880A430280704705
:1038500021B1028842F00102028004E002884FF6A2
:10386000FE731A400280704770B5002400220023C6
:10387000058C4FF6FE7635400584028C8388048BD8
:103880004FF68F752C40B51E2C400D882C43751EAD
:103890002A408D892A434D882A43524DA84202D09E
:1038A000564DA84213D14FF6F7752A40CD892A43C9
:1038B0004FF6FB752A408D882A434FF6FF652B4053
:1038C0004FF6FF552B400D8A2B434D8A2B438380A7
:1038D00004838D684563028470BD70B500240022A6
:1038E0000023058C4FF6EF7635400584028C8388E3
:1038F000048B48F6FF752C404FF6FF452C400D8891
:103900004FF6FF7606EA05252C434FF6DF752A4071
:103910008D8906EA05152A434D8806EA05152A43CE
:10392000304DA84202D0354DA8421DD14FF67F75CB
:103930002A40CD894FF6FF7606EA05152A434FF651
:10394000BF752A408D8806EA05152A434FF6FF35D4
:103950002B404FF2FF752B400D8A06EA85052B435D
:103960004D8A06EA85052B43838004838D68856331
:10397000028470BD70B5002400220023058C4FF630
:10398000FF6635400584028C8388848B4FF68F75E3
:103990002C404FF6FC752C400D882C434FF6FF55FC
:1039A0002A408D894FF6FF7606EA05252A434D8881
:1039B00006EA05252A430B4DA84202D00F4DA84226
:1039C00038D14FF2FF752A40CD894FF6FF7606EACF
:1039D00005252A434FF6FF352A408D8806EA05253E
:1039E0002A4319E0000001400004004000080040A4
:1039F000000C004000100040001400400004014092
:103A000000400140004401400048014000180040CF
:103A1000001C0040002000404EF6FF752B404DF684
:103A2000FF752B400D8A06EA05152B434D8A06EAE1
:103A300005152B43838084838D68C563028470BD24
:103A400070B5002200230024058C4EF6FF76354029
:103A50000584038C8488828B48F6FF752A404FF6D4
:103A6000FF452A400D884FF6FF7606EA05252A43D2
:103A70004DF6FF752B408D8906EA05352B434D88A1
:103A800006EA05352B43FE4DA84202D0FD4DA84263
:103A900008D14BF6FF752C400D8A4FF6FF7606EAEB
:103AA00085152C43848082838D680564038470BDF2
:103AB000002101804180818081608181C1810182FA
:103AC0004182704770B50346002000241846183024
:103AD00001258D40ACB21D8CA5431D8409B1082978
:103AE0000AD100EB610005684FF68F76354005601E
:103AF0000568154305600FE00D1FC5F34E0528440A
:103B0000056848F6FF763540056005684FF6FF7694
:103B100006EA02263543056070BD41637047816344
:103B20007047C1637047016470470A460021018BEA
:103B30004FF68F7319401143018370470A460021E5
:103B4000018B48F6FF7319404FF6FF7303EA022317
:103B50001943018370470A460021818B4FF68F730A
:103B600019401143818370470A460021818B48F632
:103B7000FF7319404FF6FF7303EA02231943818351
:103B800070470A460021018B4FF6F7731940114325
:103B9000018370470A460021018B4FF2FF731940E1
:103BA0004FF6FF7303EA02231943018370470A4665
:103BB0000021818B4FF6F7731940114381837047C1
:103BC0000A460021818B4FF2FF7319404FF6FF73B5
:103BD00003EA02231943818370470A460021018BBF
:103BE0004FF6FB7319401143018370470A460021C9
:103BF000018B4FF6FF3319404FF6FF7303EA0223A0
:103C00001943018370470A460021818B4FF6FB73ED
:103C100019401143818370470A460021818B4FF67A
:103C2000FF3319404FF6FF7303EA022319438183E0
:103C300070470A460021018B4FF67F7319401143EC
:103C4000018370470A460021018BC1F30E014FF634
:103C5000FF7303EA02231943018370470A460021D8
:103C6000818B4FF67F7319401143818370470A4659
:103C70000021818BC1F30E014FF6FF7303EA02238B
:103C80001943818370470A460021018C4FF6FD736A
:103C900019401143018470470A460021018C4FF6F8
:103CA000F77319401143018470470A460021018CC3
:103CB0004FF6DF7319404FF6FF7303EA02131943FF
:103CC000018470470A460021018C4FF67F7319402A
:103CD0004FF6FF7303EA02131943018470470A4643
:103CE0000021018C4FF6FF5319404FF6FF7303EA92
:103CF00002231943018470470A460021018C4FF2C8
:103D0000FF7319404FF6FF7303EA0223194301843E
:103D100070470A460021018C4DF6FF7319404FF69B
:103D2000FF7303EA023319430184704730B500235F
:103D300001248C40A3B2048C9C430484048C02FABA
:103D400001F5ADB22C43048430BD30B5002304240A
:103D50008C40A3B2048C9C430484048C02FA01F5C9
:103D6000ADB22C43048430BD828B4FF2FF331A4036
:103D70008283828B4FF6FF7303EA01231A43828307
:103D80007047F0B50C461546002100220026078C2E
:103D90004EF6FF7C07EA0C070784818B028C4FF6F6
:103DA000FF7707EA043640F6FF4739404FF6FF77C2
:103DB00007EA052739434FF6FF7707EA0337394308
:103DC00045F6FF773A4046F480573A4381830284B0
:103DD000F0BD828B4FF6F3731A408283828B0A43C5
:103DE00082837047F0B50C4615460021002200265C
:103DF000078C4FF6FF6C07EA0C070784818B028C57
:103E00004FF6FF7707EA04264FF60C7739404FF656
:103E1000FF7707EA03172F4339434FF2FF573A4022
:103E200046F480773A4381830284F0BD028B4FF2DF
:103E3000FF331A400283028B4FF6FF7303EA01231C
:103E40001A4302837047F0B50C4615460021002244
:103E50000026078C4FF6EF7C07EA0C070784018BDE
:103E6000028C4FF6FF7707EA041640F6FF47394009
:103E70004FF6FF7707EA033739434FF6FF7703E042
:103E8000000001400004014007EA052739434FF6CE
:103E90005F773A4046F010073A4301830284F0BD51
:103EA000028B4FF6F3731A400283028B0A4302839C
:103EB0007047F0B50C46154600210022068C4FF6DF
:103EC000FE773E400684018B028C4FF60C76314023
:103ED0007E1C06EA03162E4331434FF6F576324038
:103EE00044F00106324301830284F0BD70B50546FB
:103EF0000C46208850B92389A28861882846FFF79C
:103F0000D8FFE1882846FFF7CBFF25E0208804286A
:103F10000AD12389A28861882846FFF794FFE188A7
:103F20002846FFF783FF17E0208808280AD1238955
:103F3000A28861882846FFF755FFE1882846FFF7E9
:103F400048FF09E02389A28861882846FFF719FF06
:103F5000E1882846FFF708FF70BD002101804180FD
:103F6000012181800021C180018170472DE9F0414C
:103F700005460C4600260127608808B9022600E0A5
:103F80000026A088012801D1022700E0012720880F
:103F9000A0B92389A28861882846FFF78AFFE188B3
:103FA0002846FFF77DFF23893A4631462846FFF72A
:103FB0004AFFE1882846FFF739FF13E02389A288EA
:103FC00061882846FFF73FFFE1882846FFF72EFF6C
:103FD00023893A4631462846FFF76BFFE188284699
:103FE000FFF75EFFBDE8F0810146486B7047014670
:103FF000886B70470146C86B70470146086C704774
:104000000A884B881A438B881A43CB881A430B893A
:104010001A434B891A438B891A43A0F844207047EE
:104020000021018041808180C180018141818181A5
:10403000704731B1B0F8442042F40042A0F8442067
:1040400005E0B0F84420C2F30E02A0F84420704707
:1040500021B1828842F00402828004E082884FF617
:10406000FB731A408280704721B1828842F00102BE
:10407000828004E082884FF6FE731A408280704787
:104080001AB183890B43838102E083898B43838147
:1040900070478182704702460020138A0B400BB1A3
:1040A000012000E000207047CA430282704730B50B
:1040B0000246002000230024158A05EA01039589A1
:1040C00005EA010413B10CB1012000E0002030BD6D
:1040D000CA430282704741EA0203A0F848307047A1
:1040E0001AB183890B43838102E083898B438381E7
:1040F000704721B1828842F00802828004E0828801
:104100004FF6F7731A408280704701894FF6F872B4
:104110001140018170470A46002101894FF68F73D3
:10412000194011430181704730B504460D462946B8
:104130002046FFF7F0FF208940F00700208130BDC6
:104140002DE9F04104460D4616461F46602D06D166
:104150003B46012231462046FFF775FE05E03B460F
:10416000012231462046FFF7A4FE29462046FFF7EC
:10417000D2FF208940F007002081BDE8F08130B5F2
:104180000C4600210189C9B24FF6FF7505EA0325E7
:10419000154325432943018130BD2DE9F0410546F2
:1041A0000E4617469846002443463A46314628466E
:1041B000FFF7E5FF2C894FF6F870044044F0070440
:1041C0004FF68F70044044F070042C81BDE8F081FC
:1041D000F0B504460D4616461F463B463246294674
:1041E0002046FFF7CCFF208940F480402081F0BDBD
:1041F00082884FF68F731A40828082880A438280B9
:10420000704702894FF6F8731A40028102890A4307
:104210000281704702894FF67F731A40028102893A
:104220000A4302817047F0B50C4615461E46002130
:10423000002200230189028B038C4FF6F877394066
:1042400021434FF6FC473A4040F201173A434FF6FC
:10425000DD773B404FF6FF7707EA06172F433B43D6
:10426000018102830384F0BD21B1828842F0800283
:10427000828004E082884FF67F731A408280704704
:10428000A0F850107047000010B50446F74884426B
:1042900008D101211020FEF7D1FE00211020FEF7E9
:1042A000CDFE3EE0F248844209D101214804FEF7E8
:1042B000B4FE00214FF40030FEF7AFFE31E0ED48D0
:1042C000844209D101218804FEF7A7FE00214FF4A2
:1042D0008020FEF7A2FE24E0E748844209D10121B4
:1042E000C804FEF79AFE00214FF40020FEF795FE69
:1042F00017E0E248844209D101210805FEF78DFE4E
:1043000000214FF48010FEF788FE0AE0DC4884426A
:1043100007D101212020FEF791FE00212020FEF789
:104320008DFE10BD2DE9FF4705460E460024A1462F
:1043300000BFA046B08900B100BF2C8A24F44054CD
:10434000F08804432C82AC8941F20C608443B0882D
:1043500031890843718908430443AC81AC8A24F451
:104360004074B0890443AC826846FEF726FDBF481E
:10437000854202D0C248854202D1DDF80C9001E0AE
:10438000DDF80890A88900F4004040B109EBC900AD
:1043900000EB091031684900B0FBF1F707E009EBC9
:1043A000C90000EB091031688900B0FBF1F7642007
:1043B000B7FBF0F004012009642101FB1078A88903
:1043C00000F4004040B1322000EBC800B0FBF1F037
:1043D00000F00700044308E0322000EB08106421DD
:1043E000B0FBF1F000F00F0004432C81BDE8FF8723
:1043F0004FF41651016000218180C18001810C21A0
:10440000418100218181704710B502460020108A49
:1044100020F470600B884C8823438C882343CC881D
:1044200023431843108210BD002101804180818008
:10443000C180704721B1828942F40052828104E038
:1044400082894DF6FF731A4082817047028B02F415
:104450007F420283028B0A430283704721B1828923
:1044600042F40042828103E08289C2F30E0282811B
:10447000704721B1828A42F40062828204E0828A1B
:104480004FF2FF731A4082827047C1F308028280A4
:10449000704701468888C0F308007047028A4FF6CB
:1044A000F0731A400282028A0A430282704721B1E5
:1044B000828942F00202828104E082894FF6FD7314
:1044C0001A408281704782894FF2FF731A408281BD
:1044D00082890A4382817047028A4FF6DF731A404D
:1044E0000282028A0A430282704721B1028A42F4A0
:1044F0008042028204E0028A4BF6FF731A40028275
:104500007047818941F001018181704721B1828A20
:1045100042F00802828204E0828A4FF6F7731A4062
:1045200082827047028BD2B20283028B42EA01225E
:104530000283704721B1828A42F02002828204E025
:10454000828A4FF6DF731A408282704721B1828AD5
:1045500042F01002828204E0828A4FF6EF731A4022
:1045600082827047828A4FF6FB731A408282828A67
:104570000A438282704721B1828A42F0020282821B
:1045800004E0828A4FF6FD731A40828270471AB1A6
:10459000838A0B43838202E0838A8B438382704742
:1045A000F0B50346002400260025002040F66A17D7
:1045B000B94200D100BF1846C1F3421401F01F06F2
:1045C000012707FA06F5012C01D10C3004E0022C7A
:1045D00001D1103000E014301AB107682F43076092
:1045E00002E00768AF430760F0BD02460020B1F566
:1045F000007F00D100BF13880B400BB1012000E009
:104600000020704701F40072B2F5007F00D100BFB6
:10461000CA430280704770B502460024002300257B
:10462000002040F66A16B14200D100BFC1F3421526
:1046300001F01F03012606FA03F3012D02D196892A
:10464000334006E0022D02D1168A334001E0968AFB
:1046500033400C12012606FA04F41688344013B1D4
:104660000CB1012000E0002070BD000000100140EE
:104670000044004000480040004C00400050004012
:104680000014014010B50022002340F66A14A14234
:1046900000D100BF0A1201249440A3B2DC4304807D
:1046A00010BD000010B5002400BF00BF00F054F999
:1046B000044600BF00BF1021A24800F0FAFA00BF74
:1046C00000BF204600F04CF900BF00BF10BD10B580
:1046D000FFF7E8FF10BD10B500209B490860FCF70C
:1046E0002CFC10BD10B5FFF7F6FFFFF7F0FF10BD73
:1046F00000BFFEE770B505460C46002614B900BFA2
:10470000FFF7F6FF15B90A20208070BD00BF00BF7B
:1047100000F022F9064600BF00BF10228949284652
:1047200000F0A6FB00BF00BF304600F019F900BF43
:1047300000BF0020208000BFE7E72DE9F0410546DB
:104740000C46002714B900BFFFF7D2FF1DB90A209D
:104750002080BDE8F0811021284600F071FB06465C
:10476000102E15D200BF00BF00F0F6F8074600BFBC
:1047700000BF10222946734800F07AFB00BF00BF3B
:10478000384600F0EDF800BF00BF0020208002E0B6
:104790004FF47A70208000BFDBE710B5FCF7E3FB35
:1047A0000446204610BD704700B5014611B900BF50
:1047B000FFF79EFF644A106808B1002201E04FF441
:1047C000FA620A8000BD60490860704770B505460E
:1047D000284600F0CCF80446183C204670BD70B561
:1047E0000546284600F0C3F80446103C204670BD3C
:1047F00070B50546284600F0BAF8044600BF2046CA
:1048000070BD30B502460B464FF0FF350024AD1A9F
:104810009C4127D24FF0FF352C0CAD1A9C410FD292
:104820004FF0FF352C0AAD1A9C4103D2190E474CAC
:10483000605C45E0190C454C645C04F108003FE005
:104840004FF0FF35FF24AD1A9C4105D2190A3F4CA9
:10485000645C04F1100033E019463C4C645C04F1E4
:1048600018002DE04FF6FF750024AD1A9C4115D2BB
:104870006FF07F450024AD1A9C4107D2140E44EA24
:104880000321324C645C04F1200019E0140C44EA6A
:1048900003412E4C645C04F1280011E0FF25002444
:1048A000AD1A9C4107D2140A44EA0361274C645CA8
:1048B00004F1300004E01146244C645C04F138003B
:1048C00030BD70B504460CB9082070BD204600F01C
:1048D00051F805462846F8E770B504460CB9102093
:1048E00070BD204600F046F805462846F8E770B54A
:1048F00004460CB9202070BD204600F03BF8054668
:104900002846F8E72DE9F04304460D46002184EAE5
:1049100001006940084302D14020BDE8F083E24332
:10492000E843521C40F1000102EA040601EA0507CF
:1049300030463946FFF765FF8046C8F13F094846D3
:10494000EBE70000A42E002098090020ECDC000812
:1049500072B6704762B67047EFF3108072B6704758
:1049600080F31088704730BF704720BF7047B0FA9F
:1049700080F0704790FAA0F0B0FA80F0704790FA9B
:10498000A0F070470146412903DB5A2901DC0122CE
:1049900000E00022012A08D0612903DB7A2901DC2A
:1049A000012200E00022012A01D1012200E00022C0
:1049B000104670470146412903DB5A2901DC0122D8
:1049C00000E00022012A08D0612903DB7A2901DCFA
:1049D000012200E00022012A01D1012200E0002290
:1049E000012A08D0302903DB392901DC012200E04B
:1049F0000022012A01D1012200E000221046704766
:104A00000146612903DB7A2901DC012200E0002252
:104A1000104670470146412903DB5A2901DC012277
:104A200000E00022104670470146302903DB392997
:104A300001DC012200E000221046704701463029C7
:104A400003DB372901DC012200E000221046704719
:104A50000146302901DB392907DD412901DB4629DF
:104A600003DD612903DB662901DC012200E000226D
:104A7000104670470146202901D0092901D10122A1
:104A800000E00022104670470146202909D00D2978
:104A900007D00A2905D00C2903D0092901D00B29F8
:104AA00001D1012200E00022104670470146202972
:104AB00003DB7E2901DC012200E000221046704762
:104AC0000146212903DB7E2901DC012200E00022CE
:104AD000104670470146202903DB7E2901DC0122B4
:104AE00000E00022012A35D1202909D00D2907D064
:104AF0000A2905D00C2903D0092901D00B2901D19D
:104B0000012200E000222ABB412903DB5A2901DCF3
:104B1000012200E00022012A08D0612903DB7A2962
:104B200001DC012200E00022012A01D1012200E083
:104B30000022012A08D0302903DB392901DC0122B7
:104B400000E00022012A01D1012200E000220AB97E
:104B5000012200E000221046704701464AB2002AB6
:104B600001DB1F2901DD7F2901D1012200E00022A4
:104B7000104670470146412903DB5A2901DC012216
:104B800000E00022012A02D101F1200200E00A46E1
:104B9000D0B270470146612903DB7A2901DC01228A
:104BA00000E00022012A02D1A1F1200200E00A4621
:104BB000D0B27047F0B504460B462046FFF7EAFF37
:104BC00005461846FFF7E6FF0646B54201D101202B
:104BD00000E0002007463846F0BD000070B50446EE
:104BE000002500BF00BFFFF7B7FE054600BF00BFAE
:104BF0001848046000BF00BF2846FFF7B1FE00BFA1
:104C000000BF70BD10B50120FFF7E8FF10BD0146E1
:104C100043F23902104B03FB012222F0004070479F
:104C200070B5002600BF00BFFFF796FE064600BF26
:104C300000BF084805682846FFF7E9FF0446054815
:104C4000046000BF00BF3046FFF78AFE00BF00BF10
:104C5000204670BD9C0900206D4EC64170472DE96D
:104C6000F04105460B4694460027002402E03F022F
:104C70001F43641C042CFAD3604605F00306294642
:104C800046B1344603E001F8013B401E641C08B104
:104C9000042CF8D30A4601E080C2001F0428FBD28E
:104CA000114602E001F8013B401E0028FAD1BDE8A0
:104CB000F08130B505460C46224600212846FFF714
:104CC000CEFF30BD2DE9F04F85B0074688469146AE
:104CD00046463D46AE4207D94A464146384600F070
:104CE00045FD05B0BDE8F08F4C4607EB0900451EB9
:104CF00008EB0900461EA81B04900498042834D32E
:104D000005F00300029006F003010191DDE90110B6
:104D1000884201D1012000E0002000900098012885
:104D200023D10298032810D0029840B2039008E0E3
:104D300016F8010905F80109641E0398401E40B2E7
:104D4000039014B103980028F2DAA5F1030AA6F142
:104D5000030B04E05BF804094AF80409241F042C3F
:104D6000F8D20AF103050BF1030604E016F8010975
:104D700005F80109641E002CF8D100BFB1E72DE948
:104D8000F84F80468946154615B90120BDE8F88FD1
:104D9000B8F1000F01D10020F8E7B9F1000F01D1FF
:104DA0000020F3E70124294608EB050209EB05037F
:104DB00002F0030C03F0030BDC4501D1012000E0FD
:104DC000002000900098012829D1BCF1000F12D0DA
:104DD000E2460AE0521E5B1E107893F800E0704530
:104DE00000D00024491EAAF1010A012C03D111B1FF
:104DF000BAF1000FEED1012C11D116461F4608E082
:104E0000361F3F1F3068D7F800E0704500D00024FF
:104E1000091F012C01D10429F2D232463B4608E099
:104E2000521E5B1E107893F800E0704500D00024FD
:104E3000491E012C01D10029F2D12046A6E700002D
:104E400010B502460B461146002001E0491C401CEB
:104E500019B10C780CB19842F8D310BD30B50446A6
:104E60004FF0FF312046FFF7EBFF0546284630BDE7
:104E700070B504460D4616460CB9002070BD0DB93C
:104E80000020FBE721462A46002304E01078087042
:104E9000491C521C5B1C21B11AB1107808B1B342F5
:104EA000F4D301B10AB90020E8E7B34201D20020EF
:104EB00008702046E2E770B504460D464FF0FF3219
:104EC00029462046FFF7D4FF0646304670BD70B530
:104ED00003460C4615460BB9002070BD0CB90020E6
:104EE000FBE70DB91846F8E7194600E0491C11B177
:104EF00008780028FAD109B90020EEE722460026FA
:104F000004E010780870491C521C761C21B11AB1BB
:104F1000107808B1AE42F4D301B10AB90020DCE741
:104F2000002008701846D8E770B504460D464FF0CB
:104F3000FF3229462046FFF7CAFF0646304670BDBD
:104F40002DE9F04305460B469446BCF1000F02D113
:104F50000020BDE8F08335B90BB90020F9E71878D7
:104F600042421046F5E713B92A781046F1E7294680
:104F70001C460F4626467F1C761C4FF0000805E0B5
:104F8000491C641C7F1C761C08F10108087894F801
:104F90000090484505D1087818B117B10EB1E04529
:104FA000EED3E04501D10020D3E7087894F80090D3
:104FB000484505D0087894F80090A0EB09020BE072
:104FC000087808B9002207E02FB90EB9002203E0E3
:104FD0003078424200E03A781046BAE770B50446AD
:104FE0000D464FF0FF3229462046FFF7A9FF06463F
:104FF000304670BD2DE9F74F82B080460E460498CA
:1050000018B9002005B0BDE8F08FB8F1000F09D144
:105010000EB90020F6E73078FFF7ACFD07467C427A
:105020002046EFE73EB998F80000FFF7A3FD0546DC
:105030002C462046E6E7C146B246C846C346564619
:10504000CDF804A0D8460BF1010B019E701C019015
:10505000C84699F80000FFF78DFD054656469AF8B8
:105060000000FFF787FD07460020009015E009F1DA
:1050700001090AF1010A0BF1010B0198401C019092
:105080000098401C009099F80000FFF773FD05465A
:105090009AF80000FFF76EFD0746BD420BD199F864
:1050A000000040B1BBF1000F05D0019818B1049980
:1050B00000988842DBD304990098884201D10020EF
:1050C000A0E7BD4201D0EC1B16E00DB9002413E0AF
:1050D000BBF1000F0AD1019808B900240CE0019936
:1050E0000878FFF747FD07467C4205E09BF8000083
:1050F000FFF740FD05462C46204683E770B5044681
:105100000D464FF0FF3229462046FFF773FF064653
:10511000304670BD30B504460B4615460CB900202C
:1051200030BD0BB90020FBE72146002201E0491CFD
:10513000521C31B1087820B10878A84201D09A42B7
:10514000F5D309B90020EBE79A4201D30020E7E745
:105150000878A84201D00020E2E70846E0E770B5F1
:1051600005460C4622464FF0FF312846FFF7D2FF96
:105170000646304670BD2DE9F04305460E461746FB
:1051800015B90020BDE8F0830EB90020FAE72C46DF
:10519000A6F1010949462046FFF752FE80464444E5
:1051A0000CB90020EEE700E0641EAC4202D020788B
:1051B000B842F9D12078B84201D00020E2E7204679
:1051C000E0E770B505460C4622464FF0FF31284611
:1051D000FFF7D1FF0646304670BD70B504460D4658
:1051E00016460CB9002070BD0BB90020FBE7214624
:1051F0001A4605E00878A84200D10E70491C521EDC
:1052000019B1087808B1002AF4D12046EBE7F0B5CF
:1052100004460D4616464FF0FF33324629462046D7
:10522000FFF7DBFF07463846F0BD2DE9FF4F064686
:105230000F4615461EB9002004B0BDE8F08F0FB927
:105240000020F9E70DB90020F6E7681C00B101E085
:105250004FF0FF30039029463046FFF7F1FD8046BE
:1052600038460399FFF7ECFD04460CB93046E3E7F6
:10527000444501D90020DFE706EB080BBBF1000F26
:1052800001D10020D8E707EB040BBBF1000F01D1DF
:105290000020D1E7A8EB040002904FF000090020A5
:1052A000019000BF06EB09000090224639460098A5
:1052B000FFF746FE8246BAF1000F01D1012000E05F
:1052C0000020019009F10109019810B90298814567
:1052D000E8D9BAF1000F01D00020ADE70098ABE7A4
:1052E00070B504460D464FF0FF3229462046FFF7C1
:1052F0009CFF0646304670BD2DE9FF4F8DB00F462E
:1053000015461A9E1D9818B9002011B0BDE8F08FFF
:10531000002003900490012F01DA01200390022D58
:1053200001D3242D01D90120039096B33046FFF715
:10533000BDFB02900298012802D00120039028E0D2
:10534000302E26D0A6F13000C0B207901B9801285D
:1053500004D0A6F14100C0B2069003E0A6F16100BE
:10536000C0B206900A2D02D80798A84209DB0A2D80
:1053700009D907980A2804D3A5F10A00069988429A
:1053800001D9012000E0002005900598012800D1F6
:1053900003901D9C0398002846D1DDF834A0DDF869
:1053A00034A0CDF830A001200B9007E00B98401CF2
:1053B000C0B20B900C98B0FBF5F00C900C98A84282
:1053C000F4D21098012800D100E0002009900B9938
:1053D00009980844B84225DC002001900B98B84297
:1053E00001DA0B9800E038460A903EB1B8460A98B8
:1053F000391A0998081AC0B2089006E0DDE90910C8
:10540000084400F0FF08002008900898002806DDF6
:10541000302E01D1012000E00020049004E00020A3
:10542000049001E001200390039800B1B846444481
:105430001C9808B100202070641E4FF0000941E064
:105440000398A8BBBAF1000F02D1B9F1000F1CD12B
:10545000BAFBF5F005FB10A000F0FF0BBBF10A0F43
:1054600004D20BF1300004F801090BE01B9801286D
:1054700004D00BF1370004F8010903E00BF15700E9
:1054800004F80109BAFBF5FA1AE01098012810D1C6
:10549000049808B9019828B1049850B1A8F1010006
:1054A000484506D12D2004F801090120019007E0AC
:1054B00003E02EB104F8016902E03F2004F801097D
:1054C00009F10109C145BBD3039808B100201CE7CD
:1054D0001D981AE72DE9FF5F05460E4617461C4644
:1054E000DDE90F9ADDF8388000233A463146284638
:1054F0008DE81007FFF700FF8346584604B0BDE86B
:10550000F09F2DE9FF4F85B0044689461F46DDE92F
:1055100013AB002C02DA6542012601E02546002685
:1055200012983346CDE902ABCDE9007049462846D2
:10553000079AFFF7E1FE8046404609B0BDE8F08FCC
:105540002DE9FF4F8BB0064689461546B9F1000F8D
:1055500002D10DF1240900BFC9F80060189810B9F4
:1055600007A8189000BF0021189801701EB90020EC
:105570000FB0BDE8F08F012D01D0242D01D90020FE
:10558000F6E734462078FFF77FFA039004E0641CC6
:105590002078FFF779FA039003980128F7D0207854
:1055A0002B2802D02D280BD103E0641C4FF0000BF8
:1055B00009E00E98012800D1641C4FF0010B02E0B5
:1055C0004FF0000B00BF00BF0A9425B1082D1CD07E
:1055D000102D36D11EE02078302814D1641C20789C
:1055E000582802D078280BD100BF1025677838469C
:1055F000FFF72EFA8246BAF1010F00D1641C01E0D8
:10560000082500BF00E00A251CE02078302800D1E2
:10561000641C17E02078302812D1641C20785828A8
:1056200002D078280AD100BF67783846FFF710FA11
:105630008246BAF1010F00D1641C00E000BF00BF38
:1056400000E000BF00BF4FF0000800200290019072
:1056500040E027783846FFF7ADF905900598012816
:1056600036D13846FFF7E0F906900698012804D1B4
:10567000A7F13000C0B208900FE03846FFF7C0F93C
:1056800004900498012804D1A7F15700C0B20890F3
:1056900003E0A7F13700C0B208900898A84214DAD6
:1056A000029880B9304850F82500404509D308FBDE
:1056B00005F8089880440898804504D2012002909B
:1056C00001E001200290641C04E00120019001E04F
:1056D0000120019001980028BBD00298012801D137
:1056E0004FF0FF380A98844202D0C9F8004001E028
:1056F000C9F80060189880F800B0404638E7F8B55F
:1057000004460D46164600200346324629460090C0
:105710002046FFF715FF07463846F8BD2DE9FC4146
:1057200005460E46174601A801233A463146009029
:105730002846FFF705FF04469DF8040040B9B4F180
:10574000004F02D36FF0004000E02046804607E0A3
:10575000B4F1004F02D34FF0004000E060428046B9
:105760004046BDE8FC810000F0DD0008002800D1C3
:105770007047002900D17047002A00D170472DE9F9
:10578000F81F00F0030301F00304A34211D1C3F199
:10579000040303F00303012B1DD3012A00D2F2E01E
:1057A00011F8014B00F8014BA3F10103A2F1010232
:1057B000F1E700F0010301F00104A34200D094E0FE
:1057C000012B44D311F8014B00F8014BA3F1010365
:1057D000A2F10102F4E7B2F5B47F26D3B1E8F81FD5
:1057E000A0E8F81FB1E8F81FA0E8F81FB1E8F81F1B
:1057F000A0E8F81FB1E8F81FA0E8F81FB1E8F81F0B
:10580000A0E8F81FB1E8F81FA0E8F81FB1E8F81FFA
:10581000A0E8F81FB1E8F81FA0E8F81FB1E8F81FEA
:10582000A0E8F81FA2F5B472D5E7282A06D3B1E89C
:10583000F81FA0E8F81FA2F12802F6E7042A06D311
:1058400051F8043B40F8043BA2F10402F6E7202A99
:1058500042D331F8023B20F8023B31F8023B20F8FA
:10586000023B31F8023B20F8023B31F8023B20F8C2
:10587000023B31F8023B20F8023B31F8023B20F8B2
:10588000023B31F8023B20F8023B31F8023B20F8A2
:10589000023B31F8023B20F8023B31F8023B20F892
:1058A000023B31F8023B20F8023B31F8023B20F882
:1058B000023B31F8023B20F8023B31F8023B20F872
:1058C000023B31F8023B20F8023B31F8023B20F862
:1058D000023BA2F12002BAE7022A06D331F8023BCA
:1058E00020F8023BA2F10202F6E7102A42D311F897
:1058F000013B00F8013B11F8013B00F8013B11F8B6
:10590000013B00F8013B11F8013B00F8013B11F8A5
:10591000013B00F8013B11F8013B00F8013B11F895
:10592000013B00F8013B11F8013B00F8013B11F885
:10593000013B00F8013B11F8013B00F8013B11F875
:10594000013B00F8013B11F8013B00F8013B11F865
:10595000013B00F8013B11F8013B00F8013B11F855
:10596000013B00F8013B11F8013B00F8013BA2F1BB
:105970001002BAE7012A06D311F8013B00F8013BF7
:10598000A2F10102F6E7BDE8F81F7047704700007A
:10599000002419E000BF00BFFEF7DEFF044600BF91
:1059A00000BFFB480068401CF9490860F9480068DE
:1059B000401CF849086000BF00BF2046FEF7D0FF3A
:1059C00000BF00BF06F03EFDE4E710B58AB0044614
:1059D0000020EF4908600B2000210591CDE9070464
:1059E00006910846EC490968EC4A1268EC4B1B68C2
:1059F000CDE90132CDE903103F200023AFF26F0261
:105A0000E8A10090EC4804F010FC0AB010BD0021A1
:105A10000AE001EB4102E94B03EB82000022028124
:105A2000026042604A1CD1B24029F2D3704770B57F
:105A3000044606F00FFD0020E1490870E1490870B6
:105A4000E1490870E1490860E1490860E1490870EE
:105A5000E1490870E1490870E1490870E1480068CF
:105A60000A21B0FBF1F0E0490860E048006858B155
:105A7000DF48056845B1DD48066803E0761E002072
:105A800028602D1D002EF9D10020DA490860DA497E
:105A90000860DA490860DA490860DA490860DA49DA
:105AA0000860DA490860DA49087002F031FFFFF750
:105AB000AEFF204601F0B9FD208800B170BD204640
:105AC00002F0CDF8208800B1F8E7204602F0D6F8C1
:105AD000208800B1F2E7204602F006FF208800B1DE
