:020000040800F2
:10000000888900200D270008F1080008F30800087F
:10001000F7080008FB080008FF08000800000000BF
:1000200000000000000000000000000003090008BC
:10003000050900080000000023D00008E3C70008FD
:100040002727000827270008272700082727000858
:100050002727000827270008350B00084B0B00084E
:100060000D0C0008C90C0008DF0C00082727000849
:100070002727000827270008272700082727000828
:100080002727000827270008272700082727000818
:100090002727000827270008272700082727000808
:1000A00027270008272700082727000827270008F8
:1000B000930A0008D30A0008170B00082727000836
:1000C00027270008272700082727000827270008D8
:1000D0002727000809090008A70900083B0A0008AB
:1000E00027270008272700082727000827270008B8
:1000F00027270008272700082727000827270008A8
:100100002727000827270008272700082727000897
:100110002727000827270008272700082727000887
:100120002727000827270008272700082727000877
:100130002727000827270008272700082727000867
:100140002727000827270008272700082727000857
:100150002727000827270008272700082727000847
:100160002727000827270008272700082727000837
:100170002727000827270008272700082727000827
:100180002727000827270008DFF80CD00CF0A0FE76
:10019000004800471B0800088889002008B5684609
:1001A0000CF0F9F902F0AAF802E0322001F01EF892
:1001B000FBE703E04FF4967001F018F8FAE700004F
:1001C00070B52DED048B04460D46287804EB8401B0
:1001D000FE4A02EB81010874012004EB840102EB6A
:1001E0008101C872002604EB8400114601EB8000F7
:1001F000007C082802D0092827D11DE06878304407
:1002000086B2A87806EB002086B230460CF050FD8E
:1002100041EC190B9FEDEE0B53EC102B0CF056FC40
:1002200041EC180B0CF070FD04EB8401E74A02EB83
:100230008101C968088008E0687804EB8401E34A1A
:1002400002EB8101C968088000BF00BFBDEC048BD0
:1002500070BDF8B50646E0A000680090102E00DBE7
:10026000F8BD34462046E11704EB5171C1F3C705D0
:100270001DF805204FF40051D84802F067FDA4EBAB
:10028000C500C4B22046E11704EB91718D101DF832
:1002900005204FF48051D14802F058FDA4EB8500B1
:1002A000C4B2204604EBD0714D101DF805204FF468
:1002B0000061CA4802F04AFDA4EB4500C4B22546DD
:1002C0001DF805204FF48061C44802F03FFD012174
:1002D000C34802F039FD00BFC2E7C04A14321268B9
:1002E00091B24FF6C0721140082801DA014305E0CF
:1002F000A0F1080290B241EAC00291B2B74A1432AA
:10030000116070471CB50121042002F0E5FE3F207A
:10031000009001208DF8040000208DF806000320D5
:100320008DF8050000208DF807006946AB4802F003
:100330008DFC1CBD1CB50121022002F0CDFE012167
:10034000042002F0C9FE012000908DF80400002076
:100350008DF8060003208DF8050001208DF80700B8
:1003600069469F4802F072FC01219D4802F0EAFCB8
:100370004FF47050009001208DF8040000208DF89B
:10038000060003208DF8050000208DF8070069465F
:10039000924802F05BFC1CBD1CB50121102002F04C
:1003A0009BFE904802F0E4FB4FF6FF7000900020A7
:1003B0008DF804008DF8060003208DF8050002205A
:1003C0008DF807006946874802F040FC1CBD0EB559
:1003D000FFF7E2FFFFF7AEFFFFF794FF814802F05F
:1003E000A0FC8149088002AB002280A1844809F06A
:1003F00016F802AB002283A1874809F010F800200C
:1004000086490880864908800121754802F09AFCD7
:100410000021012001F0E1FC0021022001F0DDFCBF
:100420000021032001F0D9FC0021042001F0D5FCBB
:1004300001220A21104601F037FD01226E2102201F
:1004400001F032FD01228221032001F02DFD022264
:1004500040F6B831042001F027FD20E071484079D2
:1004600010B901F0E6FE01E001F070FF6D4840793F
:1004700018B16C498868804708E002A8002164230D
:100480000A46CDE9001008460BF0C2FE02A8002182
:1004900001230A46CDE9001008460BF0B9FEDDE75E
:1004A0002DE9FE4304464FF0000801214C4802F0BC
:1004B00049FC4C4802F035FC4B4908802046E117C6
:1004C00004EB5171C1F3C706012E06DB002240F296
:1004D0002551554804F05EF905E0012240F225510E
:1004E000514804F057F9012E06DB012240F2255154
:1004F0004E4804F04FF905E0002240F225514B48E8
:1005000004F048F902AA00213D4809F017FB02AAAD
:100510000021414809F012FB0120A040324909881E
:100520000840002850D02046FFF7D7FE00203C4965
:1005300008803A490880012E01DB314800E0364846
:100540003B4908602046FFF784FE0121244802F061
:10055000F9FB02A800231A461221009034480068D3
:1005600009F07BF8012E01DB324800E032480746F3
:10057000BDF80800F8B997F80080012505E0785D1E
:10058000404400F0FF08681CC5B2052DF7DB785D1C
:10059000404506D100F07EFD39462046FFF710FEAB
:1005A00004E000201E4908801C49088000201C49E6
:1005B00008801A490880BDF8080045F6C4518842F1
:1005C00041D102AB002239E046E00000042D0020BA
:1005D000000000000000B93F0001000000080240D8
:1005E00000040240001002400800002055736172B0
:1005F00074325265636572766553656D0000000064
:10060000940A002055736172743152656365727685
:100610006553656D00000000580A002006000020A8
:10062000040000204C2F0020001001400044004036
:1006300000000020BC0A0020800A002007A10B480F
:10064000006808F0ECFE02A8002101230A46CDE96B
:10065000001008460BF0DCFDBDE8FE8355736172A7
:10066000745265636572766553656D000000002005
:100670002DE9F0472DED048B4FF0000A0020FFF725
:100680000FFF0620FFF70CFF29A29621084600F075
:100690009FFF2948028B9621BE2000F0DBFB27A29A
:1006A0006421962000F094FF234802886421BE2034
:1006B00000F0D0FB2048008B04B21F48008805B230
:1006C0006119C1F500600CF0E2FA41EC190B9FEDE5
:1006D0001D0B53EC102B0CF0F9F941EC180B0CF03E
:1006E000F4FA0646601B00EB8007A6EB070806EB52
:1006F000070940F6C410804501DD804604E018F18A
:10070000C80F01DA6FF0C70840F6C410814501DD5B
:10071000814604E019F1C80F01DA6FF0C709BDEC9A
:10072000048BBDE8F08710B50020FFF7B9FE10BDBF
:100730004C45465400000000442E002052494748D2
:1007400054000000333333333333F33F00B58BB001
:100750000AA8032100220823CDE90532CDE90710BC
:10076000104699013322404BCDE90132CDE9031007
:100770003C2000233D4A3EA10090414809F04FFE35
:100780000AA8032100220592CDE90621089010460F
:100790004FF4806166223B4BCDE90132CDE9031075
:1007A00003200023384A39A100903E4809F037FE63
:1007B0000BB000BD0EB500F0BBFB04F08DF800F0EF
:1007C00002FC04F045FB04F017FB02A809F07EFAD6
:1007D00035A214215A2000F0FBFE39A232216E20EE
:1007E00000F0F6FE02A800210B460222CDE900101F
:1007F00008460BF00DFD42F2FF0001F0EFF8FFF7A5
:10080000A5FF09E002A800214FF4FA730A22CDE9FE
:10081000001008460BF0FCFCF4E700B58FB00AA806
:1008200002F0C5FB0EA805F0FCF90EA8032100227A
:100830000592CDE90621089010464FF4007133224D
:10084000244BCDE90132CDE9031002200023224AD6
:1008500022A10090254809F0E2FD0EA805F05BFCFE
:1008600000200FB000BD0000042500209D010008FD
:10087000417070205461736B20475549000000009F
:10088000482400208C0B0020CF030008417070200A
:100890005461736B204461746520436F6E6E6563B1
:1008A00074656400D00A00204D6163726F626F74DA
:1008B00020746563686E6F6C6F67792000000000BC
:1008C000557365642042792053747564656E742095
:1008D00000000000481C0020B5070008417070208F
:1008E0005461736B20537461727400008C1B002080
:1008F000704700BFFEE700BFFEE700BFFEE700BF96
:10090000FEE770477047704738B505F014FAF948AC
:1009100003F0B9FE0546F848008814282DDAF64899
:10092000008808B9002403E0F3480078401EC4B2F0
:10093000FA2D19D1F148005DA02815D1EE480288A2
:100940000088401CEC4B1880EC4885540020EB4993
:10095000C8742021E74803F04FFF6A464FF4007146
:10096000E74809F0A3F817E0E34802880088401C34
:10097000E14B1880E14885540EE0DF48008840F4E0
:100980000040DD4908800020DC49C8746A464FF405
:100990000071DB4809F08AF82021D64803F02CFFCB
:1009A00005F0DAF938BD38B505F0C5F9D54803F0DA
:1009B0006AFE0546D448008814282DDAD2480088FB
:1009C00008B9002403E0D0480078401EC4B2FA2DD4
:1009D00019D1CE48005DA02815D1CB4802880088E7
:1009E000401CC94B1880C94885540020C749C874A9
:1009F0002021C44803F000FF6A464FF40071C44848
:100A000009F054F812E0C04802880088401CBE4B30
:100A10001880BE48855409E02021BA4803F0ECFE56
:100A20006A464FF40071BA4809F040F82021B548F1
:100A300003F0E2FE05F090F938BD10B505F07BF942
:100A4000B44803F020FE0446B3480088C7280BDAF8
:100A50000020B2490860B04802880088401CAE4BB4
:100A60001880AF4884540DE0AB48008840F4004043
:100A7000A94908800020AA4981F8C7002021A5487B
:100A800003F0BAFE2021A34803F0B6FE05F064F996
:100A900010BD08B505F04FF90121880703F001FCEE
:100AA00080B100209549944A128888549248008861
:100AB00040F40040904908806A464FF40071904825
:100AC00008F0F4FF0121880703F0FCFB05F044F96E
:100AD00008BD08B505F02FF901219048243803F02E
:100AE000E0FB80B100208949874A128888548648F3
:100AF000008840F40040844908806A464FF4007141
:100B0000834808F0D3FF01218448243803F0DAFB3E
:100B100005F022F908BD10B505F00DF90121814855
:100B200003F0BFFB01217F4803F0CCFB05F014F973
:100B300010BD704710B505F0FEF801F0E7FA01208E
:100B400002F00DF805F008F910BD10B505F0F3F846
:100B5000FF2400E000BF2000A4F10101CCB2F9D1D4
:100B6000022001F0DCFF00284AD002216E4802F08A
:100B7000CFF860B904216C4802F0CAF8012806D108
:100B80006A48006820F004006849086038E00221E3
:100B9000654802F0BDF8012832D10421624802F014
:100BA000B7F868BB6248407920B961480079401EB7
:100BB0005F4908715E480079F0281BDD01205C491F
:100BC00088700846C07880B9084600780A2806DD93
:100BD0000120C870084600780B3808710AE05448B4
:100BE0000078401E5249087104E000205049C87046
:100BF000092008714D48006840F004004B49086026
:100C0000022001F0ACFF05F0A7F810BD10B505F00B
:100C100092F8FF2400E000BF2000A4F10101CCB253
:100C2000F9D1042001F07BFF002847D004213E4881
:100C300002F06EF860B902213B4802F069F8012821
:100C400006D13A48006820F002003849086035E0D3
:100C50000421354802F05CF801282FD102213248E6
:100C600002F056F850BB3248407920B9304800793C
:100C7000401C2F4908712E4800790A2805DB012005
:100C80002B49C870887000200871294800792849CC
:100C9000C97801EB810100EB4100254909788842C0
:100CA00006DB00202249C8700120887000200871EE
:100CB0001E48006840F002001C490860042001F052
:100CC0004EFF05F049F810BD10B505F034F801F0FD
:100CD0001DFA082001F043FF05F03EF810BD10B5E5
:100CE00005F029F801F012FA102001F038FF05F0A4
:100CF00033F810BD0010014004000020800A0020DD
:100D0000580A00200044004006000020BC0A0020D1
:100D1000940A002000480040720200202404004091
:100D2000842E002000080040000C0240043C0140DA
:100D30004C2F0020102900DD704700BFFCE7002089
:100D40000AE02D4901EB800100EB80022B4B03EB05
:100D50008202D160411CC8B21028F2DB704770B526
:100D600004460D4628460BF0ECFDC6B2002E09DD08
:100D70000A2E07DA04EB8401204A02EB810029469F
:100D80000BF0F4FD002004EB84011C4A02EB81010E
:100D9000C87270BD70B50546002415E004EB8400F0
:100DA000164A02EB800128460BF0D2FD50B92046CE
:100DB000FFF776FB04EB8400104901EB8000C0686C
:100DC000008870BD601CC4B2102CE7DB0020F8E77F
:100DD00010B50446601E102801DB002010BD611E06
:100DE000C8B2FFF75DFB601E00EB8000034901EB1A
:100DF0008000C0680088F1E7442E0020042D002008
:100E000010B50446022C04DC4FF0804000F00CFECC
:100E100002E0084800F008FE10BD10B50446012CA1
:100E200003D1054800F0F6FE02E0044800F0F2FEAF
:100E300010BD00000004004000080040000C00400D
:100E400070B504460D46164632462946204600F047
:100E5000BFFB70BDFEB505460E4614460027002CAC
:100E600001DA644201272AA23146284600F0B0FB8D
:100E7000012F07D12AA23146284600F0A9FB05F12F
:100E80000800C5B20A226946204601F0A3FA6A4664
:100E90003146284600F09CFBFEBD70B52DED048B5D
:100EA00086B004460D46B0EE408A0026B5EEC08AF4
:100EB000F1EE10FA06D29FED1B0A30EE480AB0EEB2
:100EC000408A012618A22946204600F081FB012E07
:100ED00007D113A22946204600F07AFB04F108004E
:100EE000C4B218EE100A0BF028FF41EC190B01A94F
:100EF0000220B0EE490AF0EE690A01F0B6FA01AA42
:100F00002946204600F064FB06B0BDEC048B70BDA2
:100F10002020202020202020202020200000000051
:100F20002D000000000000002020202020200000D4
:100F300010B50121080302F0CFF84FF4806001F0F2
:100F400019FD01F0A1F800F029FD00F085F8FFF788
:100F5000F6FE42F2FF0000F041FD0120FFF750FFD6
:100F60000220FFF74DFF0320FFF74AFF0420FFF7A1
:100F700047FF0120FFF751FF0120FFF74EFF01203F
:100F8000FFF74BFF0120FFF748FF0220FFF745FF67
:100F90000220FFF742FF0220FFF73FFF0220FFF78A
:100FA0003CFF00F03DF900F0AFF910BD10B54FF473
:100FB000407001F0DFFC10BD1FB5684601F0F7FF7F
:100FC000019804B010BD70B5FFF7F6FF04461E4847
:100FD0000068B4FBF0F528460BF01DFC70BD10B5A1
:100FE000FFF7EAFF04461948006840F0807017498F
:100FF00008600020164948600846006840F001007B
:101000000860204603F0D9FC10BD114948687047BC
:101010002DE9F0478246FFF7CFFF4FF000098046E9
:101020000C4A0023404649460BF02AFC064632464D
:101030000B46504600210BF023FC04460D4620468B
:101040002946BDE8F0870000D4E00008FCED00E090
:10105000001000E040420F001CB50121082002F002
:101060003BF84FF48060009001208DF804000020D0
:101070008DF8060003208DF8050000208DF807008C
:101080006946104801F0E2FD4FF480610D4801F01F
:1010900059FE1CBD10B54FF480610A4801F05DFE99
:1010A00010BD38B5044608A000680090022C00DB93
:1010B00000241DF804204FF48061024801F046FE30
:1010C00038BD0000000C024001000000F8B50646E3
:1010D0000C4615466B4622462946304608F09FF9D5
:1010E000BDF8000008B10020F8BD0120FCE77CB588
:1010F00005460C464FF47A70604340490968B0FBDE
:10110000F1F601A800231A4631460090284608F05F
:10111000A4FABDF8040008B100207CBD0120FCE762
:1011200038B504466A460021204608F0BFFCBDF8E9
:10113000000008B1002038BD0120FCE738B50446A6
:101140000D466A462946204606F0B9FFBDF8000064
:1011500008B1002038BD0120FCE77CB505460C46EF
:101160004FF47A70604325490968B0FBF1F601A895
:1011700000231A4631460090284607F0B3F9BDF81F
:10118000040008B100207CBD0120FCE738B504460E
:101190006A460021204607F087FBBDF8000008B131
:1011A000002038BD0120FCE7FEB5044642F2107075
:1011B000844200D90446B4F57A7F0BD34FF47A7099
:1011C000B4FBF0F086B24FF47A70B4FBF0F100FBA0
:1011D000114501E0A5B2002602A800212B463246A7
:1011E000CDE9001008460BF013F8FEBD38B50446F3
:1011F0006A46002120460AF093FF38BDD4E000087B
:1012000008B525208DF8000000208DF801008DF82C
:10121000020001208DF80300684601F0B0FB08BD14
:1012200000B587B0364803F029F90121084601F0DE
:1012300053FF0121102001F093FF072209213148BB
:1012400001F08FFD07220A212E4801F08AFD4FF49C
:10125000C060059002208DF8190000208DF81A005A
:1012600001208DF81B0002208DF8180005A92548E3
:1012700001F0ECFC4FF4E13001900020ADF80800E3
:10128000ADF80A00ADF80C00ADF810000C20ADF878
:101290000E0001A91A4803F03FF90121184803F094
:1012A000C3F9012240F22551154803F073FA402199
:1012B000134803F0A1FAFFF7A3FF07B000BD10B574
:1012C00004460BE014F8011B0D4803F0D8F900BFE9
:1012D00040210B4803F083FA0028F9D02078002839
:1012E000F0D110BD10B504462146054803F0C7F9FA
:1012F00000BF4021024803F072FA0028F9D010BD67
:10130000001001400000024000B587B03B4803F0E8
:10131000B5F80121082001F0DFFE0121480401F0A9
:101320000EFF07220521364801F01BFD072206218A
:10133000334801F016FD6020059002208DF8190059
:1013400000208DF81A0001208DF81B0002208DF876
:10135000180005A92A4801F079FC4FF4E13001900A
:101360000020ADF80800ADF80A00ADF80C00ADF8AB
:1013700010000C20ADF80E0001A9204803F0CCF8B5
:1013800001211E4803F050F9012240F225511B486B
:1013900003F000FA4021194803F02EFA26208DF8B8
:1013A000000001208DF801008DF802008DF8030087
:1013B000684601F0E4FA07B000BD10B504460BE042
:1013C00034F8021B0D4803F05AF900BF40210B48C6
:1013D00003F005FA0028F9D020880028F0D110BDCC
:1013E00010B504462146054803F049F900BF4021E5
:1013F000024803F0F4F90028F9D010BD0044004081
:10140000000C024010B5044600BF0221FE4802F065
:1014100062F90028F9D02146FB4802F025F900BF07
:101420000121F94802F057F90028F9D0F64802F0F6
:1014300018F910BD10B504464FF40061F34801F0EF
:1014400081FCC4F30720FFF7DDFFE0B2FFF7DAFF0E
:1014500010BD10B504464FF40061EC4801F074FC77
:101460002046FFF7CFFF10BD10B504464FF40061D2
:10147000E64801F067FC2046FFF7C4FF10BD2DE9E8
:10148000F04104460D4616461F462A20FFF7E1FFAD
:10149000C4F30720FFF7E8FFE0B2FFF7E5FFC6F36C
:1014A0000720FFF7E1FFF0B2FFF7DEFF2B20FFF789
:1014B000D0FFC5F30720FFF7D7FFE8B2FFF7D4FF4F
:1014C000C7F30720FFF7D0FFF8B2FFF7CDFF2C20BE
:1014D000FFF7BFFFBDE8F08170B504460D462B460F
:1014E000224629462046FFF7CAFFC9480088FFF771
:1014F000A1FF70BD2DE9FF5F05460F461646AA46BF
:10150000C348B0F800B0B5F5997F01DAEE2F01DDE0
:10151000BDE8FF9FA6F12000C6B207F10F03EA1D48
:1015200039462846FFF7ABFF039858BB002426E056
:1015300004EB0610B74911F800904FF0000816E0D0
:1015400009F0010018B1B248A0F800B003E0B248B9
:101550000088AF490880AE480088FFF76BFF4FEA6C
:101560006909681C85B208F1010000F0FF08B8F1B4
:10157000080FE5DB5546781C87B2601CC4B2102CFE
:10158000D6DB20E000241CE004EB0610A14911F892
:1015900000904FF000080FE009F0010030B13A1957
:1015A00091B205EB080290B2FFF796FF4FEA690986
:1015B00008F1010000F0FF08B8F1080FECDB601C37
:1015C000C4B2102CE0DB9248A0F800B000BF9FE747
:1015D00070B505460E46144615E0B5F5997F03DB58
:1015E000002506F1100086B2EE2E02DD0020054631
:1015F00006462278002331462846FFF77BFF05F197
:10160000080085B2641C20780028E6D170BD014630
:1016100006E0002002E000BF421CD0B20628FADB40
:101620000A00A1F1010399B2F3D1704710B5024647
:1016300000BF002108E0002002E000BF431CD8B238
:101640000A28FADB4B1CD9B2FE29F4DB1300A2F105
:101650000104A2B2EDD110BD1CB50121022001F0A0
:101660003BFD0121084601F037FD4FF4805000900A
:1016700001208DF8040000208DF8060001208DF86F
:10168000070000208DF805006946644801F0DEFA85
:101690004FF48051614801F055FB4FF41060009009
:1016A00001208DF8040000208DF8060001208DF83F
:1016B000070000208DF805006946544801F0C6FA7D
:1016C0004FF48071514801F03DFB1CBD00B587B05F
:1016D0000121880301F033FD0121022001F0FCFC0F
:1016E00005220D214D4801F03CFB05220E214B48FF
:1016F00001F037FB05220F21484801F032FB0220A0
:101700008DF8180000208DF81A0001208DF81B00BC
:1017100000208DF819004FF46040059005A93F485E
:1017200001F094FA384801F015FE0020ADF80000F1
:10173000ADF804000220ADF806000120ADF8080065
:101740004002ADF80A000020ADF80C00ADF80E0024
:101750000720ADF810004FF48270ADF80200694622
:10176000294801F01DFE0121274801F0FCFE07B0C9
:1017700000BD70B504460D46E0B2FFF76AFE28468C
:10178000FFF758FE70BD10B5CB20FFF762FE392081
:10179000FFF76AFE2C20FFF767FE0020FFF764FECC
:1017A0003420FFF761FE0220FFF75EFECF20FFF737
:1017B00050FE0020FFF758FEC120FFF755FE3020F5
:1017C000FFF752FEE820FFF744FE8520FFF74CFEAE
:1017D0000020FFF749FE7820FFF746FEEA20FFF7DA
:1017E00038FE0020FFF740FE0020FFF73DFEED2011
:1017F000FFF72FFE6420FFF737FE0320FFF734FECC
:101800001220FFF731FE0BE00038004000000240DC
:1018100074020020780300207602002000040240B9
:101820008120FFF721FEF720FFF713FE2020FFF7AE
:101830001BFEC020FFF70DFE2320FFF715FEC12081
:10184000FFF707FE1020FFF70FFEC520FFF701FE90
:101850003E20FFF709FE2820FFF706FEC720FFF70E
:10186000F8FD8620FFF700FE3620FFF7F2FD282066
:10187000FFF7FAFD3A20FFF7ECFD5520FFF7F4FDE6
:10188000B120FFF7E6FD0020FFF7EEFD1820FFF77F
:10189000EBFDB620FFF7DDFD0820FFF7E5FD822018
:1018A000FFF7E2FD2720FFF7DFFDF220FFF7D1FD74
:1018B0000020FFF7D9FD2620FFF7CBFD0120FFF721
:1018C000D3FDE020FFF7C5FD0F20FFF7CDFD312050
:1018D000FFF7CAFD2B20FFF7C7FD0C20FFF7C4FD63
:1018E0000E20FFF7C1FD0820FFF7BEFD4E20FFF7D9
:1018F000BBFDF120FFF7B8FD3720FFF7B5FD07204E
:10190000FFF7B2FD1020FFF7AFFD0320FFF7ACFD9E
:101910000E20FFF7A9FD0920FFF7A6FD0020FFF725
:10192000A3FDE120FFF795FD0020FFF79DFD0E20B0
:10193000FFF79AFD1420FFF797FD0320FFF794FDB2
:101940001120FFF791FD0720FFF78EFD3120FFF7F3
:101950008BFDC120FFF788FD4820FFF785FD08209B
:10196000FFF782FD0F20FFF77FFD0C20FFF77CFDC6
:101970003120FFF779FD3620FFF776FD0F20FFF7C6
:1019800073FD1120FFF765FD6420FFF74FFE29204E
:10199000FFF75FFD2C20FFF75CFD10BD10B5FFF7D2
:1019A0005BFEFFF793FE7820FFF740FE4FF4807157
:1019B0001B4801F0C9F97820FFF738FE4FF4807119
:1019C000174801F0BFF9E620FFF730FE4FF48051D1
:1019D000144801F0B9F9FFF7D6FE10BD2DE9F0412A
:1019E0000446271204F0FF08FD234FF4A0720021E3
:1019F0000846FFF744FD00250DE0002607E03846C5
:101A0000FFF732FD4046FFF72FFD701C86B2FE2E19
:101A1000F5DB681C85B2B5F5A07FEEDDBDE8F08191
:101A2000000002400004024010B58AB004460121C3
:101A3000022001F084FB0121084601F080FB012116
:101A4000022001F049FB3220059001208DF818009A
:101A500000208DF81A0003208DF8190000208DF861
:101A60001B0005A9F74801F0F1F81021F54801F035
:101A700069F9F54884422FD10121042001F02CFBA3
:101A80004FF47070059003208DF8190002208DF836
:101A9000180000208DF81A0001208DF81B0005A900
:101AA000EA4801F0D3F802220621E84801F059F98A
:101AB00002220721E54801F054F902220821E348F7
:101AC00001F04FF902220921E04801F04AF9022110
:101AD000DC4801F037F944E0B4F1804F41D10121F5
:101AE000032001F0F9FA4FF40040059003208DF82F
:101AF000190002208DF8180000208DF81A0001202E
:101B00008DF81B0005A9D24801F0A0F840F6084066
:101B1000059003208DF8190002208DF81800002090
:101B20008DF81A0001208DF81B0005A9C54801F0A9
:101B30008DF801220F21C64801F013F9012203217B
:101B4000C04801F00EF901220A21BE4801F009F94E
:101B500001220B21BB4801F004F92021B94801F012
:101B6000F3F80021204601F06DFF07A801F015FFF2
:101B70000020ADF81C004FF47A6008900020ADF80A
:101B80002400ADF81E0007A9204601F0D2FE602017
:101B9000ADF800000120ADF8020000200290ADF881
:101BA0000C006946204601F059FF0821204602F04A
:101BB000E2F80120ADF802000020029069462046BC
:101BC00001F085FF0821204602F0DEF80120ADF883
:101BD0000200002002906946204601F0C5FF08215E
:101BE000204602F0DEF80120ADF80200002002904D
:101BF0006946204602F01EF80821204602F0DAF875
:101C00000121204601F000FF0121204601F01AFFCA
:101C10000AB010BD10B58AB004460121042001F0BD
:101C20008EFA0121082001F08AFA0121022001F038
:101C300053FA3220059001208DF8180000208DF80D
:101C40001A0003208DF8190000208DF81B0005A94B
:101C50007C4800F0FBFF10217A4801F073F87D48C2
:101C600084422FD10121022001F036FA4FF4707026
:101C7000059003208DF8190002208DF8180000202F
:101C80008DF81A0001208DF81B0005A96D4800F0A1
:101C9000DDFF022206216B4801F063F802220721D2
:101CA000684801F05EF802220821664801F059F800
:101CB00002220921634801F054F80221614801F031
:101CC00041F830E0644884422DD10121084601F0FA
:101CD00003FA0F20059003208DF8190002208DF8DB
:101CE000180000208DF81A0001208DF81B0005A9AE
:101CF000574800F0ABFF02220021554801F031F8AF
:101D000002220121524801F02CF8022211465048CB
:101D100001F027F8022203214D4801F022F820218A
:101D2000484801F011F80021204601F08BFE07A879
:101D300001F033FE2920ADF81C0042F2107008902B
:101D40000020ADF82400ADF81E0007A9204601F0E0
:101D5000F0FD6020ADF800000120ADF802004FF466
:101D60007A7002900020ADF80C006946204601F020
:101D700075FE0120ADF8020040F6B83002906946C9
:101D8000204601F0A4FE0821204601F0FDFF0120BD
:101D9000ADF8020041F2883002906946204601F019
:101DA000E3FE0821204601F0FCFF0120ADF802000F
:101DB0004FF47A6002906946204601F03BFF08210B
:101DC000204601F0F7FF0121204601F01DFE012110
:101DD000204601F037FE0AB010BDB1F57A6F01DD83
:101DE0004FF47A6111F57A6F00DA1C49012806D0A8
:101DF000022815D0032833D0042853D141E000290C
:101E000001DA4A4200E000220F4B34331A60002905
:101E100001DA002200E00A460B4B38331A6041E039
:101E2000002901DD002200E04A42074B3C331A60E2
:101E3000002901DD0A4600E00022034B40331A600E
:101E400030E00000000402400004004000080240AE
:101E50000000024000080040000C004060F0FFFF5E
:101E6000002901DA4A4200E000224FF080435A6321
:101E7000002901DA002200E00A464FF080439A630D
:101E800010E0002901DD002200E04A424FF08043CB
:101E9000DA63002901DD0A4600E000224FF08043AA
:101EA0001A6400BF00BF704710B50346002900DA6E
:101EB00010BD012A0ED116244C4300EE904AB8EE14
:101EC000E00ADFED1A0A70EE200AFCEEE00A10EEDE
:101ED000900A00E00846092B24D2DFE803F023052E
:101EE000080C1014171B1F00114C20601AE0104C36
:101EF000241D206016E00E4C0834206012E00C4CCB
:101F00000C3420600EE00B4C20600BE0094C241DCB
:101F1000206007E0074C0834206003E0054C0C34D7
:101F2000206000BF00BF00BFC2E7000000007A448D
:101F300034080040340C004008B509208DF800003A
:101F400002208DF8010001208DF802008DF80300B9
:101F5000684600F014FD0A208DF8000002208DF87C
:101F6000010000208DF8020001208DF80300684672
:101F700000F005FD06208DF8000003208DF801001B
:101F800000208DF8020001208DF80300684600F063
:101F9000F6FC07208DF8000003208DF801000020DA
:101FA0008DF8020001208DF80300684600F0E7FC80
:101FB00008208DF8000003208DF8010000208DF826
:101FC000020001208DF80300684600F0D8FC08BD2F
:101FD0001CB50321084601F0C7FB08200090002033
:101FE0008DF8040008208DF8050001208DF806000A
:101FF000684600F03DFD0421032001F0B5FB1020F0
:10200000009000208DF8040008208DF805000120C4
:102010008DF80600684600F02BFD0021032001F03A
:10202000A3FB0120009000208DF8040008208DF80B
:10203000050001208DF80600684600F019FD012119
:10204000032001F091FB0220009000208DF8040095
:1020500010208DF8050001208DF80600684600F07C
:1020600007FD0221032001F07FFB042000900020E7
:102070008DF8040010208DF8050001208DF8060071
:10208000684600F0F5FC1CBD00B585B001210820B4
:1020900001F022F80121402001F051F801218803CC
:1020A00001F05EF81F20039000208DF810008DF8DD
:1020B000120003208DF8110001208DF8130003A9F0
:1020C0004B4800F0C3FD00214A4801F0BBFC6846C4
:1020D00001F063FC42F21070ADF800004FF6FF70A3
:1020E00001904FF40070ADF808000020ADF8020038
:1020F0006946404801F01DFC01213E4801F0A2FC68
:10210000FFF766FFFFF718FF05B000BD10B5082008
:1021100000F014FD98B13848407980B90120364963
:10212000487108460079C97801EB810100EB410054
:1021300000EB4000314951F830002F4988601020F1
:1021400000F0FCFC20B100202B4948710120887070
:10215000012000F0F3FC98B12748407980B90120B4
:102160002549487108460079C97801EB810100EBE7
:10217000410000EB4000214951F830001E498860C1
:1021800010BD0EB51E480078012815D11D480078F5
:10219000401C1C4908701CA296210846FFF718FA3B
:1021A0000A2269461748007800F014F96A46962119
:1021B000AA20FFF70DFA19E0114890F90000401C21
:1021C000A0B912480078401C1049087010A2B42130
:1021D0009620FFF7FDF90A2269460C48007800F0C6
:1021E000F9F86A46B421AA20FFF7F2F90EBD000003
:1021F000000C0240001800404C2F00201800002066
:10220000680900206A090020557000006B09002051
:10221000446F776E00000000012802D0022802D12E
:1022200000E001E000E000BF00BF7047401C7047C5
:10223000704710B55548807830B1002053498870F8
:1022400042F2FF00FFF7CAFB51A205216420FFF70D
:10225000BFF9002423E04D48C07800EB800004EB78
:10226000400000EB40004E4901EBC000007900B98E
:1022700017E04648C07800EB800004EB400000EB1C
:102280004000474B03EBC000021D04EB84008000BC
:1022900000F128013220FFF79BF9601CC4B20A2C20
:1022A000D9DB00BF3948407868B13848C07828B9D0
:1022B0003CA2DC210846FFF78BF904E03CA2DC21BC
:1022C0000846FFF785F900240AE004EB840080004B
:1022D00000F1280139A2B420FFF77AF9601CC4B2DA
:1022E0000A2CF2DB2948007900EB8000800000F125
:1022F000280133A2B420FFF76BF910BD70B524A2FA
:1023000005216420FFF764F9192500240DE004EB92
:102310004400234901EBC000007900B907E01B48E5
:102320000078401C19490870641CAC42EFDB00BF08
:10233000164800780A2803DD01201449487002E09D
:10234000002012494870FFF774FF70BD10B542F2CB
:10235000FF00FFF743FB0D4800790C49C97801EBFA
:10236000810100EB410000EB40000D4901EBC00092
:10237000021D32216420FFF72BF912A250216420A4
:10238000FFF726F910BD704700BFFEE74C2F002075
:1023900046756E6374696F6E20536C6563740000DC
:1023A000180000204E4558542D2D3E5061676500A1
:1023B000506167653C2D2D4E45585400202000008B
:1023C0003E3E000052756E696E672E2E2E2E2E2E0A
:1023D000000000002DE9F04F8BB081460C4692467C
:1023E0002822BAA101A80AF07CFA0026BAF10A0F45
:1023F00009D1B9F1000F06DAC9F100072D223046E4
:10240000761C225400E04F4600BFB7FBFAF00AFBEF
:10241000107001A90A5C3046761C2254B7FBFAF70B
:10242000002FF2D10020A05520782D2802D14FF0A6
:10243000010801E04FF0000845460CE014F805B033
:10244000701E4044401B205C6055701E4044401B81
:1024500004F800B06D1C701E00EBD071B5EB610F7D
:10246000ECDD20460BB0BDE8F08F2DE9F0412DEDFD
:102470000A8B90B0B0EE408AF0EE608A04460D46BA
:10248000202108A80AF046FA202168460AF042FAFC
:1024900051EC180B0AF019FC074638460AF0F7FB16
:1024A00041EC1A0B53EC182B0AF00DFB41EC190B05
:1024B0000A2208A93846FFF78DFF002C2BDD2046A5
:1024C0000AF0E5FB41EC1C0BB0EE4C1AF0EE6C1A76
:1024D0009FED880B0AF000FEB0EE40BAF0EE60BA55
:1024E00053EC192B51EC1B0B0AF0F0FA41EC1A0BD0
:1024F000B0EE4A0AF0EE6A0A0AF0E4FDB0EE409A45
:10250000F0EE609A51EC190B0AF0DFFB80460A22CC
:102510006946FFF75FFF08A80AF013FA06462E2067
:1025200008A98855694608A80AF0FFF908A92846AD
:102530000AF01CFA284610B0BDEC0A8BBDE8F08109
:1025400030B5014600230022002422E07AB9087841
:10255000302802DD0878392802DB08782D2806D1DA
:10256000012208782D280BD10124491C08E0012AFA
:1025700006D10878302802DB0878392800DD0BE026
:10258000012A05D10878303803EB830500EB4503B9
:10259000491C08780028D9D100BF0CB1584230BD81
:1025A0001846FCE70146302903DB392901DC01200C
:1025B00070470020FCE70146202901D10120704727
:1025C0000020FCE770B52DED088B0546287808B192
:1025D000287820B99FED490BBDEC088B70BD002415
:1025E00000E0641C285DFFF7E6FF0028F9D1285DB4
:1025F0002D2802D14FF0FF3000E001200646285D73
:102600002D2802D0285D2B2800D1641C9FED3B8B28
:1026100017E0295DA1F130000AF039FB41EC1A0BFB
:102620009FED340B53EC102B51EC180B0AF04EFAC3
:1026300041EC1B0B53EC1A2B0AF0A1F941EC180BDF
:10264000641C285DFFF7AEFF0028E2D1285D2E282C
:1026500000D1641C9FED2B9B21E0295DA1F130008E
:102660000AF015FB41EC1A0B9FED220B53EC102BDB
:1026700051EC180B0AF02AFA41EC1B0B53EC1A2B05
:102680000AF07DF941EC180B9FED1A0B53EC102B5F
:1026900051EC190B0AF01AFA41EC190B641C285D75
:1026A000FFF780FF0028D8D130460AF0F0FA41EC5D
:1026B0001B0B53EC182B0AF009FA41EC1A0B53ECE4
:1026C000192B0AF075FA41EC100B85E730313233E3
:1026D0003435363738394142434445464748494AFC
:1026E0004B4C4D4E4F505152535455565758595AC2
:1026F0000000000000000000000024400000000076
:1027000000000000000000000000F03F0648804785
:1027100006480047FEE7FEE7FEE7FEE7FEE7FEE7C6
:10272000FEE7FEE7FEE7FEE73F2800088901000814
:102730000CB50020019000908248006840F4803081
:102740008049086000BF7F48006800F400300090B6
:102750000198401C0190009818B90198B0F5A06F3D
:10276000F1D17848006800F4003010B101200090E9
:1027700001E0002000900098012846D171484030C7
:10278000006840F080506F49403108606E48006832
:1027900040F480406C4908606A4808300068694924
:1027A000083108600846006840F4004008600846A8
:1027B000006840F4A05008606448091F0860081FC2
:1027C000006840F08070091F086000BF5D48006825
:1027D00000F000700028F9D040F205605C49086004
:1027E00058480830006820F0030056490831086056
:1027F0000846006840F00200086000BF51480830F9
:10280000006800F00C000828F8D14E480830006835
:1028100020F400004B49083108604E484949843192
:1028200008604848006840F080604649086000BF82
:102830004448006800F000600028F9D00CBD10B5D5
:102840004548006840F47000434908603D4800680E
:1028500040F001003B49086000203A490831086017
:10286000384800683D490840364908603C48091D21
:102870000860081F006820F48020091F08600020FD
:1028800030490C310860FFF753FF4FF000603249C8
:102890008039086010BD70B500200022022300249A
:1028A0000221284D08352D6805F00C0020B10428C0
:1028B00006D0082834D107E02A4D2B4E356033E08E
:1028C0002A4D294E35602FE01E4D2D1D2D68C5F374
:1028D00080541C4D2D1D2D6805F03F0154B1234D32
:1028E000B5FBF1F5174E361D3668C6F3881605FBA5
:1028F00006F209E01B4DB5FBF1F5124E361D3668A8
:10290000C6F3881605FB06F20E4D2D1D2D68C5F386
:1029100001456D1C6B00B2FBF3F5134E356003E00F
:10292000104D114E356000BF00BF064D08352D68B3
:10293000C5F303150E4E705D0B4D2D68C5400A4E54
:10294000356070BD003802400070004008544007F8
:10295000003C02408040003088ED00E0FFFFF6FEC2
:10296000103000240024F4006C09002000127A00CA
:102970007009002032490143324A1160704770B536
:10298000002100230F22C4781CB32E4C246804F4C9
:10299000E064C4F5E064C4F30721C1F10404E3B2C8
:1029A0000A4144789C40E1B28478144021430C07EA
:1029B000210E254C05786155047804F01F0501248B
:1029C000AC4005786D11AD0005F1E025C5F800417A
:1029D00009E0047804F01F050124AC401B4D067883
:1029E000761145F8264070BD194A0A400243154B3E
:1029F0001B1F1A60704739B1124A121D1268024338
:102A0000104B1B1D1A6006E00E4A121D126882430D
:102A10000C4B1B1D1A607047042808D14FF0E021B1
:102A2000096941F004014FF0E022116107E04FF025
:102A3000E021096921F004014FF0E02211617047A3
:102A40000000FA050CED00E000E400E080E100E0A9
:102A500080FFFF1F002044490860091D0860091D10
:102A60000860091D086041483F49143108607047FB
:102A700000213D498279002A3AD00A46126803684B
:102A80009A430B461A600A1D126803689A430B1D8D
:102A90001A60027911440A6803681A430A60324ACC
:102AA0000832126803689A432F4B08331A601A1DC4
:102AB000126803689A432C4B0C331A604279102A2F
:102AC0000ED11A1F126803681A43274B08331A6085
:102AD0001A1D126803681A43234B0C331A600DE069
:102AE0002149427911440A6803681A430A6005E0E3
:102AF000027911440A6803689A430A60704700210A
:102B0000016001710C2141710021817170471649EA
:102B1000103109680143144A1032116070470146B0
:102B20000020114A143212680A400AB1012000E064
:102B3000002070470C49143108607047014600209E
:102B40000022094B1B6803EA0102074B14331B6880
:102B50000B4013B10AB1012000E000207047024988
:102B60001431086070470000003C0140FFFF7F0007
:102B700010B504468C48844208D10121084600F073
:102B800000FB0021012000F0FCFA5EE0874884424F
:102B900008D10121022000F0F4FA0021022000F007
:102BA000F0FA52E08248844208D10121042000F06A
:102BB000E8FA0021042000F0E4FA46E07D4884426F
:102BC00008D10121082000F0DCFA0021082000F0E3
:102BD000D8FA3AE07848844208D10121102000F068
:102BE000D0FA0021102000F0CCFA2EE07348844285
:102BF00008D10121202000F0C4FA0021202000F09B
:102C0000C0FA22E06E48844208D10121402000F041
:102C1000B8FA0021402000F0B4FA16E06948844276
:102C200008D10121802000F0ACFA0021802000F0C2
:102C3000A8FA0AE06448844207D10121801500F017
:102C4000A0FA0021A01500F09CFA10BDF0B50A46CC
:102C500000210023002400BF3DE0012505FA01F317
:102C6000156805EA03049C4234D105684F00032629
:102C7000BE40B543056015794E00B5400668354342
:102C800005601579012D02D01579022D16D18568C0
:102C90004F000326BE40B543856055794E00B540D0
:102CA000866835438560456801268E40B54345609A
:102CB000456896798E40B6B235434560C5684F0089
:102CC0000326BE40B543C560D5794E00B540C66801
:102CD0003543C560491C1029BFD3F0BD4FF6FF71C5
:102CE00001600021017141718171C171704708B5A6
:102CF0004FF480320092009A0A430092009AC26117
:102D0000C161009AC261C2690092C269009208BDA5
:102D10000246002013690B400BB1012000E00020A7
:102D200070470146086980B2704702460020536927
:102D30000B400BB1012000E00020704701464869BC
:102D400080B2704701837047418370470AB10183A5
:102D500000E0418370474161704742694A404261E7
:102D60007047F0B5002300244D07ED0E02FA05F37D
:102D7000CE1000F1200555F826504E07F70E0F260D
:102D8000BE40B543CF1000F1200646F82750CE10C4
:102D900000F1200555F8265045EA0304CE1000F155
:102DA000200545F82640F0BD000002400004024026
:102DB00000080240000C02400010024000140240D3
:102DC00000180240001C024000200240FA4800683F
:102DD00040F00100F84908600020F7490831086018
:102DE000F5480068F5490840F3490860F448091DB2
:102DF0000860081F006820F48020091F0860002078
:102E0000ED490C31086070470021EB4A921C1170AB
:102E100011460870704710B50146002200230020BB
:102E20004A11012A02D1E44C236808E0022A03D1A6
:102E3000E14C7034236802E0DF4C7434236801F005
:102E40001F02012494401C400CB1012000E000202E
:102E500010BD38B5002000900024002500BF3120AF
:102E6000FFF7D9FF05460098401C00900098B0F588
:102E7000A06F01D0002DF2D03120FFF7CCFF08B1B8
:102E8000012400E00024204638BD01460020CA4A43
:102E9000106820F0F80040EAC10010607047C9498E
:102EA000086070470021C44A703211701170012807
:102EB00002D004280AD104E00121BF4A7032117007
:102EC00005E00521BC4A7032117000E000BF00BF70
:102ED0007047BD490860704770B5049C41EA82158F
:102EE0000126C6EB530645EA0645054345EA046557
:102EF000B14E361D356070BDB2490866704782011B
:102F000042EA0172AC4B84331A607047AD4988665F
:102F10007047AC49C864704702460020A64B08338E
:102F2000186820F0EC6042EA01031843A24B083312
:102F300018607047024600209F4B0833186820F045
:102F4000784042EA010318439B4B083318607047EE
:102F500001460020984A0832106820F00300084318
:102F60001060704794480830006800F00C0070470B
:102F700001460020904A0832106820F0F000084313
:102F800010607047014600208B4A0832106820F418
:102F9000E05008431060704701460020864A08321E
:102FA000106820F4604040EAC10010607047F0B53E
:102FB0000021002200240225002602237E4F08372C
:102FC0003F6807F00C0121B1042905D0082937D149
:102FD00005E07E4F076036E07D4F076033E0764FB7
:102FE0003F1D3F68C7F38056734F3F1D3F6807F092
:102FF0003F036EB1764FB7FBF3F7DFF8BCC10CF1BE
:10300000040CDCF800C0CCF3881C07FB0CF40CE0CB
:103010006E4FB7FBF3F7DFF8A0C10CF1040CDCF83E
:1030200000C0CCF3881C07FB0CF4634F3F1D3F68C6
:10303000C7F301477F1C7D00B4FBF5F7076002E092
:10304000624F076000BF00BF5B4F08373F6807F063
:10305000F00109095F4F7A5C0768D7404760564F17
:1030600008373F6807F4E051890A5A4F7A5C47688D
:10307000D7408760504F08373F6807F46041490BDD
:10308000544F7A5C4768D740C760F0BD002100F418
:103090004072B2F5407F0AD1474A0832116821F4E4
:1030A000F8114D4A02401143434A08321160424A26
:1030B00070321268C0F30B031A433F4B70331A602F
:1030C000704741494439086070473F4940390860BA
:1030D000704742490860704739B1374A3032126848
:1030E0000243354B30331A6006E0334A30321268FF
:1030F0008243314B30331A60704739B12E4A343233
:10310000126802432C4B34331A6006E02A4A3432E8
:1031100012688243284B34331A60704739B1264A0B
:10312000383212680243244B38331A6006E0224AD0
:10313000383212688243204B38331A60704739B1F5
:103140001D4A4032126802431B4B40331A6006E0AE
:10315000194A403212688243174B40331A60704755
:1031600039B1154A443212680243134B44331A6092
:1031700006E0114A4432126882430F4B44331A600E
:10318000704739B10C4A1032126802430A4B1033AF
:103190001A6006E0084A103212688243064B103368
:1031A0001A607047E1B1044A143212680243024BBC
:1031B00014331A6019E0000000380240FFFFF6FEE9
:1031C0001030002400004742800E47420024F400E3
:1031D00000127A0080090020FFFCFF0F5C014742CB
:1031E0005B4A126882435A4B1A60704739B1584A99
:1031F000121D12680243564B1B1D1A6006E0544A0A
:10320000121D12688243524B1B1D1A60704739B160
:103210004F4A0C32126802434D4B0C331A6006E0E1
:103220004B4A0C3212688243494B0C331A60704788
:1032300039B1474A103212680243454B10331A60C5
:1032400006E0434A103212688243414B10331A6041
:10325000704739B13E4A3C32126802433C4B3C3322
:103260001A6006E03A4A3C3212688243384B3C33DB
:103270001A60704739B1364A403212680243344B03
:1032800040331A6006E0324A403212688243304BC3
:1032900040331A60704739B12D4A443212680243F4
:1032A0002B4B44331A6006E0294A443212688243A9
:1032B000274B44331A60704739B1254A4C321268A3
:1032C0000243234B4C331A6006E0214A4C32126809
:1032D00082431F4B4C331A60704739B11C4A50323D
:1032E000126802431A4B50331A6006E0184A5032F3
:1032F00012688243164B50331A60704739B1144A32
:10330000D21F12780243124BDB1F1A7006E0104ADC
:10331000D21F127882430E4BDB1F1A7070470C4885
:103320006030006840F08070094960310860704783
:1033300001460020064A083A12680A400AB10120F4
:1033400000E0002070470249891F087070470000A4
:103350001438024010B50446F748844208D10121D0
:103360008014FFF765FF0021A014FFF761FF16E04E
:10337000F248844208D101210014FFF748FF0021E0
:103380002014FFF744FF0AE0ED48844207D10121F1
:10339000C013FFF73CFF0021E013FFF738FF10BD1B
:1033A00010B50022028802F441520B884C88234356
:1033B0008C882343CC8823430C8923434C892343A3
:1033C0008C892343CC8923431A430280838B4FF299
:1033D000FF74234083830B8A038210BD2DE9F04FD5
:1033E000002502230024012700220026944690464F
:1033F0009146B0F81CA04FF2400B0AEA0B0AA0F865
:103400001CA04FF0020AA0F820A0858BD1F808A0DC
:10341000BAF1020F01D100BF6CE0B1F804A0BAF11B
:10342000000F01D1012700E00227DFF818A3DAF826
:1034300000A00AF4000ABAF1000F09D0DFF804A3D3
:10344000DAF800A02AF4000ADFF8F8B2CBF800A0FE
:10345000DFF8F0A20AF17C0ADAF800A0CAF38818B3
:10346000DFF8E0A20AF17C0ADAF800A0CAF30279D8
:10347000DFF8D0A2AAF1040ADAF800A00AF03F0CA3
:10348000DFF8C4A2BAFBFCFA0AFB08FABAFBF9F6A9
:10349000B1F806A0BAF5007F0ED14FEA162A0AEB62
:1034A0008A0A4FEA4A0AD1F808B0BAFBFBFA0AF1D5
:1034B000050A1FFA8AF20FE04FEA471AB6FBFAFA3A
:1034C0000AEB8A0A4FEA4A0AD1F808B0BAFBFBFABB
:1034D0000AF1050A1FFA8AF24FF00A0AB2FBFAF261
:1034E00002F00104A2EB040ACAF34F034FF6FF7A7D
:1034F0000AEA0424022B01DBFF2B01DD0223002456
:10350000B1F806A04AEA040A4AEA030AA0F820A091
:10351000B1F804A0B1F80CB04AEA0B0AB1F802B055
:103520004AEA0B0AB1F800B04AEA0B0A4AF4006A08
:103530004AEA05058583BDE8F08F002101804180BE
:103540008180C180018141818181C1810721018206
:1035500070470021018041808180C180022181600B
:1035600000218181704721B1028842F0400202802F
:1035700004E002884FF6BF731A400280704721B101
:10358000828B42F48062828304E0828B4FF6FF33A9
:103590001A408283704702884FF2FF731A400280FC
:1035A00002880A4302807047B1F5804F04D1028837
:1035B00042F48042028004E002884BF6FF731A4016
:1035C000028070474FF6FF62914204D0028842F4B5
:1035D0008072028004E002884FF6FF631A40028086
:1035E000704721B1828842F00402828004E0828820
:1035F0004FF6FB731A408280704721B1828842F0F7
:103600001002828004E082884FF6EF731A408280B5
:10361000704730B500220023848B4FF240052C40C8
:10362000848302240484828B0C88B4F5007F01D04B
:103630000C8814B94FF4807308E00C88B4F5407F0F
:1036400003D00C88B4F5807F00D100238C888D894D
:103650002C434D882C431C4344F400642243828352
:1036600030BD0146888970478181704721B1028849
:1036700042F40052028004E002884DF6FF731A40C3
:1036800002807047018841F48051018070470246F2
:103690000020012901D0108B00E0908A704701467C
:1036A000088A70471AB183880B43838002E08388BD
:1036B0008B438380704730B5002400230C11012513
:1036C000A540ABB21AB185881D43858002E085888C
:1036D0009D43858030BD0246002013890B400BB10D
:1036E000012000E000207047CA4302817047F0B516
:1036F0000246002000240023002501F00F070126C8
:10370000BE40B4B20B1101269E40B3B2968806EAC1
:1037100003051689264016B10DB1012000E00020F6
:10372000F0BD10B5002201F00F040123A3409AB2AE
:10373000D343038110BD0000003001400038004039
:10374000003C00400838024000127A0010B5012108
:103750008803FFF76DFD00214FF48040FFF768FDFF
:1037600010BD1A490860704730B500228B071C0F46
:103770000F2303FA04F2154B08338C1053F824304E
:103780009343124C08348D1044F8253023468C1096
:1037900053F824308C07240F00FA04F423430B4C15
:1037A00008348D1044F8253030BD09490860704751
:1037B000084908607047002004492031096801F475
:1037C000807109B1012000E00020704700380140FD
:1037D000DC0027420004274210B50446FE4884421C
:1037E00008D101210846FFF723FD00210120FFF742
:1037F0001FFD9DE0B4F1804F08D101210846FFF77D
:1038000006FD00210120FFF702FD91E0F34884420C
:1038100008D101210220FFF7FAFC00210220FFF766
:10382000F6FC85E0EE48844208D101210420FFF730
:10383000EEFC00210420FFF7EAFC79E0E94884422D
:1038400008D101210820FFF7E2FC00210820FFF742
:10385000DEFC6DE0E448844208D101211020FFF72E
:10386000D6FC00211020FFF7D2FC61E0DF48844243
:1038700008D101212020FFF7CAFC00212020FFF7FA
:10388000C6FC55E0DA48844208D101210220FFF746
:10389000CFFC00210220FFF7CBFC49E0D548844251
:1038A00009D101210804FFF7C3FC00214FF4803047
:1038B000FFF7BEFC3CE0D048844209D10121480416
:1038C000FFF7B6FC00214FF40030FFF7B1FC2FE00A
:1038D000CA48844209D101218804FFF7A9FC0021CC
:1038E0004FF48020FFF7A4FC22E0C548844208D1B1
:1038F00001214020FFF78BFC00214020FFF787FCCF
:1039000016E0C048844208D101218020FFF77FFCE7
:1039100000218020FFF77BFC0AE0BB48844207D1EE
:1039200001218015FFF773FC0021A015FFF76FFC44
:1039300010BD00220288A84B98420ED0AC4B984292
:103940000BD0B0F1804F08D0A44B984205D0A44BC7
:10395000984202D0A34B984204D14FF68F731A407D
:103960004B881A43A04B984207D0A04B984204D0F2
:103970004FF6FF431A400B891A4302804B68C3621B
:103980000B880385944B984202D0994B984201D101
:103990008B7A03860123838270474FF0FF314160A9
:1039A00000210180018141808172704701858282FE
:1039B00070470A46002101884FF68F731940114362
:1039C0000180704741627047C16270470146486A92
:1039D00070470146088D704721B1028842F002020B
:1039E000028004E002884FF6FD731A40028070479F
:1039F00021B1028842F00402028004E002884FF6FE
:103A0000FB731A400280704721B1028842F08002A5
:103A1000028004E002884FF67F731A4002807047EC
:103A200002884FF6F7731A40028002880A43028028
:103A3000704702884FF6FF431A40028002880A430B
:103A40000280704721B1028842F00102028004E046
:103A500002884FF6FE731A400280704770B500244A
:103A600000220023058C4FF6FE7635400584028C3B
:103A70008388048B4FF68F752C40B51E2C400D8823
:103A80002C43751E2A408D892A434D882A43524D66
:103A9000A84202D0564DA84213D14FF6F7752A40DE
:103AA000CD892A434FF6FB752A408D882A434FF66D
:103AB000FF652B404FF6FF552B400D8A2B434D8A57
:103AC0002B43838004838D684563028470BD70B589
:103AD000002400220023058C4FF6EF763540058444
:103AE000028C8388048B48F6FF752C404FF6FF4507
:103AF0002C400D884FF6FF7606EA05252C434FF63D
:103B0000DF752A408D8906EA05152A434D8806EAA5
:103B100005152A43304DA84202D0354DA8421DD18B
:103B20004FF67F752A40CD894FF6FF7606EA0515D8
:103B30002A434FF6BF752A408D8806EA05152A43A9
:103B40004FF6FF352B404FF2FF752B400D8A06EAEA
:103B500085052B434D8A06EA85052B438380048324
:103B60008D688563028470BD70B500240022002337
:103B7000058C4FF6FF6635400584028C8388848B64
:103B80004FF68F752C404FF6FC752C400D882C435A
:103B90004FF6FF552A408D894FF6FF7606EA052538
:103BA0002A434D8806EA05252A430B4DA84202D038
:103BB0000F4DA84238D14FF2FF752A40CD894FF6FC
:103BC000FF7606EA05252A434FF6FF352A408D8801
:103BD00006EA05252A4319E00000014000040040E0
:103BE00000080040000C004000100040001400409D
:103BF00000040140004001400044014000480140F1
:103C000000180040001C0040002000404EF6FF75E8
:103C10002B404DF6FF752B400D8A06EA05152B4308
:103C20004D8A06EA05152B43838084838D68C5631E
:103C3000028470BD70B5002200230024058C4EF66E
:103C4000FF7635400584038C8488828B48F6FF75A7
:103C50002A404FF6FF452A400D884FF6FF7606EAC8
:103C600005252A434DF6FF752B408D8906EA05355B
:103C70002B434D8806EA05352B43FE4DA84202D062
:103C8000FD4DA84208D14BF6FF752C400D8A4FF62A
:103C9000FF7606EA85152C43848082838D6805644F
:103CA000038470BD00210180418081808160818119
:103CB000C18101824182704770B503460020002413
:103CC0001846183001258D40ACB21D8CA5431D84CB
:103CD00009B108290AD100EB610005684FF68F761B
:103CE000354005600568154305600FE00D1FC5F3FD
:103CF0004E052844056848F6FF763540056005689E
:103D00004FF6FF7606EA02263543056070BD416333
:103D1000704781637047C1637047016470470A460A
:103D20000021018B4FF68F731940114301837047B7
:103D30000A460021018B48F6FF7319404FF6FF73C6
:103D400003EA02231943018370470A460021818B4D
:103D50004FF68F7319401143818370470A46002143
:103D6000818B48F6FF7319404FF6FF7303EA022375
:103D70001943818370470A460021018B4FF6F77380
:103D800019401143018370470A460021018B4FF20D
:103D9000FF7319404FF6FF7303EA022319430183AF
:103DA00070470A460021818B4FF6F7731940114383
:103DB000818370470A460021818B4FF2FF731940BF
:103DC0004FF6FF7303EA02231943818370470A46C3
:103DD0000021018B4FF6FB7319401143018370479B
:103DE0000A460021018B4FF6FF3319404FF6FF734F
:103DF00003EA02231943018370470A460021818B9D
:103E00004FF6FB7319401143818370470A46002126
:103E1000818B4FF6FF3319404FF6FF7303EA0223FD
:103E20001943818370470A460021018B4FF67F7347
:103E300019401143018370470A460021018BC1F3E9
:103E40000E014FF6FF7303EA022319430183704703
:103E50000A460021818B4FF67F73194011438183FD
:103E600070470A460021818BC1F30E014FF6FF73A4
:103E700003EA02231943818370470A460021018C1B
:103E80004FF6FD7319401143018470470A46002123
:103E9000018C4FF6F77319401143018470470A46AD
:103EA0000021018C4FF6DF7319404FF6FF7303EAD0
:103EB00002131943018470470A460021018C4FF612
:103EC0007F7319404FF6FF7303EA0213194301840D
:103ED00070470A460021018C4FF6FF5319404FF6F8
:103EE000FF7303EA02231943018470470A46002145
:103EF000018C4FF2FF7319404FF6FF7303EA022360
:103F00001943018470470A460021018C4DF6FF7366
:103F100019404FF6FF7303EA0233194301847047D7
:103F200030B5002301248C40A3B2048C9C4304844C
:103F3000048C02FA01F5ADB22C43048430BD30B5D7
:103F4000002304248C40A3B2048C9C430484048C7E
:103F500002FA01F5ADB22C43048430BD828B4FF2DE
:103F6000FF331A408283828B4FF6FF7303EA0123EB
:103F70001A4382837047F0B50C4615460021002293
:103F80000026078C4EF6FF7C07EA0C070784818B1E
:103F9000028C4FF6FF7707EA043640F6FF473940B8
:103FA0004FF6FF7707EA052739434FF6FF7707EA11
:103FB0000337394345F6FF773A4046F480573A4392
:103FC00081830284F0BD828B4FF6F3731A408283A3
:103FD000828B0A4382837047F0B50C461546002158
:103FE00000220026078C4FF6FF6C07EA0C070784B7
:103FF000818B028C4FF6FF7707EA04264FF60C7789
:1040000039404FF6FF7707EA03172F4339434FF242
:10401000FF573A4046F480773A4381830284F0BDEB
:10402000028B4FF2FF331A400283028B4FF6FF736D
:1040300003EA01231A4302837047F0B50C46154684
:10404000002100220026078C4FF6EF7C07EA0C07C0
:104050000784018B028C4FF6FF7707EA041640F6BF
:10406000FF4739404FF6FF7707EA033739434FF6EA
:10407000FF7703E0000001400004014007EA052744
:1040800039434FF65F773A4046F010073A430183D1
:104090000284F0BD028B4FF6F3731A400283028B49
:1040A0000A4302837047F0B50C46154600210022F2
:1040B000068C4FF6FE773E400684018B028C4FF64D
:1040C0000C7631407E1C06EA03162E4331434FF630
:1040D000F576324044F00106324301830284F0BD9C
:1040E00070B505460C46208850B92389A28861889E
:1040F0002846FFF7D8FFE1882846FFF7CBFF25E0E9
:10410000208804280AD12389A28861882846FFF7DD
:1041100094FFE1882846FFF783FF17E020880828EE
:104120000AD12389A28861882846FFF755FFE188D4
:104130002846FFF748FF09E02389A28861882846BE
:10414000FFF719FFE1882846FFF708FF70BD00213F
:1041500001804180012181800021C180018170475F
:104160002DE9F04105460C4600260127608808B974
:10417000022600E00026A088012801D1022700E0E5
:1041800001272088A0B92389A28861882846FFF7E3
:104190008AFFE1882846FFF77DFF23893A463146AA
:1041A0002846FFF74AFFE1882846FFF739FF13E06A
:1041B0002389A28861882846FFF73FFFE1882846C7
:1041C000FFF72EFF23893A4631462846FFF76BFF5B
:1041D000E1882846FFF75EFFBDE8F0810146486BA5
:1041E00070470146886B70470146C86B70470146AF
:1041F000086C70470A884B881A438B881A43CB880F
:104200001A430B891A434B891A438B891A43A0F826
:10421000442070470021018041808180C18001815C
:1042200041818181704731B1B0F8442042F40042AD
:10423000A0F8442005E0B0F84420C2F30E02A0F834
:104240004420704721B1828842F00402828004E059
:1042500082884FF6FB731A408280704721B18288B2
:1042600042F00102828004E082884FF6FE731A4019
:10427000828070471AB183890B43838102E083896E
:104280008B43838170478182704702460020138AE6
:104290000B400BB1012000E000207047CA430282AE
:1042A000704730B50246002000230024158A05EA35
:1042B0000103958905EA010413B10CB1012000E066
:1042C000002030BDCA430282704741EA0203A0F8D1
:1042D000483070471AB183890B43838102E0838998
:1042E0008B438381704721B1828842F0080282802B
:1042F00004E082884FF6F7731A4082807047018984
:104300004FF6F8721140018170470A460021018979
:104310004FF68F73194011430181704730B5044641
:104320000D4629462046FFF7F0FF208940F00700A0
:10433000208130BD2DE9F04104460D4616461F464A
:10434000602D06D13B46012231462046FFF775FE1F
:1043500005E03B46012231462046FFF7A4FE2946F0
:104360002046FFF7D2FF208940F007002081BDE8FA
:10437000F08130B50C4600210189C9B24FF6FF75B6
:1043800005EA0325154325432943018130BD2DE965
:10439000F04105460E4617469846002443463A46E5
:1043A00031462846FFF7E5FF2C894FF6F8700440A8
:1043B00044F007044FF68F70044044F070042C81E1
:1043C000BDE8F081F0B504460D4616461F463B4653
:1043D000324629462046FFF7CCFF208940F4804032
:1043E0002081F0BD82884FF68F731A4082808288C8
:1043F0000A438280704702894FF6F8731A4002819F
:1044000002890A430281704702894FF67F731A407E
:10441000028102890A4302817047F0B50C461546B5
:104420001E460021002200230189028B038C4FF6D7
:10443000F877394021434FF6FC473A4040F20117E4
:104440003A434FF6DD773B404FF6FF7707EA061712
:104450002F433B43018102830384F0BD21B1828855
:1044600042F08002828004E082884FF67F731A4017
:1044700082807047A0F850107047000010B50446C5
:10448000F748844208D101211020FEF7D1FE002117
:104490001020FEF7CDFE3EE0F248844209D1012112
:1044A0004804FEF7B4FE00214FF40030FEF7AFFEE3
:1044B00031E0ED48844209D101218804FEF7A7FECE
:1044C00000214FF48020FEF7A2FE24E0E74884425A
:1044D00009D10121C804FEF79AFE00214FF4002003
:1044E000FEF795FE17E0E248844209D10121080554
:1044F000FEF78DFE00214FF48010FEF788FE0AE0E3
:10450000DC48844207D101212020FEF791FE0021E2
:104510002020FEF78DFE10BD2DE9FF4705460E4613
:104520000024A14600BFA046B08900B100BF2C8A7C
:1045300024F44054F08804432C82AC8941F20C608E
:104540008443B08831890843718908430443AC81AE
:10455000AC8A24F44074B0890443AC826846FEF708
:1045600026FDBF48854202D0C248854202D1DDF80F
:104570000C9001E0DDF80890A88900F4004040B1FB
:1045800009EBC90000EB091031684900B0FBF1F7F5
:1045900007E009EBC90000EB091031688900B0FBA6
:1045A000F1F76420B7FBF0F004012009642101FB5E
:1045B0001078A88900F4004040B1322000EBC80018
:1045C000B0FBF1F000F00700044308E0322000EBFC
:1045D00008106421B0FBF1F000F00F0004432C81BF
:1045E000BDE8FF874FF41651016000218180C18032
:1045F00001810C21418100218181704710B5024663
:104600000020108A20F470600B884C8823438C882B
:104610002343CC8823431843108210BD002101801E
:1046200041808180C180704721B1828942F400526B
:10463000828104E082894DF6FF731A4082817047BF
:10464000028B02F47F420283028B0A43028370478B
:1046500021B1828942F40042828103E08289C2F35F
:104660000E028281704721B1828A42F40062828206
:1046700004E0828A4FF2FF731A4082827047C1F3CE
:1046800008028280704701468888C0F3080070479E
:10469000028A4FF6F0731A400282028A0A430282AB
:1046A000704721B1828942F00202828104E082894E
:1046B0004FF6FD731A408281704782894FF2FF7373
:1046C0001A40828182890A4382817047028A4FF6AA
:1046D000DF731A400282028A0A430282704721B1C4
:1046E000028A42F48042028204E0028A4BF6FF739F
:1046F0001A4002827047818941F00101818170472F
:1047000021B1828A42F00802828204E0828A4FF656
:10471000F7731A4082827047028BD2B20283028BF7
:1047200042EA01220283704721B1828A42F02002CC
:10473000828204E0828A4FF6DF731A4082827047D9
:1047400021B1828A42F01002828204E0828A4FF60E
:10475000EF731A4082827047828A4FF6FB731A40C9
:104760008282828A0A438282704721B1828A42F021
:104770000202828204E0828A4FF6FD731A4082822E
:1047800070471AB1838A0B43838202E0838A8B438A
:1047900083827047F0B503460024002600250020E0
:1047A00040F66A17B94200D100BF1846C1F342145F
:1047B00001F01F06012707FA06F5012C01D10C3084
:1047C00004E0022C01D1103000E014301AB1076867
:1047D0002F43076002E00768AF430760F0BD024661
:1047E0000020B1F5007F00D100BF13880B400BB152
:1047F000012000E00020704701F40072B2F5007F54
:1048000000D100BFCA430280704770B50246002441
:1048100000230025002040F66A16B14200D100BFF7
:10482000C1F3421501F01F03012606FA03F3012D1F
:1048300002D19689334006E0022D02D1168A334018
:1048400001E0968A33400C12012606FA04F4168819
:10485000344013B10CB1012000E0002070BD000015
:10486000001001400044004000480040004C00405F
:10487000005000400014014010B50022002340F613
:104880006A14A14200D100BF0A1201249440A3B2CD
:10489000DC43048010BD000010B5002400BF00BF41
:1048A00000F054F9044600BF00BF1021A24800F0F8
:1048B000FAFA00BF00BF204600F04CF900BF00BF6D
:1048C00010BD10B5FFF7E8FF10BD10B500209B49E3
:1048D0000860FCF784FB10BD10B5FFF7F6FFFFF78B
:1048E000F0FF10BD00BFFEE770B505460C46002680
:1048F00014B900BFFFF7F6FF15B90A20208070BD7C
:1049000000BF00BF00F022F9064600BF00BF102222
:104910008949284600F0A6FB00BF00BF304600F0E2
:1049200019F900BF00BF0020208000BFE7E72DE994
:10493000F04105460C46002714B900BFFFF7D2FF2F
:104940001DB90A202080BDE8F0811021284600F022
:1049500071FB0646102E15D200BF00BF00F0F6F81E
:10496000074600BF00BF10222946734800F07AFBBB
:1049700000BF00BF384600F0EDF800BF00BF0020C8
:10498000208002E04FF47A70208000BFDBE710B592
:10499000FCF73BFB0446204610BD704700B50146BE
:1049A00011B900BFFFF79EFF644A106808B10022EA
:1049B00001E04FF4FA620A8000BD60490860704768
:1049C00070B50546284600F0CCF80446183C204651
:1049D00070BD70B50546284600F0C3F80446103C8B
:1049E000204670BD70B50546284600F0BAF804466A
:1049F00000BF204670BD30B502460B464FF0FF3574
:104A00000024AD1A9C4127D24FF0FF352C0CAD1A73
:104A10009C410FD24FF0FF352C0AAD1A9C4103D2B6
:104A2000190E474C605C45E0190C454C645C04F180
:104A300008003FE04FF0FF35FF24AD1A9C4105D23E
:104A4000190A3F4C645C04F1100033E019463C4CF9
:104A5000645C04F118002DE04FF6FF750024AD1AD8
:104A60009C4115D26FF07F450024AD1A9C4107D2BE
:104A7000140E44EA0321324C645C04F1200019E076
:104A8000140C44EA03412E4C645C04F1280011E04C
:104A9000FF250024AD1A9C4107D2140A44EA0361A1
:104AA000274C645C04F1300004E01146244C645C43
:104AB00004F1380030BD70B504460CB9082070BD53
:104AC000204600F051F805462846F8E770B5044640
:104AD0000CB9102070BD204600F046F80546284667
:104AE000F8E770B504460CB9202070BD204600F0F0
:104AF0003BF805462846F8E72DE9F04304460D4605
:104B0000002184EA01006940084302D14020BDE849
:104B1000F083E243E843521C40F1000102EA04063C
:104B200001EA050730463946FFF765FF8046C8F1C0
:104B30003F094846EBE70000582F0020900900206D
:104B4000DCDE000872B6704762B67047EFF3108083
:104B500072B6704780F31088704730BF704720BF2F
:104B60007047B0FA80F0704790FAA0F0B0FA80F089
:104B7000704790FAA0F070470146412903DB5A299B
:104B800001DC012200E00022012A08D0612903DBB8
:104B90007A2901DC012200E00022012A01D1012250
:104BA00000E00022104670470146412903DB5A29E4
:104BB00001DC012200E00022012A08D0612903DB88
:104BC0007A2901DC012200E00022012A01D1012220
:104BD00000E00022012A08D0302903DB392901DC5A
:104BE000012200E00022012A01D1012200E000227E
:104BF000104670470146612903DB7A2901DC012256
:104C000000E00022104670470146412903DB5A2983
:104C100001DC012200E000221046704701463029E5
:104C200003DB392901DC012200E000221046704735
:104C30000146302903DB372901DC012200E0002294
:104C4000104670470146302901DB392907DD41292B
:104C500001DB462903DD612903DB662901DC012232
:104C600000E00022104670470146202901D00929A2
:104C700001D1012200E000221046704701462029A0
:104C800009D00D2907D00A2905D00C2903D00929FC
:104C900001D00B2901D1012200E00022104670470B
:104CA0000146202903DB7E2901DC012200E00022ED
:104CB000104670470146212903DB7E2901DC0122D1
:104CC00000E00022104670470146202903DB7E29C0
:104CD00001DC012200E00022012A35D1202909D07F
:104CE0000D2907D00A2905D00C2903D0092901D0A4
:104CF0000B2901D1012200E000222ABB412903DB5C
:104D00005A2901DC012200E00022012A08D0612991
:104D100003DB7A2901DC012200E00022012A01D113
:104D2000012200E00022012A08D0302903DB3929C2
:104D300001DC012200E00022012A01D1012200E071
:104D400000220AB9012200E0002210467047014605
:104D50004AB2002A01DB1F2901DD7F2901D101228E
:104D600000E00022104670470146412903DB5A2922
:104D700001DC012200E00022012A02D101F120021F
:104D800000E00A46D0B270470146612903DB7A2968
:104D900001DC012200E00022012A02D1A1F120025F
:104DA00000E00A46D0B27047F0B504460B462046F4
:104DB000FFF7EAFF05461846FFF7E6FF0646B5424D
:104DC00001D1012000E0002007463846F0BD000078
:104DD00070B50446002500BF00BFFFF7B7FE0546CB
:104DE00000BF00BF1848046000BF00BF2846FFF79F
:104DF000B1FE00BF00BF70BD10B50120FFF7E8FF96
:104E000010BD014643F23902104B03FB012222F090
:104E10000040704770B5002600BF00BFFFF796FE48
:104E2000064600BF00BF084805682846FFF7E9FFAF
:104E300004460548046000BF00BF3046FFF78AFE05
:104E400000BF00BF204670BD940900206D4EC641D2
:104E500070472DE9F04105460B4694460027002493
:104E600002E03F021F43641C042CFAD3604605F0A5
:104E70000306294646B1344603E001F8013B401ED3
:104E8000641C08B1042CF8D30A4601E080C2001F5C
:104E90000428FBD2114602E001F8013B401E002825
:104EA000FAD1BDE8F08130B505460C462246002116
:104EB0002846FFF7CEFF30BD2DE9F04F85B00746FD
:104EC0008846914646463D46AE4207D94A46414647
:104ED000384600F045FD05B0BDE8F08F4C4607EBC5
:104EE0000900451E08EB0900461EA81B0490049803
:104EF000042834D305F00300029006F00301019169
:104F0000DDE90110884201D1012000E0002000907D
:104F10000098012823D10298032810D0029840B2AB
:104F2000039008E016F8010905F80109641E0398CA
:104F3000401E40B2039014B103980028F2DAA5F1A4
:104F4000030AA6F1030B04E05BF804094AF804091C
:104F5000241F042CF8D20AF103050BF1030604E028
:104F600016F8010905F80109641E002CF8D100BFEC
:104F7000B1E72DE9F84F80468946154615B901205D
:104F8000BDE8F88FB8F1000F01D10020F8E7B9F1C2
:104F9000000F01D10020F3E70124294608EB0502A8
:104FA00009EB050302F0030C03F0030BDC4501D110
:104FB000012000E0002000900098012829D1BCF1D8
:104FC000000F12D0E2460AE0521E5B1E107893F8E2
:104FD00000E0704500D00024491EAAF1010A012C0E
:104FE00003D111B1BAF1000FEED1012C11D1164647
:104FF0001F4608E0361F3F1F3068D7F800E07045B5
:1050000000D00024091F012C01D10429F2D232461C
:105010003B4608E0521E5B1E107893F800E0704596
:1050200000D00024491E012C01D10029F2D12046D4
:10503000A6E7000010B502460B461146002001E02D
:10504000491C401C19B10C780CB19842F8D310BD22
:1050500030B504464FF0FF312046FFF7EBFF054621
:10506000284630BD70B504460D4616460CB90020E2
:1050700070BD0DB90020FBE721462A46002304E05D
:1050800010780870491C521C5B1C21B11AB11078B1
:1050900008B1B342F4D301B10AB90020E8E7B34242
:1050A00001D2002008702046E2E770B504460D46A4
:1050B0004FF0FF3229462046FFF7D4FF0646304620
:1050C00070BD70B503460C4615460BB9002070BD87
:1050D0000CB90020FBE70DB91846F8E7194600E0C7
:1050E000491C11B108780028FAD109B90020EEE76F
:1050F0002246002604E010780870491C521C761CD9
:1051000021B11AB1107808B1AE42F4D301B10AB995
:105110000020DCE7002008701846D8E770B5044688
:105120000D464FF0FF3229462046FFF7CAFF0646DC
:10513000304670BD2DE9F04305460B469446BCF160
:10514000000F02D10020BDE8F08335B90BB9002073
:10515000F9E7187842421046F5E713B92A78104665
:10516000F1E729461C460F4626467F1C761C4FF069
:10517000000805E0491C641C7F1C761C08F101082E
:10518000087894F80090484505D1087818B117B10F
:105190000EB1E045EED3E04501D10020D3E7087819
:1051A00094F80090484505D0087894F80090A0EB5A
:1051B00009020BE0087808B9002207E02FB90EB900
:1051C000002203E03078424200E03A781046BAE725
:1051D00070B504460D464FF0FF3229462046FFF7D2
:1051E000A9FF0646304670BD2DE9F74F82B08046D4
:1051F0000E46049818B9002005B0BDE8F08FB8F14C
:10520000000F09D10EB90020F6E73078FFF7ACFDAA
:1052100007467C422046EFE73EB998F80000FFF7CA
:10522000A3FD05462C462046E6E7C146B246C846E1
:10523000C3465646CDF804A0D8460BF1010B019E9B
:10524000701C0190C84699F80000FFF78DFD0546D7
:1052500056469AF80000FFF787FD074600200090A9
:1052600015E009F101090AF1010A0BF1010B01989E
:10527000401C01900098401C009099F80000FFF736
:1052800073FD05469AF80000FFF76EFD0746BD4224
:105290000BD199F8000040B1BBF1000F05D0019887
:1052A00018B1049900988842DBD304990098884289
:1052B00001D10020A0E7BD4201D0EC1B16E00DB9E2
:1052C000002413E0BBF1000F0AD1019808B90024B3
:1052D0000CE001990878FFF747FD07467C4205E09E
:1052E0009BF80000FFF740FD05462C46204683E76B
:1052F00070B504460D464FF0FF3229462046FFF7B1
:1053000073FF0646304670BD30B504460B46154661
:105310000CB9002030BD0BB90020FBE7214600226C
:1053200001E0491C521C31B1087820B10878A8422C
:1053300001D09A42F5D309B90020EBE79A4201D394
:105340000020E7E70878A84201D00020E2E70846FD
:10535000E0E770B505460C4622464FF0FF3128467F
:10536000FFF7D2FF0646304670BD2DE9F0430546F3
:105370000E46174615B90020BDE8F0830EB900208F
:10538000FAE72C46A6F1010949462046FFF752FEEE
:10539000804644440CB90020EEE700E0641EAC42B5
:1053A00002D02078B842F9D12078B84201D000204C
:1053B000E2E72046E0E770B505460C4622464FF08E
:1053C000FF312846FFF7D1FF0646304670BD70B565
:1053D00004460D4616460CB9002070BD0BB90020DE
:1053E000FBE721461A4605E00878A84200D10E7076
:1053F000491C521E19B1087808B1002AF4D1204680
:10540000EBE7F0B504460D4616464FF0FF33324643
:1054100029462046FFF7DBFF07463846F0BD2DE959
:10542000FF4F06460F4615461EB9002004B0BDE8E2
:10543000F08F0FB90020F9E70DB90020F6E7681CDE
:1054400000B101E04FF0FF30039029463046FFF7EE
:10545000F1FD804638460399FFF7ECFD04460CB990
:105460003046E3E7444501D90020DFE706EB080BAF
:10547000BBF1000F01D10020D8E707EB040BBBF113
:10548000000F01D10020D1E7A8EB040002904FF0FB
:1054900000090020019000BF06EB090000902246A1
:1054A00039460098FFF746FE8246BAF1000F01D157
:1054B000012000E00020019009F10109019810B9D4
:1054C00002988145E8D9BAF1000F01D00020ADE77C
:1054D0000098ABE770B504460D464FF0FF32294601
:1054E0002046FFF79CFF0646304670BD2DE9FF4F72
:1054F0008DB00F4615461A9E1D9818B9002011B0A0
:10550000BDE8F08F002003900490012F01DA012004
:105510000390022D01D3242D01D90120039096B3CD
:105520003046FFF7BDFB02900298012802D001200F
:10553000039028E0302E26D0A6F13000C0B20790AC
:105540001B98012804D0A6F14100C0B2069003E0E8
:10555000A6F16100C0B206900A2D02D80798A842B1
:1055600009DB0A2D09D907980A2804D3A5F10A00F6
:105570000699884201D9012000E000200590059895
:10558000012800D103901D9C0398002846D1DDF826
:1055900034A0DDF834A0CDF830A001200B9007E056
:1055A0000B98401CC0B20B900C98B0FBF5F00C901F
:1055B0000C98A842F4D21098012800D100E00020F5
:1055C00009900B9909980844B84225DC0020019005
:1055D0000B98B84201DA0B9800E038460A903EB1C9
:1055E000B8460A98391A0998081AC0B2089006E015
:1055F000DDE90910084400F0FF0800200890089831
:10560000002806DD302E01D1012000E000200490AA
:1056100004E00020049001E001200390039800B111
:10562000B84644441C9808B100202070641E4FF016
:10563000000941E00398A8BBBAF1000F02D1B9F10B
:10564000000F1CD1BAFBF5F005FB10A000F0FF0B1A
:10565000BBF10A0F04D20BF1300004F801090BE092
:105660001B98012804D00BF1370004F8010903E06E
:105670000BF1570004F80109BAFBF5FA1AE010988B
:10568000012810D1049808B9019828B1049850B1A4
:10569000A8F10100484506D12D2004F80109012098
:1056A000019007E003E02EB104F8016902E03F2019
:1056B00004F8010909F10109C145BBD3039808B1F8
:1056C00000201CE71D981AE72DE9FF5F05460E46EE
:1056D00017461C46DDE90F9ADDF8388000233A466C
:1056E000314628468DE81007FFF700FF83465846ED
:1056F00004B0BDE8F09F2DE9FF4F85B00446894610
:105700001F46DDE913AB002C02DA6542012601E0F9
:105710002546002612983346CDE902ABCDE900704C
:1057200049462846079AFFF7E1FE8046404609B001
:10573000BDE8F08F2DE9FF4F8BB006468946154630
:10574000B9F1000F02D10DF1240900BFC9F80060C2
:10575000189810B907A8189000BF00211898017078
:105760001EB900200FB0BDE8F08F012D01D0242D0F
:1057700001D90020F6E734462078FFF77FFA03903E
:1057800004E0641C2078FFF779FA0390039801285D
:10579000F7D020782B2802D02D280BD103E0641CF1
:1057A0004FF0000B09E00E98012800D1641C4FF067
:1057B000010B02E04FF0000B00BF00BF0A9425B1BF
:1057C000082D1CD0102D36D11EE02078302814D1A1
:1057D000641C2078582802D078280BD100BF1025EF
:1057E00067783846FFF72EFA8246BAF1010F00D1EA
:1057F000641C01E0082500BF00E00A251CE02078B9
:10580000302800D1641C17E02078302812D1641CA5
:105810002078582802D078280AD100BF6778384607
:10582000FFF710FA8246BAF1010F00D1641C00E0C4
:1058300000BF00BF00E000BF00BF4FF00008002025
:105840000290019040E027783846FFF7ADF90590C7
:105850000598012836D13846FFF7E0F906900698FA
:10586000012804D1A7F13000C0B208900FE03846FB
:10587000FFF7C0F904900498012804D1A7F157005C
:10588000C0B2089003E0A7F13700C0B208900898B2
:10589000A84214DA029880B9304850F825004045F3
:1058A00009D308FB05F8089880440898804504D27D
:1058B0000120029001E001200290641C04E001201C
:1058C000019001E00120019001980028BBD00298CE
:1058D000012801D14FF0FF380A98844202D0C9F85C
:1058E000004001E0C9F80060189880F800B0404618
:1058F00038E7F8B504460D46164600200346324602
:10590000294600902046FFF715FF07463846F8BDA8
:105910002DE9FC4105460E46174601A801233A46EB
:10592000314600902846FFF705FF04469DF8040025
:1059300040B9B4F1004F02D36FF0004000E02046C0
:10594000804607E0B4F1004F02D34FF0004000E082
:10595000604280464046BDE8FC810000E0DF000870
:10596000002800D17047002900D17047002A00D1DB
:1059700070472DE9F81F00F0030301F00304A34270
:1059800011D1C3F1040303F00303012B1DD3012A3A
:1059900000D2F2E011F8014B00F8014BA3F1010332
:1059A000A2F10102F1E700F0010301F00104A342BA
:1059B00000D094E0012B44D311F8014B00F8014BC7
:1059C000A3F10103A2F10102F4E7B2F5B47F26D3FB
:1059D000B1E8F81FA0E8F81FB1E8F81FA0E8F81F29
:1059E000B1E8F81FA0E8F81FB1E8F81FA0E8F81F19
:1059F000B1E8F81FA0E8F81FB1E8F81FA0E8F81F09
:105A0000B1E8F81FA0E8F81FB1E8F81FA0E8F81FF8
:105A1000B1E8F81FA0E8F81FA2F5B472D5E7282A6C
:105A200006D3B1E8F81FA0E8F81FA2F12802F6E7B4
:105A3000042A06D351F8043B40F8043BA2F10402C7
:105A4000F6E7202A42D331F8023B20F8023B31F836
:105A5000023B20F8023B31F8023B20F8023B31F8D0
:105A6000023B20F8023B31F8023B20F8023B31F8C0
:105A7000023B20F8023B31F8023B20F8023B31F8B0
:105A8000023B20F8023B31F8023B20F8023B31F8A0
:105A9000023B20F8023B31F8023B20F8023B31F890
:105AA000023B20F8023B31F8023B20F8023B31F880
:105AB000023B20F8023B31F8023B20F8023B31F870
:105AC000023B20F8023BA2F12002BAE7022A06D3E9
:105AD00031F8023B20F8023BA2F10202F6E7102A5D
